{"src/locks/VestingLock.sol":{"VestingLock":{"abi":[{"type":"function","name":"getAmount","inputs":[],"outputs":[{"name":"","type":"uint256","internalType":"uint256"}],"stateMutability":"view"},{"type":"function","name":"getClaimableAmount","inputs":[],"outputs":[{"name":"","type":"uint256","internalType":"uint256"}],"stateMutability":"view"},{"type":"function","name":"getCliffPeriod","inputs":[],"outputs":[{"name":"","type":"uint256","internalType":"uint256"}],"stateMutability":"view"},{"type":"function","name":"getCurrentSlot","inputs":[],"outputs":[{"name":"","type":"uint256","internalType":"uint256"}],"stateMutability":"view"},{"type":"function","name":"getEnableCliff","inputs":[],"outputs":[{"name":"","type":"bool","internalType":"bool"}],"stateMutability":"view"},{"type":"function","name":"getLastClaimedTime","inputs":[],"outputs":[{"name":"","type":"uint256","internalType":"uint256"}],"stateMutability":"view"},{"type":"function","name":"getNextVestingDate","inputs":[],"outputs":[{"name":"","type":"uint256","internalType":"uint256"}],"stateMutability":"view"},{"type":"function","name":"getOwner","inputs":[],"outputs":[{"name":"","type":"address","internalType":"address"}],"stateMutability":"view"},{"type":"function","name":"getRecipient","inputs":[],"outputs":[{"name":"","type":"address","internalType":"address"}],"stateMutability":"view"},{"type":"function","name":"getReleasedAmount","inputs":[],"outputs":[{"name":"","type":"uint256","internalType":"uint256"}],"stateMutability":"view"},{"type":"function","name":"getSlots","inputs":[],"outputs":[{"name":"","type":"uint256","internalType":"uint256"}],"stateMutability":"view"},{"type":"function","name":"getStartTime","inputs":[],"outputs":[{"name":"","type":"uint256","internalType":"uint256"}],"stateMutability":"view"},{"type":"function","name":"getToken","inputs":[],"outputs":[{"name":"","type":"address","internalType":"address"}],"stateMutability":"view"},{"type":"function","name":"getUnlockTime","inputs":[],"outputs":[{"name":"","type":"uint256","internalType":"uint256"}],"stateMutability":"view"},{"type":"function","name":"getVestingStatus","inputs":[],"outputs":[{"name":"vestedAmount","type":"uint256","internalType":"uint256"},{"name":"claimedAmount","type":"uint256","internalType":"uint256"},{"name":"claimableAmount","type":"uint256","internalType":"uint256"},{"name":"remainingAmount","type":"uint256","internalType":"uint256"},{"name":"nextVestingDate","type":"uint256","internalType":"uint256"},{"name":"vestingProgress","type":"uint256","internalType":"uint256"}],"stateMutability":"view"},{"type":"function","name":"initialize","inputs":[{"name":"_owner","type":"address","internalType":"address"},{"name":"_token","type":"address","internalType":"address"},{"name":"_amount","type":"uint256","internalType":"uint256"},{"name":"_unlockTime","type":"uint256","internalType":"uint256"},{"name":"_cliffPeriod","type":"uint256","internalType":"uint256"},{"name":"_recepeint","type":"address","internalType":"address"},{"name":"_slots","type":"uint256","internalType":"uint256"},{"name":"_currentSlot","type":"uint256","internalType":"uint256"},{"name":"_releasedAmount","type":"uint256","internalType":"uint256"},{"name":"_lastClaimedTime","type":"uint256","internalType":"uint256"},{"name":"_enableCliff","type":"bool","internalType":"bool"}],"outputs":[],"stateMutability":"nonpayable"},{"type":"function","name":"vestingAmount","inputs":[],"outputs":[{"name":"","type":"uint256","internalType":"uint256"}],"stateMutability":"view"},{"type":"function","name":"vestingInterval","inputs":[],"outputs":[{"name":"","type":"uint256","internalType":"uint256"}],"stateMutability":"view"},{"type":"function","name":"withdraw","inputs":[],"outputs":[],"stateMutability":"nonpayable"},{"type":"error","name":"InvalidOwner","inputs":[]},{"type":"error","name":"InvalidToken","inputs":[]},{"type":"error","name":"NotClaimableYet","inputs":[]},{"type":"error","name":"NotOwner","inputs":[]},{"type":"error","name":"OnlyRecipient","inputs":[]},{"type":"error","name":"YouClaimedAllAllocatedTokens","inputs":[]}],"userdoc":{},"devdoc":{},"evm":{"bytecode":{"object":"60808060405234610016576116e8908161001c8239f35b600080fdfe6040608081526004908136101561001557600080fd5b600091823560e01c908162728f7614610e265781631b88094d14610dfd57816321df0da714610dd45781633660218c14610db757816338adde5014610d985781633ccfd60b146107405781633d9205c114610721578163602bc62b146106ff578163747ba251146106db578163893d20e8146106b35781639a5569a714610694578163b8e50cab14610677578163c354bd6e14610653578163c828371e14610634578163d321fe2914610615578163d8e3784c146105f6578163ed3410d9146104bb578163ee4a745c14610114575063fab2c469146100f357600080fd5b346101105781600319360112610110576020906006549051908152f35b5080fd5b8284346104b857806003193601126104b85781516364141b8f60e11b81529160209182848681305afa9384156104ac57819461047d575b508151633d9205c160e01b815283818781305afa908115610473578291610446575b50825163747ba25160e01b81529284848881305afa93841561043c57839461040d575b50805163d321fe2960e01b81529585878981305afa9687156104035784976103d0575b508151639a5569a760e01b81529086828a81305afa91821561033a5785926103a1575b506101df6112e7565b936101e8610fb5565b96808061038f575b1561026b5750505083965b6102058882611285565b94811561025f5760648902908982046064148a15171561024c575060c099509061022e91610e7b565b955b82519788528701528501526060840152608083015260a0820152f35b634e487b7160e01b815260118b52602490fd5b905060c0985095610230565b156103895761027991610f7f565b80421160001461037f5761029061029e9142611285565b610298611292565b90610e7b565b825163fab2c46960e01b808252919088818c81305afa908115610375578791610344575b5081116102e3575b6102dd91506102d7610e9b565b90610fa2565b966101fb565b50825190815286818a81305afa801561033a578590610307575b6102dd91506102ca565b508681813d8311610333575b61031d8183610e43565b8101031261032f576102dd90516102fd565b8480fd5b503d610313565b83513d87823e3d90fd5b90508881813d831161036e575b61035b8183610e43565b8101031261036a57518b6102c2565b8680fd5b503d610351565b85513d89823e3d90fd5b5061029e84610290565b50610279565b5061039a8284610f7f565b42106101f0565b9091508681813d83116103c9575b6103b98183610e43565b8101031261032f575190896101d6565b503d6103af565b9096508581813d83116103fc575b6103e88183610e43565b810103126103f8575195886101b3565b8380fd5b503d6103de565b82513d86823e3d90fd5b61042e919450853d8711610435575b6104268183610e43565b810190610f67565b9287610190565b503d61041c565b81513d85823e3d90fd5b90508381813d831161046c575b61045d8183610e43565b8101031261011057518661016d565b503d610453565b83513d84823e3d90fd5b9093508281813d83116104a5575b6104958183610e43565b810103126103f85751928561014b565b503d61048b565b509051903d90823e3d90fd5b80fd5b838334610110576101603660031901126101105782356001600160a01b03818116918290036103f8576024359181831680930361032f5760a43591821680920361032f5761014435928315158094036105f257600b549460ff8660081c166105ba5781156105ab57821561059c575090610100959660ff9493926bffffffffffffffffffffffff60a01b92838a54161789558260015416176001556044356003556064359055608435600555600254161760025560c43560065560e435600755610104356008556101243560095542600a55169061ffff19161717600b5580f35b516349e27cff60e01b81528790fd5b5163c1ab6dc160e01b81528790fd5b5162461bcd60e51b81526020818901526013602482015272105b1c9958591e481a5b9a5d1a585b1a5e9959606a1b6044820152606490fd5b8580fd5b5050346101105781600319360112610110576020906007549051908152f35b5050346101105781600319360112610110576020906003549051908152f35b505034610110578160031936011261011057602090600a549051908152f35b5050346101105781600319360112610110576020906106706112e7565b9051908152f35b505034610110578160031936011261011057602090610670611292565b5050346101105781600319360112610110576020906008549051908152f35b505034610110578160031936011261011057905490516001600160a01b039091168152602090f35b50503461011057816003193601126101105760209060ff600b541690519015158152f35b90503461071d578260031936011261071d5760209250549051908152f35b8280fd5b5050346101105781600319360112610110576020906005549051908152f35b9190503461071d578260031936011261071d578051631b88094d60e01b8082526020929183818681305afa908115610d8e578691610d71575b506001600160a01b039081163303610d615782516364141b8f60e11b815284818781305afa908115610c6f578791610d34575b508351633d9205c160e01b815285818881305afa908115610ae0578891610d03575b50845163747ba25160e01b815286818981305afa908115610b3c578991610ce6575b508080610cd4575b610cc45715610cb15761080b8183610f7f565b421115610ca6576108226102909161082893610f7f565b42611285565b835163fab2c46960e01b8082529086818981305afa908115610b3c578991610c79575b508211610c1f575b508351633638de1360e21b8082528892909187818a81305afa908115610c15578a91610be4575b508111610b85575b508115610b755761089a610894610e9b565b83610fa2565b91855191825286828981305afa8015610b3c578990610b46575b6108be9250610f7f565b8451639a5569a760e01b815286818981305afa8015610b3c5783908a90610b07575b6108ea9250610f7f565b906007556008554260095583516321df0da760e01b815285818881305afa908115610ae0579083918991610aea575b501690845193845285848881305afa938415610ae0578894610ab1575b508451928684019463a9059cbb60e01b8652166024840152604483015260448252608082019267ffffffffffffffff9280851084861117610a9e5760c0810185811085821117610a8b5786528685527f5361666545524332303a206c6f772d6c6576656c2063616c6c206661696c656460a082015251889182919082855af1903d15610a7c573d928311610a6957906109ee9392918551926109e188601f19601f8401160185610e43565b83523d898885013e6115de565b805190816109fa578580f35b8380610a0a938301019101610f67565b15610a155780808580f35b5162461bcd60e51b815291820152602a60248201527f5361666545524332303a204552433230206f7065726174696f6e20646964206e6044820152691bdd081cdd58d8d9595960b21b606482015260849150fd5b634e487b7160e01b885260418752602488fd5b906109ee9392506060916115de565b634e487b7160e01b8a526041895260248afd5b634e487b7160e01b895260418852602489fd5b610ad2919450863d8811610ad9575b610aca8183610e43565b810190611266565b9238610936565b503d610ac0565b85513d8a823e3d90fd5b610b019150873d8911610ad957610aca8183610e43565b38610919565b50508681813d8311610b35575b610b1e8183610e43565b81010312610b3157826108ea91516108e0565b8880fd5b503d610b14565b86513d8b823e3d90fd5b508682813d8311610b6e575b610b5c8183610e43565b81010312610b31576108be91516108b4565b503d610b52565b8451634e4f9d1d60e11b81528790fd5b855182815291925086828981305afa908115610b3c578991610bb3575b610bac9250611285565b9038610882565b90508682813d8311610bdd575b610bca8183610e43565b81010312610b3157610bac915190610ba2565b503d610bc0565b90508781813d8311610c0e575b610bfb8183610e43565b81010312610c0a57513861087a565b8980fd5b503d610bf1565b87513d8c823e3d90fd5b9050835190815284818781305afa908115610c6f578791610c42575b5038610853565b90508481813d8311610c68575b610c598183610e43565b8101031261036a575138610c3b565b503d610c4f565b84513d89823e3d90fd5b90508681813d8311610c9f575b610c908183610e43565b81010312610b3157513861084b565b503d610c86565b505061082886610290565b50610cbf6108289142611285565b610290565b8551636c09fbc960e11b81528890fd5b50610cdf8284610f7f565b42106107f8565b610cfd9150873d8911610435576104268183610e43565b386107f0565b90508581813d8311610d2d575b610d1a8183610e43565b81010312610d295751386107ce565b8780fd5b503d610d10565b90508481813d8311610d5a575b610d4b8183610e43565b8101031261036a5751386107ac565b503d610d41565b825163a1bfc65b60e01b81528590fd5b610d889150843d8611610ad957610aca8183610e43565b38610779565b83513d88823e3d90fd5b5050346101105781600319360112610110576020906009549051908152f35b505034610110578160031936011261011057602090610670610fb5565b50503461011057816003193601126101105760015490516001600160a01b039091168152602090f35b50503461011057816003193601126101105760025490516001600160a01b039091168152602090f35b505034610110578160031936011261011057602090610670610e9b565b90601f8019910116810190811067ffffffffffffffff821117610e6557604052565b634e487b7160e01b600052604160045260246000fd5b8115610e85570490565b634e487b7160e01b600052601260045260246000fd5b60405163d321fe2960e01b815260208082600481305afa918215610f2c57600092610f38575b5060405163fab2c46960e01b8152918183600481305afa918215610f2c57600092610ef5575b50610ef29250610e7b565b90565b90915082813d8311610f25575b610f0c8183610e43565b81010312610f2057610ef291519038610ee7565b600080fd5b503d610f02565b6040513d6000823e3d90fd5b9080925081813d8311610f60575b610f508183610e43565b81010312610f2057519038610ec1565b503d610f46565b90816020910312610f2057518015158103610f205790565b91908201809211610f8c57565b634e487b7160e01b600052601160045260246000fd5b81810292918115918404141715610f8c57565b604080516364141b8f60e11b81526020919060049083818381305afa90811561125b5760009161122e575b508251633d9205c160e01b81529084828481305afa918215611223576000926111f4575b50835163747ba25160e01b81529185838581305afa9283156111e9576000936111ca575b508451633638de1360e21b808252939087818781305afa9081156111bf57600091611192575b50865163fab2c46960e01b81529088828881305afa91821561118757600092611158575b50101561114c57808061113a575b61112a57156111235761109291610f7f565b935b835191825280828481305afa93841561111957506000936110e9575b5050600182018092116110d45750906110ce610ef2926102d7611292565b90610f7f565b601190634e487b7160e01b6000525260246000fd5b9080929350813d8311611112575b6111018183610e43565b81010312610f2057519038806110b0565b503d6110f7565b513d6000823e3d90fd5b5093611094565b509350915050610ef29250610f7f565b506111458284610f7f565b4210611080565b50505050505050600090565b9091508881813d8311611180575b6111708183610e43565b81010312610f2057519038611072565b503d611166565b88513d6000823e3d90fd5b90508781813d83116111b8575b6111a98183610e43565b81010312610f2057513861104e565b503d61119f565b87513d6000823e3d90fd5b6111e2919350863d8811610435576104268183610e43565b9138611028565b85513d6000823e3d90fd5b90918582813d831161121c575b61120b8183610e43565b810103126104b85750519038611004565b503d611201565b84513d6000823e3d90fd5b908482813d8311611254575b6112448183610e43565b810103126104b857505138610fe0565b503d61123a565b83513d6000823e3d90fd5b90816020910312610f2057516001600160a01b0381168103610f205790565b91908203918211610f8c57565b60405163602bc62b60e01b815260208082600481305afa918215610f2c57600092610f38575060405163fab2c46960e01b8152918183600481305afa918215610f2c57600092610ef55750610ef29250610e7b565b604080516364141b8f60e11b815260049160209182818581305afa9081156114f8576000916115b1575b508151633d9205c160e01b815283818681305afa90811561125b57600091611584575b50825163747ba25160e01b815284818781305afa90811561122357600091611567575b508080611555575b61154a571561153c576113728183610f7f565b421115611530576108226102909161138993610f7f565b92815163fab2c46960e01b9081815284818481305afa90811561122357600091611503575b5085116114a5575b508151633638de1360e21b8082526000949182818581305afa90811561149b57869161146e575b5086116113f6575b50505050610ef291506102d7610e9b565b81908495939451948591825281305afa9384156114635750819361142e575b50505061142590610ef292611285565b388080806113e5565b9091809350813d831161145c575b6114468183610e43565b810103126104b857505181611425610ef2611415565b503d61143c565b51913d9150823e3d90fd5b90508281813d8311611494575b6114858183610e43565b810103126105f25751386113dd565b503d61147b565b85513d88823e3d90fd5b909350815190815282818581305afa9081156114f8576000916114cb575b5092386113b6565b90508281813d83116114f1575b6114e28183610e43565b81010312610f205751386114c3565b503d6114d8565b82513d6000823e3d90fd5b90508481813d8311611529575b61151a8183610e43565b81010312610f205751386113ae565b503d611510565b50506113896000610290565b50610cbf6113899142611285565b505050505050600090565b506115608284610f7f565b421061135f565b61157e9150853d8711610435576104268183610e43565b38611357565b908482813d83116115aa575b61159a8183610e43565b810103126104b857505138611334565b503d611590565b908382813d83116115d7575b6115c78183610e43565b810103126104b857505138611311565b503d6115bd565b9192901561164057508151156115f2575090565b3b156115fb5790565b60405162461bcd60e51b815260206004820152601d60248201527f416464726573733a2063616c6c20746f206e6f6e2d636f6e74726163740000006044820152606490fd5b8251909150156116535750805190602001fd5b6040519062461bcd60e51b82528160208060048301528251908160248401526000935b828510611699575050604492506000838284010152601f80199101168101030190fd5b848101820151868601604401529381019385935061167656fea264697066735822122015ec59f09a0a547d00d87b512ed24d0d2d4fc7cb8f1986ec9cde92fa058f705464736f6c63430008180033","opcodes":"PUSH1 0x80 DUP1 PUSH1 0x40 MSTORE CALLVALUE PUSH2 0x16 JUMPI PUSH2 0x16E8 SWAP1 DUP2 PUSH2 0x1C DUP3 CODECOPY RETURN JUMPDEST PUSH1 0x0 DUP1 REVERT INVALID PUSH1 0x40 PUSH1 0x80 DUP2 MSTORE PUSH1 0x4 SWAP1 DUP2 CALLDATASIZE LT ISZERO PUSH2 0x15 JUMPI PUSH1 0x0 DUP1 REVERT JUMPDEST PUSH1 0x0 SWAP2 DUP3 CALLDATALOAD PUSH1 0xE0 SHR SWAP1 DUP2 PUSH3 0x728F76 EQ PUSH2 0xE26 JUMPI DUP2 PUSH4 0x1B88094D EQ PUSH2 0xDFD JUMPI DUP2 PUSH4 0x21DF0DA7 EQ PUSH2 0xDD4 JUMPI DUP2 PUSH4 0x3660218C EQ PUSH2 0xDB7 JUMPI DUP2 PUSH4 0x38ADDE50 EQ PUSH2 0xD98 JUMPI DUP2 PUSH4 0x3CCFD60B EQ PUSH2 0x740 JUMPI DUP2 PUSH4 0x3D9205C1 EQ PUSH2 0x721 JUMPI DUP2 PUSH4 0x602BC62B EQ PUSH2 0x6FF JUMPI DUP2 PUSH4 0x747BA251 EQ PUSH2 0x6DB JUMPI DUP2 PUSH4 0x893D20E8 EQ PUSH2 0x6B3 JUMPI DUP2 PUSH4 0x9A5569A7 EQ PUSH2 0x694 JUMPI DUP2 PUSH4 0xB8E50CAB EQ PUSH2 0x677 JUMPI DUP2 PUSH4 0xC354BD6E EQ PUSH2 0x653 JUMPI DUP2 PUSH4 0xC828371E EQ PUSH2 0x634 JUMPI DUP2 PUSH4 0xD321FE29 EQ PUSH2 0x615 JUMPI DUP2 PUSH4 0xD8E3784C EQ PUSH2 0x5F6 JUMPI DUP2 PUSH4 0xED3410D9 EQ PUSH2 0x4BB JUMPI DUP2 PUSH4 0xEE4A745C EQ PUSH2 0x114 JUMPI POP PUSH4 0xFAB2C469 EQ PUSH2 0xF3 JUMPI PUSH1 0x0 DUP1 REVERT JUMPDEST CALLVALUE PUSH2 0x110 JUMPI DUP2 PUSH1 0x3 NOT CALLDATASIZE ADD SLT PUSH2 0x110 JUMPI PUSH1 0x20 SWAP1 PUSH1 0x6 SLOAD SWAP1 MLOAD SWAP1 DUP2 MSTORE RETURN JUMPDEST POP DUP1 REVERT JUMPDEST DUP3 DUP5 CALLVALUE PUSH2 0x4B8 JUMPI DUP1 PUSH1 0x3 NOT CALLDATASIZE ADD SLT PUSH2 0x4B8 JUMPI DUP2 MLOAD PUSH4 0x64141B8F PUSH1 0xE1 SHL DUP2 MSTORE SWAP2 PUSH1 0x20 SWAP2 DUP3 DUP5 DUP7 DUP2 ADDRESS GAS STATICCALL SWAP4 DUP5 ISZERO PUSH2 0x4AC JUMPI DUP2 SWAP5 PUSH2 0x47D JUMPI JUMPDEST POP DUP2 MLOAD PUSH4 0x3D9205C1 PUSH1 0xE0 SHL DUP2 MSTORE DUP4 DUP2 DUP8 DUP2 ADDRESS GAS STATICCALL SWAP1 DUP2 ISZERO PUSH2 0x473 JUMPI DUP3 SWAP2 PUSH2 0x446 JUMPI JUMPDEST POP DUP3 MLOAD PUSH4 0x747BA251 PUSH1 0xE0 SHL DUP2 MSTORE SWAP3 DUP5 DUP5 DUP9 DUP2 ADDRESS GAS STATICCALL SWAP4 DUP5 ISZERO PUSH2 0x43C JUMPI DUP4 SWAP5 PUSH2 0x40D JUMPI JUMPDEST POP DUP1 MLOAD PUSH4 0xD321FE29 PUSH1 0xE0 SHL DUP2 MSTORE SWAP6 DUP6 DUP8 DUP10 DUP2 ADDRESS GAS STATICCALL SWAP7 DUP8 ISZERO PUSH2 0x403 JUMPI DUP5 SWAP8 PUSH2 0x3D0 JUMPI JUMPDEST POP DUP2 MLOAD PUSH4 0x9A5569A7 PUSH1 0xE0 SHL DUP2 MSTORE SWAP1 DUP7 DUP3 DUP11 DUP2 ADDRESS GAS STATICCALL SWAP2 DUP3 ISZERO PUSH2 0x33A JUMPI DUP6 SWAP3 PUSH2 0x3A1 JUMPI JUMPDEST POP PUSH2 0x1DF PUSH2 0x12E7 JUMP JUMPDEST SWAP4 PUSH2 0x1E8 PUSH2 0xFB5 JUMP JUMPDEST SWAP7 DUP1 DUP1 PUSH2 0x38F JUMPI JUMPDEST ISZERO PUSH2 0x26B JUMPI POP POP POP DUP4 SWAP7 JUMPDEST PUSH2 0x205 DUP9 DUP3 PUSH2 0x1285 JUMP JUMPDEST SWAP5 DUP2 ISZERO PUSH2 0x25F JUMPI PUSH1 0x64 DUP10 MUL SWAP1 DUP10 DUP3 DIV PUSH1 0x64 EQ DUP11 ISZERO OR ISZERO PUSH2 0x24C JUMPI POP PUSH1 0xC0 SWAP10 POP SWAP1 PUSH2 0x22E SWAP2 PUSH2 0xE7B JUMP JUMPDEST SWAP6 JUMPDEST DUP3 MLOAD SWAP8 DUP9 MSTORE DUP8 ADD MSTORE DUP6 ADD MSTORE PUSH1 0x60 DUP5 ADD MSTORE PUSH1 0x80 DUP4 ADD MSTORE PUSH1 0xA0 DUP3 ADD MSTORE RETURN JUMPDEST PUSH4 0x4E487B71 PUSH1 0xE0 SHL DUP2 MSTORE PUSH1 0x11 DUP12 MSTORE PUSH1 0x24 SWAP1 REVERT JUMPDEST SWAP1 POP PUSH1 0xC0 SWAP9 POP SWAP6 PUSH2 0x230 JUMP JUMPDEST ISZERO PUSH2 0x389 JUMPI PUSH2 0x279 SWAP2 PUSH2 0xF7F JUMP JUMPDEST DUP1 TIMESTAMP GT PUSH1 0x0 EQ PUSH2 0x37F JUMPI PUSH2 0x290 PUSH2 0x29E SWAP2 TIMESTAMP PUSH2 0x1285 JUMP JUMPDEST PUSH2 0x298 PUSH2 0x1292 JUMP JUMPDEST SWAP1 PUSH2 0xE7B JUMP JUMPDEST DUP3 MLOAD PUSH4 0xFAB2C469 PUSH1 0xE0 SHL DUP1 DUP3 MSTORE SWAP2 SWAP1 DUP9 DUP2 DUP13 DUP2 ADDRESS GAS STATICCALL SWAP1 DUP2 ISZERO PUSH2 0x375 JUMPI DUP8 SWAP2 PUSH2 0x344 JUMPI JUMPDEST POP DUP2 GT PUSH2 0x2E3 JUMPI JUMPDEST PUSH2 0x2DD SWAP2 POP PUSH2 0x2D7 PUSH2 0xE9B JUMP JUMPDEST SWAP1 PUSH2 0xFA2 JUMP JUMPDEST SWAP7 PUSH2 0x1FB JUMP JUMPDEST POP DUP3 MLOAD SWAP1 DUP2 MSTORE DUP7 DUP2 DUP11 DUP2 ADDRESS GAS STATICCALL DUP1 ISZERO PUSH2 0x33A JUMPI DUP6 SWAP1 PUSH2 0x307 JUMPI JUMPDEST PUSH2 0x2DD SWAP2 POP PUSH2 0x2CA JUMP JUMPDEST POP DUP7 DUP2 DUP2 RETURNDATASIZE DUP4 GT PUSH2 0x333 JUMPI JUMPDEST PUSH2 0x31D DUP2 DUP4 PUSH2 0xE43 JUMP JUMPDEST DUP2 ADD SUB SLT PUSH2 0x32F JUMPI PUSH2 0x2DD SWAP1 MLOAD PUSH2 0x2FD JUMP JUMPDEST DUP5 DUP1 REVERT JUMPDEST POP RETURNDATASIZE PUSH2 0x313 JUMP JUMPDEST DUP4 MLOAD RETURNDATASIZE DUP8 DUP3 RETURNDATACOPY RETURNDATASIZE SWAP1 REVERT JUMPDEST SWAP1 POP DUP9 DUP2 DUP2 RETURNDATASIZE DUP4 GT PUSH2 0x36E JUMPI JUMPDEST PUSH2 0x35B DUP2 DUP4 PUSH2 0xE43 JUMP JUMPDEST DUP2 ADD SUB SLT PUSH2 0x36A JUMPI MLOAD DUP12 PUSH2 0x2C2 JUMP JUMPDEST DUP7 DUP1 REVERT JUMPDEST POP RETURNDATASIZE PUSH2 0x351 JUMP JUMPDEST DUP6 MLOAD RETURNDATASIZE DUP10 DUP3 RETURNDATACOPY RETURNDATASIZE SWAP1 REVERT JUMPDEST POP PUSH2 0x29E DUP5 PUSH2 0x290 JUMP JUMPDEST POP PUSH2 0x279 JUMP JUMPDEST POP PUSH2 0x39A DUP3 DUP5 PUSH2 0xF7F JUMP JUMPDEST TIMESTAMP LT PUSH2 0x1F0 JUMP JUMPDEST SWAP1 SWAP2 POP DUP7 DUP2 DUP2 RETURNDATASIZE DUP4 GT PUSH2 0x3C9 JUMPI JUMPDEST PUSH2 0x3B9 DUP2 DUP4 PUSH2 0xE43 JUMP JUMPDEST DUP2 ADD SUB SLT PUSH2 0x32F JUMPI MLOAD SWAP1 DUP10 PUSH2 0x1D6 JUMP JUMPDEST POP RETURNDATASIZE PUSH2 0x3AF JUMP JUMPDEST SWAP1 SWAP7 POP DUP6 DUP2 DUP2 RETURNDATASIZE DUP4 GT PUSH2 0x3FC JUMPI JUMPDEST PUSH2 0x3E8 DUP2 DUP4 PUSH2 0xE43 JUMP JUMPDEST DUP2 ADD SUB SLT PUSH2 0x3F8 JUMPI MLOAD SWAP6 DUP9 PUSH2 0x1B3 JUMP JUMPDEST DUP4 DUP1 REVERT JUMPDEST POP RETURNDATASIZE PUSH2 0x3DE JUMP JUMPDEST DUP3 MLOAD RETURNDATASIZE DUP7 DUP3 RETURNDATACOPY RETURNDATASIZE SWAP1 REVERT JUMPDEST PUSH2 0x42E SWAP2 SWAP5 POP DUP6 RETURNDATASIZE DUP8 GT PUSH2 0x435 JUMPI JUMPDEST PUSH2 0x426 DUP2 DUP4 PUSH2 0xE43 JUMP JUMPDEST DUP2 ADD SWAP1 PUSH2 0xF67 JUMP JUMPDEST SWAP3 DUP8 PUSH2 0x190 JUMP JUMPDEST POP RETURNDATASIZE PUSH2 0x41C JUMP JUMPDEST DUP2 MLOAD RETURNDATASIZE DUP6 DUP3 RETURNDATACOPY RETURNDATASIZE SWAP1 REVERT JUMPDEST SWAP1 POP DUP4 DUP2 DUP2 RETURNDATASIZE DUP4 GT PUSH2 0x46C JUMPI JUMPDEST PUSH2 0x45D DUP2 DUP4 PUSH2 0xE43 JUMP JUMPDEST DUP2 ADD SUB SLT PUSH2 0x110 JUMPI MLOAD DUP7 PUSH2 0x16D JUMP JUMPDEST POP RETURNDATASIZE PUSH2 0x453 JUMP JUMPDEST DUP4 MLOAD RETURNDATASIZE DUP5 DUP3 RETURNDATACOPY RETURNDATASIZE SWAP1 REVERT JUMPDEST SWAP1 SWAP4 POP DUP3 DUP2 DUP2 RETURNDATASIZE DUP4 GT PUSH2 0x4A5 JUMPI JUMPDEST PUSH2 0x495 DUP2 DUP4 PUSH2 0xE43 JUMP JUMPDEST DUP2 ADD SUB SLT PUSH2 0x3F8 JUMPI MLOAD SWAP3 DUP6 PUSH2 0x14B JUMP JUMPDEST POP RETURNDATASIZE PUSH2 0x48B JUMP JUMPDEST POP SWAP1 MLOAD SWAP1 RETURNDATASIZE SWAP1 DUP3 RETURNDATACOPY RETURNDATASIZE SWAP1 REVERT JUMPDEST DUP1 REVERT JUMPDEST DUP4 DUP4 CALLVALUE PUSH2 0x110 JUMPI PUSH2 0x160 CALLDATASIZE PUSH1 0x3 NOT ADD SLT PUSH2 0x110 JUMPI DUP3 CALLDATALOAD PUSH1 0x1 PUSH1 0x1 PUSH1 0xA0 SHL SUB DUP2 DUP2 AND SWAP2 DUP3 SWAP1 SUB PUSH2 0x3F8 JUMPI PUSH1 0x24 CALLDATALOAD SWAP2 DUP2 DUP4 AND DUP1 SWAP4 SUB PUSH2 0x32F JUMPI PUSH1 0xA4 CALLDATALOAD SWAP2 DUP3 AND DUP1 SWAP3 SUB PUSH2 0x32F JUMPI PUSH2 0x144 CALLDATALOAD SWAP3 DUP4 ISZERO ISZERO DUP1 SWAP5 SUB PUSH2 0x5F2 JUMPI PUSH1 0xB SLOAD SWAP5 PUSH1 0xFF DUP7 PUSH1 0x8 SHR AND PUSH2 0x5BA JUMPI DUP2 ISZERO PUSH2 0x5AB JUMPI DUP3 ISZERO PUSH2 0x59C JUMPI POP SWAP1 PUSH2 0x100 SWAP6 SWAP7 PUSH1 0xFF SWAP5 SWAP4 SWAP3 PUSH12 0xFFFFFFFFFFFFFFFFFFFFFFFF PUSH1 0xA0 SHL SWAP3 DUP4 DUP11 SLOAD AND OR DUP10 SSTORE DUP3 PUSH1 0x1 SLOAD AND OR PUSH1 0x1 SSTORE PUSH1 0x44 CALLDATALOAD PUSH1 0x3 SSTORE PUSH1 0x64 CALLDATALOAD SWAP1 SSTORE PUSH1 0x84 CALLDATALOAD PUSH1 0x5 SSTORE PUSH1 0x2 SLOAD AND OR PUSH1 0x2 SSTORE PUSH1 0xC4 CALLDATALOAD PUSH1 0x6 SSTORE PUSH1 0xE4 CALLDATALOAD PUSH1 0x7 SSTORE PUSH2 0x104 CALLDATALOAD PUSH1 0x8 SSTORE PUSH2 0x124 CALLDATALOAD PUSH1 0x9 SSTORE TIMESTAMP PUSH1 0xA SSTORE AND SWAP1 PUSH2 0xFFFF NOT AND OR OR PUSH1 0xB SSTORE DUP1 RETURN JUMPDEST MLOAD PUSH4 0x49E27CFF PUSH1 0xE0 SHL DUP2 MSTORE DUP8 SWAP1 REVERT JUMPDEST MLOAD PUSH4 0xC1AB6DC1 PUSH1 0xE0 SHL DUP2 MSTORE DUP8 SWAP1 REVERT JUMPDEST MLOAD PUSH3 0x461BCD PUSH1 0xE5 SHL DUP2 MSTORE PUSH1 0x20 DUP2 DUP10 ADD MSTORE PUSH1 0x13 PUSH1 0x24 DUP3 ADD MSTORE PUSH19 0x105B1C9958591E481A5B9A5D1A585B1A5E9959 PUSH1 0x6A SHL PUSH1 0x44 DUP3 ADD MSTORE PUSH1 0x64 SWAP1 REVERT JUMPDEST DUP6 DUP1 REVERT JUMPDEST POP POP CALLVALUE PUSH2 0x110 JUMPI DUP2 PUSH1 0x3 NOT CALLDATASIZE ADD SLT PUSH2 0x110 JUMPI PUSH1 0x20 SWAP1 PUSH1 0x7 SLOAD SWAP1 MLOAD SWAP1 DUP2 MSTORE RETURN JUMPDEST POP POP CALLVALUE PUSH2 0x110 JUMPI DUP2 PUSH1 0x3 NOT CALLDATASIZE ADD SLT PUSH2 0x110 JUMPI PUSH1 0x20 SWAP1 PUSH1 0x3 SLOAD SWAP1 MLOAD SWAP1 DUP2 MSTORE RETURN JUMPDEST POP POP CALLVALUE PUSH2 0x110 JUMPI DUP2 PUSH1 0x3 NOT CALLDATASIZE ADD SLT PUSH2 0x110 JUMPI PUSH1 0x20 SWAP1 PUSH1 0xA SLOAD SWAP1 MLOAD SWAP1 DUP2 MSTORE RETURN JUMPDEST POP POP CALLVALUE PUSH2 0x110 JUMPI DUP2 PUSH1 0x3 NOT CALLDATASIZE ADD SLT PUSH2 0x110 JUMPI PUSH1 0x20 SWAP1 PUSH2 0x670 PUSH2 0x12E7 JUMP JUMPDEST SWAP1 MLOAD SWAP1 DUP2 MSTORE RETURN JUMPDEST POP POP CALLVALUE PUSH2 0x110 JUMPI DUP2 PUSH1 0x3 NOT CALLDATASIZE ADD SLT PUSH2 0x110 JUMPI PUSH1 0x20 SWAP1 PUSH2 0x670 PUSH2 0x1292 JUMP JUMPDEST POP POP CALLVALUE PUSH2 0x110 JUMPI DUP2 PUSH1 0x3 NOT CALLDATASIZE ADD SLT PUSH2 0x110 JUMPI PUSH1 0x20 SWAP1 PUSH1 0x8 SLOAD SWAP1 MLOAD SWAP1 DUP2 MSTORE RETURN JUMPDEST POP POP CALLVALUE PUSH2 0x110 JUMPI DUP2 PUSH1 0x3 NOT CALLDATASIZE ADD SLT PUSH2 0x110 JUMPI SWAP1 SLOAD SWAP1 MLOAD PUSH1 0x1 PUSH1 0x1 PUSH1 0xA0 SHL SUB SWAP1 SWAP2 AND DUP2 MSTORE PUSH1 0x20 SWAP1 RETURN JUMPDEST POP POP CALLVALUE PUSH2 0x110 JUMPI DUP2 PUSH1 0x3 NOT CALLDATASIZE ADD SLT PUSH2 0x110 JUMPI PUSH1 0x20 SWAP1 PUSH1 0xFF PUSH1 0xB SLOAD AND SWAP1 MLOAD SWAP1 ISZERO ISZERO DUP2 MSTORE RETURN JUMPDEST SWAP1 POP CALLVALUE PUSH2 0x71D JUMPI DUP3 PUSH1 0x3 NOT CALLDATASIZE ADD SLT PUSH2 0x71D JUMPI PUSH1 0x20 SWAP3 POP SLOAD SWAP1 MLOAD SWAP1 DUP2 MSTORE RETURN JUMPDEST DUP3 DUP1 REVERT JUMPDEST POP POP CALLVALUE PUSH2 0x110 JUMPI DUP2 PUSH1 0x3 NOT CALLDATASIZE ADD SLT PUSH2 0x110 JUMPI PUSH1 0x20 SWAP1 PUSH1 0x5 SLOAD SWAP1 MLOAD SWAP1 DUP2 MSTORE RETURN JUMPDEST SWAP2 SWAP1 POP CALLVALUE PUSH2 0x71D JUMPI DUP3 PUSH1 0x3 NOT CALLDATASIZE ADD SLT PUSH2 0x71D JUMPI DUP1 MLOAD PUSH4 0x1B88094D PUSH1 0xE0 SHL DUP1 DUP3 MSTORE PUSH1 0x20 SWAP3 SWAP2 DUP4 DUP2 DUP7 DUP2 ADDRESS GAS STATICCALL SWAP1 DUP2 ISZERO PUSH2 0xD8E JUMPI DUP7 SWAP2 PUSH2 0xD71 JUMPI JUMPDEST POP PUSH1 0x1 PUSH1 0x1 PUSH1 0xA0 SHL SUB SWAP1 DUP2 AND CALLER SUB PUSH2 0xD61 JUMPI DUP3 MLOAD PUSH4 0x64141B8F PUSH1 0xE1 SHL DUP2 MSTORE DUP5 DUP2 DUP8 DUP2 ADDRESS GAS STATICCALL SWAP1 DUP2 ISZERO PUSH2 0xC6F JUMPI DUP8 SWAP2 PUSH2 0xD34 JUMPI JUMPDEST POP DUP4 MLOAD PUSH4 0x3D9205C1 PUSH1 0xE0 SHL DUP2 MSTORE DUP6 DUP2 DUP9 DUP2 ADDRESS GAS STATICCALL SWAP1 DUP2 ISZERO PUSH2 0xAE0 JUMPI DUP9 SWAP2 PUSH2 0xD03 JUMPI JUMPDEST POP DUP5 MLOAD PUSH4 0x747BA251 PUSH1 0xE0 SHL DUP2 MSTORE DUP7 DUP2 DUP10 DUP2 ADDRESS GAS STATICCALL SWAP1 DUP2 ISZERO PUSH2 0xB3C JUMPI DUP10 SWAP2 PUSH2 0xCE6 JUMPI JUMPDEST POP DUP1 DUP1 PUSH2 0xCD4 JUMPI JUMPDEST PUSH2 0xCC4 JUMPI ISZERO PUSH2 0xCB1 JUMPI PUSH2 0x80B DUP2 DUP4 PUSH2 0xF7F JUMP JUMPDEST TIMESTAMP GT ISZERO PUSH2 0xCA6 JUMPI PUSH2 0x822 PUSH2 0x290 SWAP2 PUSH2 0x828 SWAP4 PUSH2 0xF7F JUMP JUMPDEST TIMESTAMP PUSH2 0x1285 JUMP JUMPDEST DUP4 MLOAD PUSH4 0xFAB2C469 PUSH1 0xE0 SHL DUP1 DUP3 MSTORE SWAP1 DUP7 DUP2 DUP10 DUP2 ADDRESS GAS STATICCALL SWAP1 DUP2 ISZERO PUSH2 0xB3C JUMPI DUP10 SWAP2 PUSH2 0xC79 JUMPI JUMPDEST POP DUP3 GT PUSH2 0xC1F JUMPI JUMPDEST POP DUP4 MLOAD PUSH4 0x3638DE13 PUSH1 0xE2 SHL DUP1 DUP3 MSTORE DUP9 SWAP3 SWAP1 SWAP2 DUP8 DUP2 DUP11 DUP2 ADDRESS GAS STATICCALL SWAP1 DUP2 ISZERO PUSH2 0xC15 JUMPI DUP11 SWAP2 PUSH2 0xBE4 JUMPI JUMPDEST POP DUP2 GT PUSH2 0xB85 JUMPI JUMPDEST POP DUP2 ISZERO PUSH2 0xB75 JUMPI PUSH2 0x89A PUSH2 0x894 PUSH2 0xE9B JUMP JUMPDEST DUP4 PUSH2 0xFA2 JUMP JUMPDEST SWAP2 DUP6 MLOAD SWAP2 DUP3 MSTORE DUP7 DUP3 DUP10 DUP2 ADDRESS GAS STATICCALL DUP1 ISZERO PUSH2 0xB3C JUMPI DUP10 SWAP1 PUSH2 0xB46 JUMPI JUMPDEST PUSH2 0x8BE SWAP3 POP PUSH2 0xF7F JUMP JUMPDEST DUP5 MLOAD PUSH4 0x9A5569A7 PUSH1 0xE0 SHL DUP2 MSTORE DUP7 DUP2 DUP10 DUP2 ADDRESS GAS STATICCALL DUP1 ISZERO PUSH2 0xB3C JUMPI DUP4 SWAP1 DUP11 SWAP1 PUSH2 0xB07 JUMPI JUMPDEST PUSH2 0x8EA SWAP3 POP PUSH2 0xF7F JUMP JUMPDEST SWAP1 PUSH1 0x7 SSTORE PUSH1 0x8 SSTORE TIMESTAMP PUSH1 0x9 SSTORE DUP4 MLOAD PUSH4 0x21DF0DA7 PUSH1 0xE0 SHL DUP2 MSTORE DUP6 DUP2 DUP9 DUP2 ADDRESS GAS STATICCALL SWAP1 DUP2 ISZERO PUSH2 0xAE0 JUMPI SWAP1 DUP4 SWAP2 DUP10 SWAP2 PUSH2 0xAEA JUMPI JUMPDEST POP AND SWAP1 DUP5 MLOAD SWAP4 DUP5 MSTORE DUP6 DUP5 DUP9 DUP2 ADDRESS GAS STATICCALL SWAP4 DUP5 ISZERO PUSH2 0xAE0 JUMPI DUP9 SWAP5 PUSH2 0xAB1 JUMPI JUMPDEST POP DUP5 MLOAD SWAP3 DUP7 DUP5 ADD SWAP5 PUSH4 0xA9059CBB PUSH1 0xE0 SHL DUP7 MSTORE AND PUSH1 0x24 DUP5 ADD MSTORE PUSH1 0x44 DUP4 ADD MSTORE PUSH1 0x44 DUP3 MSTORE PUSH1 0x80 DUP3 ADD SWAP3 PUSH8 0xFFFFFFFFFFFFFFFF SWAP3 DUP1 DUP6 LT DUP5 DUP7 GT OR PUSH2 0xA9E JUMPI PUSH1 0xC0 DUP2 ADD DUP6 DUP2 LT DUP6 DUP3 GT OR PUSH2 0xA8B JUMPI DUP7 MSTORE DUP7 DUP6 MSTORE PUSH32 0x5361666545524332303A206C6F772D6C6576656C2063616C6C206661696C6564 PUSH1 0xA0 DUP3 ADD MSTORE MLOAD DUP9 SWAP2 DUP3 SWAP2 SWAP1 DUP3 DUP6 GAS CALL SWAP1 RETURNDATASIZE ISZERO PUSH2 0xA7C JUMPI RETURNDATASIZE SWAP3 DUP4 GT PUSH2 0xA69 JUMPI SWAP1 PUSH2 0x9EE SWAP4 SWAP3 SWAP2 DUP6 MLOAD SWAP3 PUSH2 0x9E1 DUP9 PUSH1 0x1F NOT PUSH1 0x1F DUP5 ADD AND ADD DUP6 PUSH2 0xE43 JUMP JUMPDEST DUP4 MSTORE RETURNDATASIZE DUP10 DUP9 DUP6 ADD RETURNDATACOPY PUSH2 0x15DE JUMP JUMPDEST DUP1 MLOAD SWAP1 DUP2 PUSH2 0x9FA JUMPI DUP6 DUP1 RETURN JUMPDEST DUP4 DUP1 PUSH2 0xA0A SWAP4 DUP4 ADD ADD SWAP2 ADD PUSH2 0xF67 JUMP JUMPDEST ISZERO PUSH2 0xA15 JUMPI DUP1 DUP1 DUP6 DUP1 RETURN JUMPDEST MLOAD PUSH3 0x461BCD PUSH1 0xE5 SHL DUP2 MSTORE SWAP2 DUP3 ADD MSTORE PUSH1 0x2A PUSH1 0x24 DUP3 ADD MSTORE PUSH32 0x5361666545524332303A204552433230206F7065726174696F6E20646964206E PUSH1 0x44 DUP3 ADD MSTORE PUSH10 0x1BDD081CDD58D8D95959 PUSH1 0xB2 SHL PUSH1 0x64 DUP3 ADD MSTORE PUSH1 0x84 SWAP2 POP REVERT JUMPDEST PUSH4 0x4E487B71 PUSH1 0xE0 SHL DUP9 MSTORE PUSH1 0x41 DUP8 MSTORE PUSH1 0x24 DUP9 REVERT JUMPDEST SWAP1 PUSH2 0x9EE SWAP4 SWAP3 POP PUSH1 0x60 SWAP2 PUSH2 0x15DE JUMP JUMPDEST PUSH4 0x4E487B71 PUSH1 0xE0 SHL DUP11 MSTORE PUSH1 0x41 DUP10 MSTORE PUSH1 0x24 DUP11 REVERT JUMPDEST PUSH4 0x4E487B71 PUSH1 0xE0 SHL DUP10 MSTORE PUSH1 0x41 DUP9 MSTORE PUSH1 0x24 DUP10 REVERT JUMPDEST PUSH2 0xAD2 SWAP2 SWAP5 POP DUP7 RETURNDATASIZE DUP9 GT PUSH2 0xAD9 JUMPI JUMPDEST PUSH2 0xACA DUP2 DUP4 PUSH2 0xE43 JUMP JUMPDEST DUP2 ADD SWAP1 PUSH2 0x1266 JUMP JUMPDEST SWAP3 CODESIZE PUSH2 0x936 JUMP JUMPDEST POP RETURNDATASIZE PUSH2 0xAC0 JUMP JUMPDEST DUP6 MLOAD RETURNDATASIZE DUP11 DUP3 RETURNDATACOPY RETURNDATASIZE SWAP1 REVERT JUMPDEST PUSH2 0xB01 SWAP2 POP DUP8 RETURNDATASIZE DUP10 GT PUSH2 0xAD9 JUMPI PUSH2 0xACA DUP2 DUP4 PUSH2 0xE43 JUMP JUMPDEST CODESIZE PUSH2 0x919 JUMP JUMPDEST POP POP DUP7 DUP2 DUP2 RETURNDATASIZE DUP4 GT PUSH2 0xB35 JUMPI JUMPDEST PUSH2 0xB1E DUP2 DUP4 PUSH2 0xE43 JUMP JUMPDEST DUP2 ADD SUB SLT PUSH2 0xB31 JUMPI DUP3 PUSH2 0x8EA SWAP2 MLOAD PUSH2 0x8E0 JUMP JUMPDEST DUP9 DUP1 REVERT JUMPDEST POP RETURNDATASIZE PUSH2 0xB14 JUMP JUMPDEST DUP7 MLOAD RETURNDATASIZE DUP12 DUP3 RETURNDATACOPY RETURNDATASIZE SWAP1 REVERT JUMPDEST POP DUP7 DUP3 DUP2 RETURNDATASIZE DUP4 GT PUSH2 0xB6E JUMPI JUMPDEST PUSH2 0xB5C DUP2 DUP4 PUSH2 0xE43 JUMP JUMPDEST DUP2 ADD SUB SLT PUSH2 0xB31 JUMPI PUSH2 0x8BE SWAP2 MLOAD PUSH2 0x8B4 JUMP JUMPDEST POP RETURNDATASIZE PUSH2 0xB52 JUMP JUMPDEST DUP5 MLOAD PUSH4 0x4E4F9D1D PUSH1 0xE1 SHL DUP2 MSTORE DUP8 SWAP1 REVERT JUMPDEST DUP6 MLOAD DUP3 DUP2 MSTORE SWAP2 SWAP3 POP DUP7 DUP3 DUP10 DUP2 ADDRESS GAS STATICCALL SWAP1 DUP2 ISZERO PUSH2 0xB3C JUMPI DUP10 SWAP2 PUSH2 0xBB3 JUMPI JUMPDEST PUSH2 0xBAC SWAP3 POP PUSH2 0x1285 JUMP JUMPDEST SWAP1 CODESIZE PUSH2 0x882 JUMP JUMPDEST SWAP1 POP DUP7 DUP3 DUP2 RETURNDATASIZE DUP4 GT PUSH2 0xBDD JUMPI JUMPDEST PUSH2 0xBCA DUP2 DUP4 PUSH2 0xE43 JUMP JUMPDEST DUP2 ADD SUB SLT PUSH2 0xB31 JUMPI PUSH2 0xBAC SWAP2 MLOAD SWAP1 PUSH2 0xBA2 JUMP JUMPDEST POP RETURNDATASIZE PUSH2 0xBC0 JUMP JUMPDEST SWAP1 POP DUP8 DUP2 DUP2 RETURNDATASIZE DUP4 GT PUSH2 0xC0E JUMPI JUMPDEST PUSH2 0xBFB DUP2 DUP4 PUSH2 0xE43 JUMP JUMPDEST DUP2 ADD SUB SLT PUSH2 0xC0A JUMPI MLOAD CODESIZE PUSH2 0x87A JUMP JUMPDEST DUP10 DUP1 REVERT JUMPDEST POP RETURNDATASIZE PUSH2 0xBF1 JUMP JUMPDEST DUP8 MLOAD RETURNDATASIZE DUP13 DUP3 RETURNDATACOPY RETURNDATASIZE SWAP1 REVERT JUMPDEST SWAP1 POP DUP4 MLOAD SWAP1 DUP2 MSTORE DUP5 DUP2 DUP8 DUP2 ADDRESS GAS STATICCALL SWAP1 DUP2 ISZERO PUSH2 0xC6F JUMPI DUP8 SWAP2 PUSH2 0xC42 JUMPI JUMPDEST POP CODESIZE PUSH2 0x853 JUMP JUMPDEST SWAP1 POP DUP5 DUP2 DUP2 RETURNDATASIZE DUP4 GT PUSH2 0xC68 JUMPI JUMPDEST PUSH2 0xC59 DUP2 DUP4 PUSH2 0xE43 JUMP JUMPDEST DUP2 ADD SUB SLT PUSH2 0x36A JUMPI MLOAD CODESIZE PUSH2 0xC3B JUMP JUMPDEST POP RETURNDATASIZE PUSH2 0xC4F JUMP JUMPDEST DUP5 MLOAD RETURNDATASIZE DUP10 DUP3 RETURNDATACOPY RETURNDATASIZE SWAP1 REVERT JUMPDEST SWAP1 POP DUP7 DUP2 DUP2 RETURNDATASIZE DUP4 GT PUSH2 0xC9F JUMPI JUMPDEST PUSH2 0xC90 DUP2 DUP4 PUSH2 0xE43 JUMP JUMPDEST DUP2 ADD SUB SLT PUSH2 0xB31 JUMPI MLOAD CODESIZE PUSH2 0x84B JUMP JUMPDEST POP RETURNDATASIZE PUSH2 0xC86 JUMP JUMPDEST POP POP PUSH2 0x828 DUP7 PUSH2 0x290 JUMP JUMPDEST POP PUSH2 0xCBF PUSH2 0x828 SWAP2 TIMESTAMP PUSH2 0x1285 JUMP JUMPDEST PUSH2 0x290 JUMP JUMPDEST DUP6 MLOAD PUSH4 0x6C09FBC9 PUSH1 0xE1 SHL DUP2 MSTORE DUP9 SWAP1 REVERT JUMPDEST POP PUSH2 0xCDF DUP3 DUP5 PUSH2 0xF7F JUMP JUMPDEST TIMESTAMP LT PUSH2 0x7F8 JUMP JUMPDEST PUSH2 0xCFD SWAP2 POP DUP8 RETURNDATASIZE DUP10 GT PUSH2 0x435 JUMPI PUSH2 0x426 DUP2 DUP4 PUSH2 0xE43 JUMP JUMPDEST CODESIZE PUSH2 0x7F0 JUMP JUMPDEST SWAP1 POP DUP6 DUP2 DUP2 RETURNDATASIZE DUP4 GT PUSH2 0xD2D JUMPI JUMPDEST PUSH2 0xD1A DUP2 DUP4 PUSH2 0xE43 JUMP JUMPDEST DUP2 ADD SUB SLT PUSH2 0xD29 JUMPI MLOAD CODESIZE PUSH2 0x7CE JUMP JUMPDEST DUP8 DUP1 REVERT JUMPDEST POP RETURNDATASIZE PUSH2 0xD10 JUMP JUMPDEST SWAP1 POP DUP5 DUP2 DUP2 RETURNDATASIZE DUP4 GT PUSH2 0xD5A JUMPI JUMPDEST PUSH2 0xD4B DUP2 DUP4 PUSH2 0xE43 JUMP JUMPDEST DUP2 ADD SUB SLT PUSH2 0x36A JUMPI MLOAD CODESIZE PUSH2 0x7AC JUMP JUMPDEST POP RETURNDATASIZE PUSH2 0xD41 JUMP JUMPDEST DUP3 MLOAD PUSH4 0xA1BFC65B PUSH1 0xE0 SHL DUP2 MSTORE DUP6 SWAP1 REVERT JUMPDEST PUSH2 0xD88 SWAP2 POP DUP5 RETURNDATASIZE DUP7 GT PUSH2 0xAD9 JUMPI PUSH2 0xACA DUP2 DUP4 PUSH2 0xE43 JUMP JUMPDEST CODESIZE PUSH2 0x779 JUMP JUMPDEST DUP4 MLOAD RETURNDATASIZE DUP9 DUP3 RETURNDATACOPY RETURNDATASIZE SWAP1 REVERT JUMPDEST POP POP CALLVALUE PUSH2 0x110 JUMPI DUP2 PUSH1 0x3 NOT CALLDATASIZE ADD SLT PUSH2 0x110 JUMPI PUSH1 0x20 SWAP1 PUSH1 0x9 SLOAD SWAP1 MLOAD SWAP1 DUP2 MSTORE RETURN JUMPDEST POP POP CALLVALUE PUSH2 0x110 JUMPI DUP2 PUSH1 0x3 NOT CALLDATASIZE ADD SLT PUSH2 0x110 JUMPI PUSH1 0x20 SWAP1 PUSH2 0x670 PUSH2 0xFB5 JUMP JUMPDEST POP POP CALLVALUE PUSH2 0x110 JUMPI DUP2 PUSH1 0x3 NOT CALLDATASIZE ADD SLT PUSH2 0x110 JUMPI PUSH1 0x1 SLOAD SWAP1 MLOAD PUSH1 0x1 PUSH1 0x1 PUSH1 0xA0 SHL SUB SWAP1 SWAP2 AND DUP2 MSTORE PUSH1 0x20 SWAP1 RETURN JUMPDEST POP POP CALLVALUE PUSH2 0x110 JUMPI DUP2 PUSH1 0x3 NOT CALLDATASIZE ADD SLT PUSH2 0x110 JUMPI PUSH1 0x2 SLOAD SWAP1 MLOAD PUSH1 0x1 PUSH1 0x1 PUSH1 0xA0 SHL SUB SWAP1 SWAP2 AND DUP2 MSTORE PUSH1 0x20 SWAP1 RETURN JUMPDEST POP POP CALLVALUE PUSH2 0x110 JUMPI DUP2 PUSH1 0x3 NOT CALLDATASIZE ADD SLT PUSH2 0x110 JUMPI PUSH1 0x20 SWAP1 PUSH2 0x670 PUSH2 0xE9B JUMP JUMPDEST SWAP1 PUSH1 0x1F DUP1 NOT SWAP2 ADD AND DUP2 ADD SWAP1 DUP2 LT PUSH8 0xFFFFFFFFFFFFFFFF DUP3 GT OR PUSH2 0xE65 JUMPI PUSH1 0x40 MSTORE JUMP JUMPDEST PUSH4 0x4E487B71 PUSH1 0xE0 SHL PUSH1 0x0 MSTORE PUSH1 0x41 PUSH1 0x4 MSTORE PUSH1 0x24 PUSH1 0x0 REVERT JUMPDEST DUP2 ISZERO PUSH2 0xE85 JUMPI DIV SWAP1 JUMP JUMPDEST PUSH4 0x4E487B71 PUSH1 0xE0 SHL PUSH1 0x0 MSTORE PUSH1 0x12 PUSH1 0x4 MSTORE PUSH1 0x24 PUSH1 0x0 REVERT JUMPDEST PUSH1 0x40 MLOAD PUSH4 0xD321FE29 PUSH1 0xE0 SHL DUP2 MSTORE PUSH1 0x20 DUP1 DUP3 PUSH1 0x4 DUP2 ADDRESS GAS STATICCALL SWAP2 DUP3 ISZERO PUSH2 0xF2C JUMPI PUSH1 0x0 SWAP3 PUSH2 0xF38 JUMPI JUMPDEST POP PUSH1 0x40 MLOAD PUSH4 0xFAB2C469 PUSH1 0xE0 SHL DUP2 MSTORE SWAP2 DUP2 DUP4 PUSH1 0x4 DUP2 ADDRESS GAS STATICCALL SWAP2 DUP3 ISZERO PUSH2 0xF2C JUMPI PUSH1 0x0 SWAP3 PUSH2 0xEF5 JUMPI JUMPDEST POP PUSH2 0xEF2 SWAP3 POP PUSH2 0xE7B JUMP JUMPDEST SWAP1 JUMP JUMPDEST SWAP1 SWAP2 POP DUP3 DUP2 RETURNDATASIZE DUP4 GT PUSH2 0xF25 JUMPI JUMPDEST PUSH2 0xF0C DUP2 DUP4 PUSH2 0xE43 JUMP JUMPDEST DUP2 ADD SUB SLT PUSH2 0xF20 JUMPI PUSH2 0xEF2 SWAP2 MLOAD SWAP1 CODESIZE PUSH2 0xEE7 JUMP JUMPDEST PUSH1 0x0 DUP1 REVERT JUMPDEST POP RETURNDATASIZE PUSH2 0xF02 JUMP JUMPDEST PUSH1 0x40 MLOAD RETURNDATASIZE PUSH1 0x0 DUP3 RETURNDATACOPY RETURNDATASIZE SWAP1 REVERT JUMPDEST SWAP1 DUP1 SWAP3 POP DUP2 DUP2 RETURNDATASIZE DUP4 GT PUSH2 0xF60 JUMPI JUMPDEST PUSH2 0xF50 DUP2 DUP4 PUSH2 0xE43 JUMP JUMPDEST DUP2 ADD SUB SLT PUSH2 0xF20 JUMPI MLOAD SWAP1 CODESIZE PUSH2 0xEC1 JUMP JUMPDEST POP RETURNDATASIZE PUSH2 0xF46 JUMP JUMPDEST SWAP1 DUP2 PUSH1 0x20 SWAP2 SUB SLT PUSH2 0xF20 JUMPI MLOAD DUP1 ISZERO ISZERO DUP2 SUB PUSH2 0xF20 JUMPI SWAP1 JUMP JUMPDEST SWAP2 SWAP1 DUP3 ADD DUP1 SWAP3 GT PUSH2 0xF8C JUMPI JUMP JUMPDEST PUSH4 0x4E487B71 PUSH1 0xE0 SHL PUSH1 0x0 MSTORE PUSH1 0x11 PUSH1 0x4 MSTORE PUSH1 0x24 PUSH1 0x0 REVERT JUMPDEST DUP2 DUP2 MUL SWAP3 SWAP2 DUP2 ISZERO SWAP2 DUP5 DIV EQ OR ISZERO PUSH2 0xF8C JUMPI JUMP JUMPDEST PUSH1 0x40 DUP1 MLOAD PUSH4 0x64141B8F PUSH1 0xE1 SHL DUP2 MSTORE PUSH1 0x20 SWAP2 SWAP1 PUSH1 0x4 SWAP1 DUP4 DUP2 DUP4 DUP2 ADDRESS GAS STATICCALL SWAP1 DUP2 ISZERO PUSH2 0x125B JUMPI PUSH1 0x0 SWAP2 PUSH2 0x122E JUMPI JUMPDEST POP DUP3 MLOAD PUSH4 0x3D9205C1 PUSH1 0xE0 SHL DUP2 MSTORE SWAP1 DUP5 DUP3 DUP5 DUP2 ADDRESS GAS STATICCALL SWAP2 DUP3 ISZERO PUSH2 0x1223 JUMPI PUSH1 0x0 SWAP3 PUSH2 0x11F4 JUMPI JUMPDEST POP DUP4 MLOAD PUSH4 0x747BA251 PUSH1 0xE0 SHL DUP2 MSTORE SWAP2 DUP6 DUP4 DUP6 DUP2 ADDRESS GAS STATICCALL SWAP3 DUP4 ISZERO PUSH2 0x11E9 JUMPI PUSH1 0x0 SWAP4 PUSH2 0x11CA JUMPI JUMPDEST POP DUP5 MLOAD PUSH4 0x3638DE13 PUSH1 0xE2 SHL DUP1 DUP3 MSTORE SWAP4 SWAP1 DUP8 DUP2 DUP8 DUP2 ADDRESS GAS STATICCALL SWAP1 DUP2 ISZERO PUSH2 0x11BF JUMPI PUSH1 0x0 SWAP2 PUSH2 0x1192 JUMPI JUMPDEST POP DUP7 MLOAD PUSH4 0xFAB2C469 PUSH1 0xE0 SHL DUP2 MSTORE SWAP1 DUP9 DUP3 DUP9 DUP2 ADDRESS GAS STATICCALL SWAP2 DUP3 ISZERO PUSH2 0x1187 JUMPI PUSH1 0x0 SWAP3 PUSH2 0x1158 JUMPI JUMPDEST POP LT ISZERO PUSH2 0x114C JUMPI DUP1 DUP1 PUSH2 0x113A JUMPI JUMPDEST PUSH2 0x112A JUMPI ISZERO PUSH2 0x1123 JUMPI PUSH2 0x1092 SWAP2 PUSH2 0xF7F JUMP JUMPDEST SWAP4 JUMPDEST DUP4 MLOAD SWAP2 DUP3 MSTORE DUP1 DUP3 DUP5 DUP2 ADDRESS GAS STATICCALL SWAP4 DUP5 ISZERO PUSH2 0x1119 JUMPI POP PUSH1 0x0 SWAP4 PUSH2 0x10E9 JUMPI JUMPDEST POP POP PUSH1 0x1 DUP3 ADD DUP1 SWAP3 GT PUSH2 0x10D4 JUMPI POP SWAP1 PUSH2 0x10CE PUSH2 0xEF2 SWAP3 PUSH2 0x2D7 PUSH2 0x1292 JUMP JUMPDEST SWAP1 PUSH2 0xF7F JUMP JUMPDEST PUSH1 0x11 SWAP1 PUSH4 0x4E487B71 PUSH1 0xE0 SHL PUSH1 0x0 MSTORE MSTORE PUSH1 0x24 PUSH1 0x0 REVERT JUMPDEST SWAP1 DUP1 SWAP3 SWAP4 POP DUP2 RETURNDATASIZE DUP4 GT PUSH2 0x1112 JUMPI JUMPDEST PUSH2 0x1101 DUP2 DUP4 PUSH2 0xE43 JUMP JUMPDEST DUP2 ADD SUB SLT PUSH2 0xF20 JUMPI MLOAD SWAP1 CODESIZE DUP1 PUSH2 0x10B0 JUMP JUMPDEST POP RETURNDATASIZE PUSH2 0x10F7 JUMP JUMPDEST MLOAD RETURNDATASIZE PUSH1 0x0 DUP3 RETURNDATACOPY RETURNDATASIZE SWAP1 REVERT JUMPDEST POP SWAP4 PUSH2 0x1094 JUMP JUMPDEST POP SWAP4 POP SWAP2 POP POP PUSH2 0xEF2 SWAP3 POP PUSH2 0xF7F JUMP JUMPDEST POP PUSH2 0x1145 DUP3 DUP5 PUSH2 0xF7F JUMP JUMPDEST TIMESTAMP LT PUSH2 0x1080 JUMP JUMPDEST POP POP POP POP POP POP POP PUSH1 0x0 SWAP1 JUMP JUMPDEST SWAP1 SWAP2 POP DUP9 DUP2 DUP2 RETURNDATASIZE DUP4 GT PUSH2 0x1180 JUMPI JUMPDEST PUSH2 0x1170 DUP2 DUP4 PUSH2 0xE43 JUMP JUMPDEST DUP2 ADD SUB SLT PUSH2 0xF20 JUMPI MLOAD SWAP1 CODESIZE PUSH2 0x1072 JUMP JUMPDEST POP RETURNDATASIZE PUSH2 0x1166 JUMP JUMPDEST DUP9 MLOAD RETURNDATASIZE PUSH1 0x0 DUP3 RETURNDATACOPY RETURNDATASIZE SWAP1 REVERT JUMPDEST SWAP1 POP DUP8 DUP2 DUP2 RETURNDATASIZE DUP4 GT PUSH2 0x11B8 JUMPI JUMPDEST PUSH2 0x11A9 DUP2 DUP4 PUSH2 0xE43 JUMP JUMPDEST DUP2 ADD SUB SLT PUSH2 0xF20 JUMPI MLOAD CODESIZE PUSH2 0x104E JUMP JUMPDEST POP RETURNDATASIZE PUSH2 0x119F JUMP JUMPDEST DUP8 MLOAD RETURNDATASIZE PUSH1 0x0 DUP3 RETURNDATACOPY RETURNDATASIZE SWAP1 REVERT JUMPDEST PUSH2 0x11E2 SWAP2 SWAP4 POP DUP7 RETURNDATASIZE DUP9 GT PUSH2 0x435 JUMPI PUSH2 0x426 DUP2 DUP4 PUSH2 0xE43 JUMP JUMPDEST SWAP2 CODESIZE PUSH2 0x1028 JUMP JUMPDEST DUP6 MLOAD RETURNDATASIZE PUSH1 0x0 DUP3 RETURNDATACOPY RETURNDATASIZE SWAP1 REVERT JUMPDEST SWAP1 SWAP2 DUP6 DUP3 DUP2 RETURNDATASIZE DUP4 GT PUSH2 0x121C JUMPI JUMPDEST PUSH2 0x120B DUP2 DUP4 PUSH2 0xE43 JUMP JUMPDEST DUP2 ADD SUB SLT PUSH2 0x4B8 JUMPI POP MLOAD SWAP1 CODESIZE PUSH2 0x1004 JUMP JUMPDEST POP RETURNDATASIZE PUSH2 0x1201 JUMP JUMPDEST DUP5 MLOAD RETURNDATASIZE PUSH1 0x0 DUP3 RETURNDATACOPY RETURNDATASIZE SWAP1 REVERT JUMPDEST SWAP1 DUP5 DUP3 DUP2 RETURNDATASIZE DUP4 GT PUSH2 0x1254 JUMPI JUMPDEST PUSH2 0x1244 DUP2 DUP4 PUSH2 0xE43 JUMP JUMPDEST DUP2 ADD SUB SLT PUSH2 0x4B8 JUMPI POP MLOAD CODESIZE PUSH2 0xFE0 JUMP JUMPDEST POP RETURNDATASIZE PUSH2 0x123A JUMP JUMPDEST DUP4 MLOAD RETURNDATASIZE PUSH1 0x0 DUP3 RETURNDATACOPY RETURNDATASIZE SWAP1 REVERT JUMPDEST SWAP1 DUP2 PUSH1 0x20 SWAP2 SUB SLT PUSH2 0xF20 JUMPI MLOAD PUSH1 0x1 PUSH1 0x1 PUSH1 0xA0 SHL SUB DUP2 AND DUP2 SUB PUSH2 0xF20 JUMPI SWAP1 JUMP JUMPDEST SWAP2 SWAP1 DUP3 SUB SWAP2 DUP3 GT PUSH2 0xF8C JUMPI JUMP JUMPDEST PUSH1 0x40 MLOAD PUSH4 0x602BC62B PUSH1 0xE0 SHL DUP2 MSTORE PUSH1 0x20 DUP1 DUP3 PUSH1 0x4 DUP2 ADDRESS GAS STATICCALL SWAP2 DUP3 ISZERO PUSH2 0xF2C JUMPI PUSH1 0x0 SWAP3 PUSH2 0xF38 JUMPI POP PUSH1 0x40 MLOAD PUSH4 0xFAB2C469 PUSH1 0xE0 SHL DUP2 MSTORE SWAP2 DUP2 DUP4 PUSH1 0x4 DUP2 ADDRESS GAS STATICCALL SWAP2 DUP3 ISZERO PUSH2 0xF2C JUMPI PUSH1 0x0 SWAP3 PUSH2 0xEF5 JUMPI POP PUSH2 0xEF2 SWAP3 POP PUSH2 0xE7B JUMP JUMPDEST PUSH1 0x40 DUP1 MLOAD PUSH4 0x64141B8F PUSH1 0xE1 SHL DUP2 MSTORE PUSH1 0x4 SWAP2 PUSH1 0x20 SWAP2 DUP3 DUP2 DUP6 DUP2 ADDRESS GAS STATICCALL SWAP1 DUP2 ISZERO PUSH2 0x14F8 JUMPI PUSH1 0x0 SWAP2 PUSH2 0x15B1 JUMPI JUMPDEST POP DUP2 MLOAD PUSH4 0x3D9205C1 PUSH1 0xE0 SHL DUP2 MSTORE DUP4 DUP2 DUP7 DUP2 ADDRESS GAS STATICCALL SWAP1 DUP2 ISZERO PUSH2 0x125B JUMPI PUSH1 0x0 SWAP2 PUSH2 0x1584 JUMPI JUMPDEST POP DUP3 MLOAD PUSH4 0x747BA251 PUSH1 0xE0 SHL DUP2 MSTORE DUP5 DUP2 DUP8 DUP2 ADDRESS GAS STATICCALL SWAP1 DUP2 ISZERO PUSH2 0x1223 JUMPI PUSH1 0x0 SWAP2 PUSH2 0x1567 JUMPI JUMPDEST POP DUP1 DUP1 PUSH2 0x1555 JUMPI JUMPDEST PUSH2 0x154A JUMPI ISZERO PUSH2 0x153C JUMPI PUSH2 0x1372 DUP2 DUP4 PUSH2 0xF7F JUMP JUMPDEST TIMESTAMP GT ISZERO PUSH2 0x1530 JUMPI PUSH2 0x822 PUSH2 0x290 SWAP2 PUSH2 0x1389 SWAP4 PUSH2 0xF7F JUMP JUMPDEST SWAP3 DUP2 MLOAD PUSH4 0xFAB2C469 PUSH1 0xE0 SHL SWAP1 DUP2 DUP2 MSTORE DUP5 DUP2 DUP5 DUP2 ADDRESS GAS STATICCALL SWAP1 DUP2 ISZERO PUSH2 0x1223 JUMPI PUSH1 0x0 SWAP2 PUSH2 0x1503 JUMPI JUMPDEST POP DUP6 GT PUSH2 0x14A5 JUMPI JUMPDEST POP DUP2 MLOAD PUSH4 0x3638DE13 PUSH1 0xE2 SHL DUP1 DUP3 MSTORE PUSH1 0x0 SWAP5 SWAP2 DUP3 DUP2 DUP6 DUP2 ADDRESS GAS STATICCALL SWAP1 DUP2 ISZERO PUSH2 0x149B JUMPI DUP7 SWAP2 PUSH2 0x146E JUMPI JUMPDEST POP DUP7 GT PUSH2 0x13F6 JUMPI JUMPDEST POP POP POP POP PUSH2 0xEF2 SWAP2 POP PUSH2 0x2D7 PUSH2 0xE9B JUMP JUMPDEST DUP2 SWAP1 DUP5 SWAP6 SWAP4 SWAP5 MLOAD SWAP5 DUP6 SWAP2 DUP3 MSTORE DUP2 ADDRESS GAS STATICCALL SWAP4 DUP5 ISZERO PUSH2 0x1463 JUMPI POP DUP2 SWAP4 PUSH2 0x142E JUMPI JUMPDEST POP POP POP PUSH2 0x1425 SWAP1 PUSH2 0xEF2 SWAP3 PUSH2 0x1285 JUMP JUMPDEST CODESIZE DUP1 DUP1 DUP1 PUSH2 0x13E5 JUMP JUMPDEST SWAP1 SWAP2 DUP1 SWAP4 POP DUP2 RETURNDATASIZE DUP4 GT PUSH2 0x145C JUMPI JUMPDEST PUSH2 0x1446 DUP2 DUP4 PUSH2 0xE43 JUMP JUMPDEST DUP2 ADD SUB SLT PUSH2 0x4B8 JUMPI POP MLOAD DUP2 PUSH2 0x1425 PUSH2 0xEF2 PUSH2 0x1415 JUMP JUMPDEST POP RETURNDATASIZE PUSH2 0x143C JUMP JUMPDEST MLOAD SWAP2 RETURNDATASIZE SWAP2 POP DUP3 RETURNDATACOPY RETURNDATASIZE SWAP1 REVERT JUMPDEST SWAP1 POP DUP3 DUP2 DUP2 RETURNDATASIZE DUP4 GT PUSH2 0x1494 JUMPI JUMPDEST PUSH2 0x1485 DUP2 DUP4 PUSH2 0xE43 JUMP JUMPDEST DUP2 ADD SUB SLT PUSH2 0x5F2 JUMPI MLOAD CODESIZE PUSH2 0x13DD JUMP JUMPDEST POP RETURNDATASIZE PUSH2 0x147B JUMP JUMPDEST DUP6 MLOAD RETURNDATASIZE DUP9 DUP3 RETURNDATACOPY RETURNDATASIZE SWAP1 REVERT JUMPDEST SWAP1 SWAP4 POP DUP2 MLOAD SWAP1 DUP2 MSTORE DUP3 DUP2 DUP6 DUP2 ADDRESS GAS STATICCALL SWAP1 DUP2 ISZERO PUSH2 0x14F8 JUMPI PUSH1 0x0 SWAP2 PUSH2 0x14CB JUMPI JUMPDEST POP SWAP3 CODESIZE PUSH2 0x13B6 JUMP JUMPDEST SWAP1 POP DUP3 DUP2 DUP2 RETURNDATASIZE DUP4 GT PUSH2 0x14F1 JUMPI JUMPDEST PUSH2 0x14E2 DUP2 DUP4 PUSH2 0xE43 JUMP JUMPDEST DUP2 ADD SUB SLT PUSH2 0xF20 JUMPI MLOAD CODESIZE PUSH2 0x14C3 JUMP JUMPDEST POP RETURNDATASIZE PUSH2 0x14D8 JUMP JUMPDEST DUP3 MLOAD RETURNDATASIZE PUSH1 0x0 DUP3 RETURNDATACOPY RETURNDATASIZE SWAP1 REVERT JUMPDEST SWAP1 POP DUP5 DUP2 DUP2 RETURNDATASIZE DUP4 GT PUSH2 0x1529 JUMPI JUMPDEST PUSH2 0x151A DUP2 DUP4 PUSH2 0xE43 JUMP JUMPDEST DUP2 ADD SUB SLT PUSH2 0xF20 JUMPI MLOAD CODESIZE PUSH2 0x13AE JUMP JUMPDEST POP RETURNDATASIZE PUSH2 0x1510 JUMP JUMPDEST POP POP PUSH2 0x1389 PUSH1 0x0 PUSH2 0x290 JUMP JUMPDEST POP PUSH2 0xCBF PUSH2 0x1389 SWAP2 TIMESTAMP PUSH2 0x1285 JUMP JUMPDEST POP POP POP POP POP POP PUSH1 0x0 SWAP1 JUMP JUMPDEST POP PUSH2 0x1560 DUP3 DUP5 PUSH2 0xF7F JUMP JUMPDEST TIMESTAMP LT PUSH2 0x135F JUMP JUMPDEST PUSH2 0x157E SWAP2 POP DUP6 RETURNDATASIZE DUP8 GT PUSH2 0x435 JUMPI PUSH2 0x426 DUP2 DUP4 PUSH2 0xE43 JUMP JUMPDEST CODESIZE PUSH2 0x1357 JUMP JUMPDEST SWAP1 DUP5 DUP3 DUP2 RETURNDATASIZE DUP4 GT PUSH2 0x15AA JUMPI JUMPDEST PUSH2 0x159A DUP2 DUP4 PUSH2 0xE43 JUMP JUMPDEST DUP2 ADD SUB SLT PUSH2 0x4B8 JUMPI POP MLOAD CODESIZE PUSH2 0x1334 JUMP JUMPDEST POP RETURNDATASIZE PUSH2 0x1590 JUMP JUMPDEST SWAP1 DUP4 DUP3 DUP2 RETURNDATASIZE DUP4 GT PUSH2 0x15D7 JUMPI JUMPDEST PUSH2 0x15C7 DUP2 DUP4 PUSH2 0xE43 JUMP JUMPDEST DUP2 ADD SUB SLT PUSH2 0x4B8 JUMPI POP MLOAD CODESIZE PUSH2 0x1311 JUMP JUMPDEST POP RETURNDATASIZE PUSH2 0x15BD JUMP JUMPDEST SWAP2 SWAP3 SWAP1 ISZERO PUSH2 0x1640 JUMPI POP DUP2 MLOAD ISZERO PUSH2 0x15F2 JUMPI POP SWAP1 JUMP JUMPDEST EXTCODESIZE ISZERO PUSH2 0x15FB JUMPI SWAP1 JUMP JUMPDEST PUSH1 0x40 MLOAD PUSH3 0x461BCD PUSH1 0xE5 SHL DUP2 MSTORE PUSH1 0x20 PUSH1 0x4 DUP3 ADD MSTORE PUSH1 0x1D PUSH1 0x24 DUP3 ADD MSTORE PUSH32 0x416464726573733A2063616C6C20746F206E6F6E2D636F6E7472616374000000 PUSH1 0x44 DUP3 ADD MSTORE PUSH1 0x64 SWAP1 REVERT JUMPDEST DUP3 MLOAD SWAP1 SWAP2 POP ISZERO PUSH2 0x1653 JUMPI POP DUP1 MLOAD SWAP1 PUSH1 0x20 ADD REVERT JUMPDEST PUSH1 0x40 MLOAD SWAP1 PUSH3 0x461BCD PUSH1 0xE5 SHL DUP3 MSTORE DUP2 PUSH1 0x20 DUP1 PUSH1 0x4 DUP4 ADD MSTORE DUP3 MLOAD SWAP1 DUP2 PUSH1 0x24 DUP5 ADD MSTORE PUSH1 0x0 SWAP4 JUMPDEST DUP3 DUP6 LT PUSH2 0x1699 JUMPI POP POP PUSH1 0x44 SWAP3 POP PUSH1 0x0 DUP4 DUP3 DUP5 ADD ADD MSTORE PUSH1 0x1F DUP1 NOT SWAP2 ADD AND DUP2 ADD SUB ADD SWAP1 REVERT JUMPDEST DUP5 DUP2 ADD DUP3 ADD MLOAD DUP7 DUP7 ADD PUSH1 0x44 ADD MSTORE SWAP4 DUP2 ADD SWAP4 DUP6 SWAP4 POP PUSH2 0x1676 JUMP INVALID LOG2 PUSH5 0x6970667358 0x22 SLT KECCAK256 ISZERO 0xEC MSIZE CREATE SWAP11 EXP SLOAD PUSH30 0xD87B512ED24D0D2D4FC7CB8F1986EC9CDE92FA058F705464736F6C6343 STOP ADDMOD XOR STOP CALLER ","linkReferences":{}},"methodIdentifiers":{"getAmount()":"d321fe29","getClaimableAmount()":"c354bd6e","getCliffPeriod()":"3d9205c1","getCurrentSlot()":"d8e3784c","getEnableCliff()":"747ba251","getLastClaimedTime()":"38adde50","getNextVestingDate()":"3660218c","getOwner()":"893d20e8","getRecipient()":"1b88094d","getReleasedAmount()":"9a5569a7","getSlots()":"fab2c469","getStartTime()":"c828371e","getToken()":"21df0da7","getUnlockTime()":"602bc62b","getVestingStatus()":"ee4a745c","initialize(address,address,uint256,uint256,uint256,address,uint256,uint256,uint256,uint256,bool)":"ed3410d9","vestingAmount()":"00728f76","vestingInterval()":"b8e50cab","withdraw()":"3ccfd60b"}}}}}