{"abi":[{"type":"constructor","inputs":[],"stateMutability":"nonpayable"},{"type":"function","name":"allLocks","inputs":[{"name":"","type":"uint256","internalType":"uint256"}],"outputs":[{"name":"","type":"address","internalType":"address"}],"stateMutability":"view"},{"type":"function","name":"createVestingLock","inputs":[{"name":"token","type":"address","internalType":"address"},{"name":"amount","type":"uint256","internalType":"uint256"},{"name":"startTime","type":"uint256","internalType":"uint256"},{"name":"unlockTime","type":"uint256","internalType":"uint256"},{"name":"cliffPeriod","type":"uint256","internalType":"uint256"},{"name":"recipient","type":"address","internalType":"address"},{"name":"slots","type":"uint256","internalType":"uint256"},{"name":"enableCliff","type":"bool","internalType":"bool"}],"outputs":[{"name":"lock","type":"address","internalType":"address"}],"stateMutability":"nonpayable"},{"type":"function","name":"feeAdmin","inputs":[],"outputs":[{"name":"","type":"address","internalType":"address"}],"stateMutability":"view"},{"type":"function","name":"feeCollector","inputs":[],"outputs":[{"name":"","type":"address","internalType":"address"}],"stateMutability":"view"},{"type":"function","name":"getRecipientLocks","inputs":[{"name":"recipient","type":"address","internalType":"address"}],"outputs":[{"name":"","type":"address[]","internalType":"address[]"}],"stateMutability":"view"},{"type":"function","name":"getUserLocks","inputs":[{"name":"user","type":"address","internalType":"address"}],"outputs":[{"name":"","type":"address[]","internalType":"address[]"}],"stateMutability":"view"},{"type":"function","name":"lockFeeAmountVesting","inputs":[],"outputs":[{"name":"","type":"uint256","internalType":"uint256"}],"stateMutability":"view"},{"type":"function","name":"lockFeeToken","inputs":[],"outputs":[{"name":"","type":"address","internalType":"contract IERC20"}],"stateMutability":"view"},{"type":"function","name":"recipientLocks","inputs":[{"name":"","type":"address","internalType":"address"},{"name":"","type":"uint256","internalType":"uint256"}],"outputs":[{"name":"","type":"address","internalType":"address"}],"stateMutability":"view"},{"type":"function","name":"setTokenWhitelist","inputs":[{"name":"_token","type":"address","internalType":"address"},{"name":"_status","type":"bool","internalType":"bool"}],"outputs":[],"stateMutability":"nonpayable"},{"type":"function","name":"totalLocks","inputs":[],"outputs":[{"name":"","type":"uint256","internalType":"uint256"}],"stateMutability":"view"},{"type":"function","name":"updateFeeAdmin","inputs":[{"name":"_newFeeAdmin","type":"address","internalType":"address"}],"outputs":[],"stateMutability":"nonpayable"},{"type":"function","name":"updateFeeCollector","inputs":[{"name":"_newFeeCollector","type":"address","internalType":"address"}],"outputs":[],"stateMutability":"nonpayable"},{"type":"function","name":"updateLockFeeToken","inputs":[{"name":"_newFeeToken","type":"address","internalType":"contract IERC20"}],"outputs":[],"stateMutability":"nonpayable"},{"type":"function","name":"updatelockFeeAmountVesting","inputs":[{"name":"_newFee","type":"uint256","internalType":"uint256"}],"outputs":[],"stateMutability":"nonpayable"},{"type":"function","name":"userLocks","inputs":[{"name":"","type":"address","internalType":"address"},{"name":"","type":"uint256","internalType":"uint256"}],"outputs":[{"name":"","type":"address","internalType":"address"}],"stateMutability":"view"},{"type":"function","name":"vestingImpl","inputs":[],"outputs":[{"name":"","type":"address","internalType":"address"}],"stateMutability":"view"},{"type":"function","name":"whitelistedTokens","inputs":[{"name":"","type":"address","internalType":"address"}],"outputs":[{"name":"","type":"bool","internalType":"bool"}],"stateMutability":"view"},{"type":"event","name":"FeeAdminUpdated","inputs":[{"name":"newFeeAdmin","type":"address","indexed":true,"internalType":"address"}],"anonymous":false},{"type":"event","name":"FeeAmountVestingUpdated","inputs":[{"name":"newFee","type":"uint256","indexed":true,"internalType":"uint256"}],"anonymous":false},{"type":"event","name":"FeeCollectorUpdated","inputs":[{"name":"newFeeCollector","type":"address","indexed":true,"internalType":"address"}],"anonymous":false},{"type":"event","name":"FeeTokenUpdated","inputs":[{"name":"newFeeToken","type":"address","indexed":true,"internalType":"contract IERC20"}],"anonymous":false},{"type":"event","name":"LockCreated","inputs":[{"name":"lock","type":"address","indexed":true,"internalType":"address"},{"name":"owner","type":"address","indexed":true,"internalType":"address"},{"name":"token","type":"address","indexed":true,"internalType":"address"},{"name":"amount","type":"uint256","indexed":false,"internalType":"uint256"}],"anonymous":false},{"type":"event","name":"TokenWhitelisted","inputs":[{"name":"token","type":"address","indexed":true,"internalType":"address"},{"name":"status","type":"bool","indexed":true,"internalType":"bool"}],"anonymous":false},{"type":"error","name":"DeploymentFailed","inputs":[]},{"type":"error","name":"NotFeeAdmin","inputs":[]},{"type":"error","name":"ZeroAddress","inputs":[]}],"bytecode":{"object":"0x60a080604052346100db576001600055732791bca1f2de4661ed88a30c99a7a9449aa841747380ab0cb57106816b8eff9401418edb0cb18ed5c760018060a01b0319908082600154161760015581600254161760025560035416176003556302faf080600455611c7b80820182811060018060401b038211176100c5578291610e31833903906000f080156100b9576001600160a01b0316608052604051610d5090816100e1823960805181818161035401526105140152f35b6040513d6000823e3d90fd5b634e487b7160e01b600052604160045260246000fd5b600080fdfe608060408181526004918236101561001657600080fd5b600092833560e01c91826311df3155146109a457508163142b52b914610922578163167490fb146108a557816323a35de91461081a57816330a402c0146107f15781633fa0843b1461079d57816352b954681461048157816363d5a3d9146104265781637112aa471461040857816376b9d59014610383578163821bf0b11461033f5781638d81dbb5146102f5578163aa33fedb14610299578163c415b95c14610270578163c9bcc97e146101dd578163d2c35ce81461014957508063d2d18eac1461012b5763daf9c210146100eb57600080fd5b346101275760203660031901126101275760209160ff9082906001600160a01b036101146109c9565b1681526005855220541690519015158152f35b5080fd5b50346101275781600319360112610127576020906008549051908152f35b9050346101d95760203660031901126101d9576101646109c9565b6001546001600160a01b039190821633036101c957169182156101bc575050600280546001600160a01b031916821790557fe5693914d19c789bdee50a362998c0bc8d035a835f9871da5d51152f0582c34f8280a280f35b5163d92e233d60e01b8152fd5b835163c99d1aaf60e01b81528390fd5b8280fd5b919050346101d957806003193601126101d9576101f86109c9565b916024359283151580940361026b576001546001600160a01b0392908316330361025d575016908184526005602052832060ff1981541660ff84161790557fef81a9943b96c8df4ef243401c9bf5159146166211356898b52d382086168d928380a380f35b835163c99d1aaf60e01b8152fd5b600080fd5b50503461012757816003193601126101275760025490516001600160a01b039091168152602090f35b5050346101275780600319360112610127576102b36109c9565b6001600160a01b0390811683526006602052818320805460243594908510156102f257506020936102e391610a24565b92905490519260031b1c168152f35b80fd5b50503461012757806003193601126101275761030f6109c9565b6001600160a01b0390811683526007602052818320805460243594908510156102f257506020936102e391610a24565b505034610127578160031936011261012757517f00000000000000000000000000000000000000000000000000000000000000006001600160a01b03168152602090f35b9050346101d95760203660031901126101d95780356001600160a01b038181169391849003610404576001541633036103f75782156101bc575050600380546001600160a01b031916821790557fa0ca04e9956a42929fa24e6299bb6622c8703ac575c61b33e01fb170100ee6dc8280a280f35b5163c99d1aaf60e01b8152fd5b8480fd5b9050346101d957826003193601126101d95760209250549051908152f35b9050346101d95760203660031901126101d957356008548110156101d95760086000527ff3f7a9fe364faab93b216da50a3214154f22a0a2b415b23a84c8169e8b636ee3015490516001600160a01b03909116815260209150f35b838334610127576101003660031901126101275761049d6109c9565b9260249081359060a4359260018060a01b03958685168095036102f25760e435908115158092036102f257865195606087019867ffffffffffffffff998881108b82111761078b578952604435885260209a8b89019a6064358c528a8a019560843587528d6e5af43d82803e903d91602b57fd5bf37f0000000000000000000000000000000000000000000000000000000000000000763d602d80600a3d3981f3363d3d373d3d3d363d7300000062ffffff8260881c1617895260781b1790526037600987f0968488169d8e1561074f578e3b1561074b57858e5195631111a84b60e21b8752338d880152169c8d8b8701528c60448701525160648601525160848501525160a48401528460c484015260c43560e484015285610104840152856101248401528561014484015261016483015284828d81835a9261018493f180156107415761071c575b5050833b1561070c5791889184936106048961063897338d610ac5565b89835260058d5260ff8484205416156106ee575b5033825260068c5261062c84848420610a8a565b815260078b5220610a8a565b60085491600160401b8310156106db5760018301806008558310156106c857505060086000527ff3f7a9fe364faab93b216da50a3214154f22a0a2b415b23a84c8169e8b636ee301846bffffffffffffffffffffffff60a01b8254161790558251908152837facbc640c2f760ed95320d76df493f521e14d874ceeed1d009575a6f2ade0bf02863393a451908152f35b603290634e487b7160e01b600052526000fd5b604190634e487b7160e01b600052526000fd5b80610706916003541690600254168954913390610ac5565b8c610618565b8851633011642560e01b81528690fd5b819492941161072f578952918b806105e7565b634e487b7160e01b8252604187528582fd5b8b513d87823e3d90fd5b8780fd5b8f8b8f8c606493601692519362461bcd60e51b855284015282015275115490cc4c4d8dce8818dc99585d194819985a5b195960521b6044820152fd5b634e487b7160e01b8452604187528584fd5b9050346101d95760203660031901126101d957600154813592906001600160a01b031633036103f757508190557f637fd561bf09944892a3d28baf27003e2473672c98e630ab942a2e67c51010668280a280f35b50503461012757816003193601126101275760015490516001600160a01b039091168152602090f35b5050346101275760209060206003193601126101d9576001600160a01b0392836108426109c9565b16815260066020528181209382519081946020875493848152019684526020842093915b83831061088c57610888878761087e828c0383610a52565b51918291826109df565b0390f35b8454811688529681019660019485019490920191610866565b5050346101275760209060206003193601126101d9576001600160a01b0392836108cd6109c9565b16815260076020528181209382519081946020875493848152019684526020842093915b83831061090957610888878761087e828c0383610a52565b84548116885296810196600194850194909201916108f1565b9050346101d95760203660031901126101d95761093d6109c9565b60015491906001600160a01b0390818416330361099457169283156101bc5750506001600160a01b03191681176001557f3e918b61b757ffa05ce35125f7a0015edde866bd42564368a3ef5dd2657278508280a280f35b845163c99d1aaf60e01b81528390fd5b8490346101275781600319360112610127576003546001600160a01b03168152602090f35b600435906001600160a01b038216820361026b57565b602090602060408183019282815285518094520193019160005b828110610a07575050505090565b83516001600160a01b0316855293810193928101926001016109f9565b8054821015610a3c5760005260206000200190600090565b634e487b7160e01b600052603260045260246000fd5b90601f8019910116810190811067ffffffffffffffff821117610a7457604052565b634e487b7160e01b600052604160045260246000fd5b8054600160401b811015610a7457610aa791600182018155610a24565b60018060a09493941b038084549260031b9316831b921b1916179055565b6040516323b872dd60e01b60208083019182526001600160a01b039485166024840152948416604483015260648083019690965294815292939260a081019267ffffffffffffffff9283851183861017610a7457169060e0810184811084821117610a74576040528584527f5361666545524332303a206c6f772d6c6576656c2063616c6c206661696c656460c0820152600080958192519082855af1903d15610c3b573d928311610c275790610b9c93929160405192610b8f88601f19601f8401160185610a52565b83523d868885013e610c46565b805180610baa575b50505050565b8184918101031261012757820151908115918215036102f25750610bd057808080610ba4565b6084906040519062461bcd60e51b82526004820152602a60248201527f5361666545524332303a204552433230206f7065726174696f6e20646964206e6044820152691bdd081cdd58d8d9595960b21b6064820152fd5b634e487b7160e01b85526041600452602485fd5b90610b9c9392506060915b91929015610ca85750815115610c5a575090565b3b15610c635790565b60405162461bcd60e51b815260206004820152601d60248201527f416464726573733a2063616c6c20746f206e6f6e2d636f6e74726163740000006044820152606490fd5b825190915015610cbb5750805190602001fd5b6040519062461bcd60e51b82528160208060048301528251908160248401526000935b828510610d01575050604492506000838284010152601f80199101168101030190fd5b8481018201518686016044015293810193859350610cde56fea2646970667358221220e489d87de1da79258b4941e73cea5af2e398acefc5de2bbfdb37b5fbac7930f664736f6c634300081800336080806040523461001657611c5f908161001c8239f35b600080fdfe6040608081526004908136101561001557600080fd5b600091823560e01c908162728f76146111aa5781631b88094d1461118157816321df0da7146111595781633660218c1461113c57816338adde501461111d5781633ccfd60b146108b95781633d9205c11461089a5781634446a12c1461069f578163602bc62b14610680578163747ba2511461065c578163893d20e8146106335781639a5569a714610614578163b8e50cab146105f7578163c354bd6e146105d3578163c828371e146105b6578163d321fe2914610597578163d8e3784c14610578578163ee4a745c14610114575063fab2c469146100f357600080fd5b346101105781600319360112610110576020906007549051908152f35b5080fd5b8391503461011057816003193601126101105782516364141b8f60e11b815260209182828281305afa91821561056e57849261053f575b508451633d9205c160e01b815283818381305afa908115610535578591610504575b50855163747ba25160e01b81529584878481305afa9687156104fa5786976104cb575b50805163d321fe2960e01b81529585878581305afa9687156104bf57819761048c575b508151639a5569a760e01b81529086828681305afa918215610480578192610451575b506101df6117b2565b936101e8611339565b96829a8080610448575b15610323575050506102058180996115ff565b94835163fab2c46960e01b9081815289818481305afa9081156103195784916102e8575b50156102dc5760648b029a808c04606414901517156102c95788908551928391825281305afa9182156102be578092610289575b505061026b9060c0996111ff565b955b82519788528701528501526060840152608083015260a0820152f35b9091508782813d83116102b7575b6102a181836111c7565b810103126102b45750518861026b61025d565b80fd5b503d610297565b8451903d90823e3d90fd5b634e487b7160e01b835260118252602483fd5b505060c098509561026d565b90508981813d8311610312575b6102ff81836111c7565b8101031261030e57518c610229565b8380fd5b503d6102f5565b86513d86823e3d90fd5b929a5090911561044157505b8042116000146104375761034661035491426115ff565b61034e61160c565b906111ff565b97825163fab2c46960e01b9081815288818881305afa90811561042d5783916103fc575b508a1161039c575b5061020561039561038f61121f565b8b611326565b80996115ff565b909850825190815286818681305afa9081156103f25789916103c1575b509789610380565b90508681813d83116103eb575b6103d881836111c7565b810103126103e75751896103b9565b8880fd5b503d6103ce565b83513d8b823e3d90fd5b90508881813d8311610426575b61041381836111c7565b8101031261042257518b610378565b8280fd5b503d610409565b85513d85823e3d90fd5b5061035488610346565b905061032f565b508242106101f2565b9091508681813d8311610479575b61046981836111c7565b81010312610110575190896101d6565b503d61045f565b508251903d90823e3d90fd5b9096508581813d83116104b8575b6104a481836111c7565b810103126104b4575195886101b3565b8680fd5b503d61049a565b509051903d90823e3d90fd5b6104ec919750853d87116104f3575b6104e481836111c7565b8101906112eb565b9587610190565b503d6104da565b81513d88823e3d90fd5b90508381813d831161052e575b61051b81836111c7565b8101031261052a57518661016d565b8480fd5b503d610511565b86513d87823e3d90fd5b9091508281813d8311610567575b61055781836111c7565b8101031261030e5751908561014b565b503d61054d565b85513d86823e3d90fd5b5050346101105781600319360112610110576020906008549051908152f35b5050346101105781600319360112610110576020906006549051908152f35b505034610110578160031936011261011057602091549051908152f35b5050346101105781600319360112610110576020906105f06117b2565b9051908152f35b5050346101105781600319360112610110576020906105f061160c565b5050346101105781600319360112610110576020906009549051908152f35b50503461011057816003193601126101105760035490516001600160a01b039091168152602090f35b50503461011057816003193601126101105760209060ff600b541690519015158152f35b5050346101105781600319360112610110576020906001549051908152f35b9190503461042257610180366003190112610422576001600160a01b03918035838116919082900361052a5760243592848416809403610896576044359160603660631901126104b4578151916060830183811067ffffffffffffffff8211176108835781526064358352602083019160843583528184019060a435825260c43598891680990361087f5760e43593610164359586151580970361087b57600b549260ff8460081c16610842578a15610834578915610826578b1561081857936101007ff011f72b3672910dc9373088af2f91da23a1fac3053dbc72a1f8ac254e88db669997948d8f9894958d968f9960c09d9a6bffffffffffffffffffffffff60a01b998a6003541617600355898254161790558b60065551809a55519384600155519586600255600554161760055585600755610104356008556101243560095561014435600a5560ff87169061ffff19161717600b55815196875260208701528501526060840152608083015260a0820152a480f35b855163d92e233d60e01b8152fd5b85516349e27cff60e01b8152fd5b855163c1ab6dc160e01b8152fd5b606490602087519162461bcd60e51b83528201526013602482015272105b1c9958591e481a5b9a5d1a585b1a5e9959606a1b6044820152fd5b8b80fd5b8980fd5b634e487b7160e01b895260418352602489fd5b8580fd5b5050346101105781600319360112610110576020906002549051908152f35b9050346104225782600319360112610422578151631b88094d60e01b9081815260209384828581305afa9182156104fa5786926110fe575b506001600160a01b0391821633036110ef5780516364141b8f60e11b815285818681305afa9081156110045787916110c2575b508151633d9205c160e01b81529086828781305afa918215610ccf578892611093575b50825163747ba25160e01b815287818881305afa908115610d0a578991611076575b50808061106d575b61105d571561104d57508042116000146110465761098f90426115ff565b61099761160c565b801561103d576109a6916111ff565b915b815163fab2c46960e01b808252908488828981305afa918215610e42578a9261100e575b5011610fb2575b508693825193633638de1360e21b9485815288818981305afa908115610e42578a91610f85575b508111610f2a575b835185815288818981305afa908115610e42578a91610efd575b508110610ef5575b835185815288818981305afa908115610e42578a91610ec8575b508114610ec0575b508415610eb057610a5e610a5861121f565b86611326565b9483519085825288828981305afa8015610e42578a90610e81575b610a839250611303565b8351639a5569a760e01b808252919089818a81305afa8015610e1b5788908c90610e4c575b610ab29250611303565b90806008558160095542600a5585519142917fb27a3a9979877b12952e21e91eeded34f5ecc7d5147544ca7b58fa9cd85e30be8d80a46321df0da760e01b815288818981305afa908115610e42579084918b91610e25575b501684519083825289828a81305afa918215610e1b578b92610dfc575b50855190858b83019363a9059cbb60e01b855216602483015288604483015260448252608082019267ffffffffffffffff9280851084861117610de95760c0810185811085821117610dd65789528c85527f5361666545524332303a206c6f772d6c6576656c2063616c6c206661696c656460a0820152518d9182919082855af1913d15610dc8573d908111610db557918b91610be394938e8a5191610bd686601f19601f84011601846111c7565b825281943d92013e611b55565b8051908982610d43575b505050835191825287828881305afa918215610d0a578992610d14575b50835194855287858881305afa948515610d0a579088918a96610cd9575b508451978891825281305afa958615610ccf578896610c78575b507f47fc0b24db66a9957c289e5ea8eeaf0a13000b6173d67f6317229282154a2b7393949596835195865242908601521692a480f35b939495508684813d8311610cc8575b610c9181836111c7565b81010312610cc4577f47fc0b24db66a9957c289e5ea8eeaf0a13000b6173d67f6317229282154a2b739351959493610c42565b8780fd5b503d610c87565b83513d8a823e3d90fd5b8281939297503d8311610d03575b610cf181836111c7565b810103126103e7578790519438610c28565b503d610ce7565b84513d8b823e3d90fd5b610d35919250883d8a11610d3c575b610d2d81836111c7565b8101906115e0565b9038610c0a565b503d610d23565b80610d529383010191016112eb565b15610d5f57388089610bed565b835162461bcd60e51b8152808801899052602a60248201527f5361666545524332303a204552433230206f7065726174696f6e20646964206e6044820152691bdd081cdd58d8d9595960b21b6064820152608490fd5b634e487b7160e01b8d5260418b5260248dfd5b50610be39291606091611b55565b634e487b7160e01b8f5260418d5260248ffd5b634e487b7160e01b8e5260418c5260248efd5b610e149192508a3d8c11610d3c57610d2d81836111c7565b9038610b27565b86513d8d823e3d90fd5b610e3c91508a3d8c11610d3c57610d2d81836111c7565b38610b0a565b85513d8c823e3d90fd5b50508981813d8311610e7a575b610e6381836111c7565b81010312610e765787610ab29151610aa8565b8a80fd5b503d610e59565b508882813d8311610ea9575b610e9781836111c7565b8101031261087f57610a839151610a79565b503d610e8d565b8251634e4f9d1d60e11b81528690fd5b945038610a46565b90508881813d8311610eee575b610edf81836111c7565b8101031261087f575138610a3e565b503d610ed5565b945084610a24565b90508881813d8311610f23575b610f1481836111c7565b8101031261087f575138610a1c565b503d610f0a565b9450825184815287818881305afa8015610d0a578990610f56575b610f509150866115ff565b94610a02565b508781813d8311610f7e575b610f6c81836111c7565b810103126103e757610f509051610f45565b503d610f62565b90508881813d8311610fab575b610f9c81836111c7565b8101031261087f5751386109fa565b503d610f92565b909250815190815285818681305afa908115611004578791610fd7575b5091386109d3565b90508581813d8311610ffd575b610fee81836111c7565b810103126104b4575138610fcf565b503d610fe4565b82513d89823e3d90fd5b9091508881813d8311611036575b61102681836111c7565b8101031261087f575190386109cc565b503d61101c565b505085916109a8565b508561098f565b6110589150426115ff565b61098f565b8351636c09fbc960e11b81528790fd5b50824210610971565b61108d9150883d8a116104f3576104e481836111c7565b38610969565b9091508681813d83116110bb575b6110ab81836111c7565b81010312610cc457519038610947565b503d6110a1565b90508581813d83116110e8575b6110d981836111c7565b810103126104b4575138610924565b503d6110cf565b5163a1bfc65b60e01b81528390fd5b611116919250853d8711610d3c57610d2d81836111c7565b90386108f1565b505034610110578160031936011261011057602090600a549051908152f35b5050346101105781600319360112610110576020906105f0611339565b9050346104225782600319360112610422575490516001600160a01b03909116815260209150f35b50503461011057816003193601126101105760055490516001600160a01b039091168152602090f35b5050346101105781600319360112610110576020906105f061121f565b90601f8019910116810190811067ffffffffffffffff8211176111e957604052565b634e487b7160e01b600052604160045260246000fd5b8115611209570490565b634e487b7160e01b600052601260045260246000fd5b60405163d321fe2960e01b815260208082600481305afa9182156112b0576000926112bc575b5060405163fab2c46960e01b8152918183600481305afa9182156112b057600092611279575b5061127692506111ff565b90565b90915082813d83116112a9575b61129081836111c7565b810103126112a4576112769151903861126b565b600080fd5b503d611286565b6040513d6000823e3d90fd5b9080925081813d83116112e4575b6112d481836111c7565b810103126112a457519038611245565b503d6112ca565b908160209103126112a4575180151581036112a45790565b9190820180921161131057565b634e487b7160e01b600052601160045260246000fd5b8181029291811591840414171561131057565b604080516364141b8f60e11b81526020919060049083818381305afa9081156115d5576000916115a8575b508251633d9205c160e01b815284818481305afa90811561159d57600091611570575b50835163747ba25160e01b81529185838581305afa92831561156557600093611546575b508451633638de1360e21b808252939087818781305afa90811561153b5760009161150e575b50865163fab2c46960e01b81529088828881305afa918215611503576000926114d4575b5010156114c85780806114bf575b6114ac57156114a45750935b835191825280828481305afa93841561149a575060009361146a575b50506001820180921161145557509061144f6112769261144961160c565b90611326565b90611303565b601190634e487b7160e01b6000525260246000fd5b9080929350813d8311611493575b61148281836111c7565b810103126112a4575190388061142b565b503d611478565b513d6000823e3d90fd5b90509361140f565b505092505050611276915061144f61160c565b50824210611403565b50505050505050600090565b9091508881813d83116114fc575b6114ec81836111c7565b810103126112a4575190386113f5565b503d6114e2565b88513d6000823e3d90fd5b90508781813d8311611534575b61152581836111c7565b810103126112a45751386113d1565b503d61151b565b87513d6000823e3d90fd5b61155e919350863d88116104f3576104e481836111c7565b91386113ab565b85513d6000823e3d90fd5b908582813d8311611596575b61158681836111c7565b810103126102b457505138611387565b503d61157c565b84513d6000823e3d90fd5b90508381813d83116115ce575b6115bf81836111c7565b810103126112a4575138611364565b503d6115b5565b83513d6000823e3d90fd5b908160209103126112a457516001600160a01b03811681036112a45790565b9190820391821161131057565b6040805163747ba25160e01b81526004919060209081818581305afa9081156115d557600091611795575b501561171957815163602bc62b60e01b815281818581305afa9081156115d5576000916116ec575b508251633d9205c160e01b81529082828681305afa90811561159d576000916116bb575b61168d92506115ff565b90808351809563fab2c46960e01b825281305afa92831561149a5750600092611279575061127692506111ff565b90508282813d83116116e5575b6116d281836111c7565b810103126112a45761168d915190611683565b503d6116c8565b90508181813d8311611712575b61170381836111c7565b810103126112a457513861165f565b503d6116f9565b815163602bc62b60e01b815281818581305afa9081156115d557600091611768575b5082516364141b8f60e11b81529082828681305afa90811561159d576000916116bb5761168d92506115ff565b90508181813d831161178e575b61177f81836111c7565b810103126112a457513861173b565b503d611775565b6117ac9150823d84116104f3576104e481836111c7565b38611637565b604080516364141b8f60e11b815260049160209182818581305afa908115611a6c57600091611b28575b508151633d9205c160e01b81529083828681305afa9182156115d557600092611af9575b50825163747ba25160e01b815284818781305afa90811561159d57600091611adc575b508080611ad3575b611ac85715611ab85750804211600014611ab05761184990426115ff565b61185161160c565b8015611aa657611860916111ff565b905b805163fab2c46960e01b808252908385828881305afa91821561159d57600092611a77575b5011611a19575b508051633638de1360e21b8082526000949182818881305afa908115611a0f5786916119e2575b508410611982575b825181815282818881305afa90811561159d57600091611955575b50841161194b575b81908351968791825281305afa91821561149a575060009161191b575b5061127693508114611913575b5061144961121f565b90503861190a565b905083813d8311611944575b61193181836111c7565b810103126112a4576112769251386118fd565b503d611927565b92935083926118e0565b90508281813d831161197b575b61196c81836111c7565b810103126112a45751386118d8565b503d611962565b9382519085825282828881305afa9081156102be5780916119b0575b506119aa9150846115ff565b936118bd565b90508282813d83116119db575b6119c781836111c7565b810103126102b457506119aa90513861199e565b503d6119bd565b90508281813d8311611a08575b6119f981836111c7565b810103126108965751386118b5565b503d6119ef565b84513d88823e3d90fd5b908092505190815282818581305afa908115611a6c57600091611a3f575b50903861188e565b90508281813d8311611a65575b611a5681836111c7565b810103126112a4575138611a37565b503d611a4c565b82513d6000823e3d90fd5b9091508581813d8311611a9f575b611a8f81836111c7565b810103126112a457519038611887565b503d611a85565b5050600090611862565b506000611849565b611ac39150426115ff565b611849565b505050505050600090565b5082421061182b565b611af39150853d87116104f3576104e481836111c7565b38611823565b90918482813d8311611b21575b611b1081836111c7565b810103126102b45750519038611800565b503d611b06565b90508281813d8311611b4e575b611b3f81836111c7565b810103126112a45751386117dc565b503d611b35565b91929015611bb75750815115611b69575090565b3b15611b725790565b60405162461bcd60e51b815260206004820152601d60248201527f416464726573733a2063616c6c20746f206e6f6e2d636f6e74726163740000006044820152606490fd5b825190915015611bca5750805190602001fd5b6040519062461bcd60e51b82528160208060048301528251908160248401526000935b828510611c10575050604492506000838284010152601f80199101168101030190fd5b8481018201518686016044015293810193859350611bed56fea2646970667358221220c15014da8d8467298c55cb3ad20e0eab66b10ea663c29705f7f65b5561a9369d64736f6c63430008180033","linkReferences":{}},"methodIdentifiers":{"allLocks(uint256)":"63d5a3d9","createVestingLock(address,uint256,uint256,uint256,uint256,address,uint256,bool)":"52b95468","feeAdmin()":"30a402c0","feeCollector()":"c415b95c","getRecipientLocks(address)":"167490fb","getUserLocks(address)":"23a35de9","lockFeeAmountVesting()":"7112aa47","lockFeeToken()":"11df3155","recipientLocks(address,uint256)":"8d81dbb5","setTokenWhitelist(address,bool)":"c9bcc97e","totalLocks()":"d2d18eac","updateFeeAdmin(address)":"142b52b9","updateFeeCollector(address)":"d2c35ce8","updateLockFeeToken(address)":"76b9d590","updatelockFeeAmountVesting(uint256)":"3fa0843b","userLocks(address,uint256)":"aa33fedb","vestingImpl()":"821bf0b1","whitelistedTokens(address)":"daf9c210"},"id":34}