{"abi":[{"type":"constructor","inputs":[],"stateMutability":"nonpayable"},{"type":"function","name":"allLocks","inputs":[{"name":"","type":"uint256","internalType":"uint256"}],"outputs":[{"name":"","type":"address","internalType":"address"}],"stateMutability":"view"},{"type":"function","name":"createVestingLock","inputs":[{"name":"token","type":"address","internalType":"address"},{"name":"amount","type":"uint256","internalType":"uint256"},{"name":"unlockTime","type":"uint256","internalType":"uint256"},{"name":"cliffPeriod","type":"uint256","internalType":"uint256"},{"name":"recipient","type":"address","internalType":"address"},{"name":"slots","type":"uint256","internalType":"uint256"},{"name":"enableCliff","type":"bool","internalType":"bool"}],"outputs":[{"name":"lock","type":"address","internalType":"address"}],"stateMutability":"nonpayable"},{"type":"function","name":"feeAdmin","inputs":[],"outputs":[{"name":"","type":"address","internalType":"address"}],"stateMutability":"view"},{"type":"function","name":"feeCollector","inputs":[],"outputs":[{"name":"","type":"address","internalType":"address"}],"stateMutability":"view"},{"type":"function","name":"getRecipientLocks","inputs":[{"name":"recipient","type":"address","internalType":"address"}],"outputs":[{"name":"","type":"address[]","internalType":"address[]"}],"stateMutability":"view"},{"type":"function","name":"getUserLocks","inputs":[{"name":"user","type":"address","internalType":"address"}],"outputs":[{"name":"","type":"address[]","internalType":"address[]"}],"stateMutability":"view"},{"type":"function","name":"lockFeeAmountVesting","inputs":[],"outputs":[{"name":"","type":"uint256","internalType":"uint256"}],"stateMutability":"view"},{"type":"function","name":"lockFeeToken","inputs":[],"outputs":[{"name":"","type":"address","internalType":"contract IERC20"}],"stateMutability":"view"},{"type":"function","name":"recipientLocks","inputs":[{"name":"","type":"address","internalType":"address"},{"name":"","type":"uint256","internalType":"uint256"}],"outputs":[{"name":"","type":"address","internalType":"address"}],"stateMutability":"view"},{"type":"function","name":"setTokenWhitelist","inputs":[{"name":"_token","type":"address","internalType":"address"},{"name":"_status","type":"bool","internalType":"bool"}],"outputs":[],"stateMutability":"nonpayable"},{"type":"function","name":"totalLocks","inputs":[],"outputs":[{"name":"","type":"uint256","internalType":"uint256"}],"stateMutability":"view"},{"type":"function","name":"updateFeeAdmin","inputs":[{"name":"_newFeeAdmin","type":"address","internalType":"address"}],"outputs":[],"stateMutability":"nonpayable"},{"type":"function","name":"updateFeeCollector","inputs":[{"name":"_newFeeCollector","type":"address","internalType":"address"}],"outputs":[],"stateMutability":"nonpayable"},{"type":"function","name":"updateLockFeeToken","inputs":[{"name":"_newFeeToken","type":"address","internalType":"contract IERC20"}],"outputs":[],"stateMutability":"nonpayable"},{"type":"function","name":"updatelockFeeAmountVesting","inputs":[{"name":"_newFee","type":"uint256","internalType":"uint256"}],"outputs":[],"stateMutability":"nonpayable"},{"type":"function","name":"userLocks","inputs":[{"name":"","type":"address","internalType":"address"},{"name":"","type":"uint256","internalType":"uint256"}],"outputs":[{"name":"","type":"address","internalType":"address"}],"stateMutability":"view"},{"type":"function","name":"vestingImpl","inputs":[],"outputs":[{"name":"","type":"address","internalType":"address"}],"stateMutability":"view"},{"type":"function","name":"whitelistedTokens","inputs":[{"name":"","type":"address","internalType":"address"}],"outputs":[{"name":"","type":"bool","internalType":"bool"}],"stateMutability":"view"},{"type":"event","name":"FeeAdminUpdated","inputs":[{"name":"newFeeAdmin","type":"address","indexed":true,"internalType":"address"}],"anonymous":false},{"type":"event","name":"FeeAmountVestingUpdated","inputs":[{"name":"newFee","type":"uint256","indexed":true,"internalType":"uint256"}],"anonymous":false},{"type":"event","name":"FeeCollectorUpdated","inputs":[{"name":"newFeeCollector","type":"address","indexed":true,"internalType":"address"}],"anonymous":false},{"type":"event","name":"FeeTokenUpdated","inputs":[{"name":"newFeeToken","type":"address","indexed":true,"internalType":"contract IERC20"}],"anonymous":false},{"type":"event","name":"LockCreated","inputs":[{"name":"lock","type":"address","indexed":true,"internalType":"address"},{"name":"owner","type":"address","indexed":true,"internalType":"address"},{"name":"token","type":"address","indexed":true,"internalType":"address"},{"name":"amount","type":"uint256","indexed":false,"internalType":"uint256"}],"anonymous":false},{"type":"event","name":"TokenWhitelisted","inputs":[{"name":"token","type":"address","indexed":true,"internalType":"address"},{"name":"status","type":"bool","indexed":true,"internalType":"bool"}],"anonymous":false},{"type":"error","name":"DeploymentFailed","inputs":[]},{"type":"error","name":"NotFeeAdmin","inputs":[]},{"type":"error","name":"ZeroAddress","inputs":[]}],"bytecode":{"object":"0x60a080604052346100db576001600055732791bca1f2de4661ed88a30c99a7a9449aa841747380ab0cb57106816b8eff9401418edb0cb18ed5c760018060a01b0319908082600154161760015581600254161760025560035416176003556302faf0806004556118d880820182811060018060401b038211176100c5578291610dea833903906000f080156100b9576001600160a01b0316608052604051610d0990816100e1823960805181818161035401526105d00152f35b6040513d6000823e3d90fd5b634e487b7160e01b600052604160045260246000fd5b600080fdfe608060408181526004918236101561001657600080fd5b600092833560e01c91826311df31551461095d57508163142b52b9146108db578163167490fb1461085e5781632316cd571461058957816323a35de9146104fe57816330a402c0146104d55781633fa0843b1461048157816363d5a3d9146104265781637112aa471461040857816376b9d59014610383578163821bf0b11461033f5781638d81dbb5146102f5578163aa33fedb14610299578163c415b95c14610270578163c9bcc97e146101dd578163d2c35ce81461014957508063d2d18eac1461012b5763daf9c210146100eb57600080fd5b346101275760203660031901126101275760209160ff9082906001600160a01b03610114610982565b1681526005855220541690519015158152f35b5080fd5b50346101275781600319360112610127576020906008549051908152f35b9050346101d95760203660031901126101d957610164610982565b6001546001600160a01b039190821633036101c957169182156101bc575050600280546001600160a01b031916821790557fe5693914d19c789bdee50a362998c0bc8d035a835f9871da5d51152f0582c34f8280a280f35b5163d92e233d60e01b8152fd5b835163c99d1aaf60e01b81528390fd5b8280fd5b919050346101d957806003193601126101d9576101f8610982565b916024359283151580940361026b576001546001600160a01b0392908316330361025d575016908184526005602052832060ff1981541660ff84161790557fef81a9943b96c8df4ef243401c9bf5159146166211356898b52d382086168d928380a380f35b835163c99d1aaf60e01b8152fd5b600080fd5b50503461012757816003193601126101275760025490516001600160a01b039091168152602090f35b5050346101275780600319360112610127576102b3610982565b6001600160a01b0390811683526006602052818320805460243594908510156102f257506020936102e3916109dd565b92905490519260031b1c168152f35b80fd5b50503461012757806003193601126101275761030f610982565b6001600160a01b0390811683526007602052818320805460243594908510156102f257506020936102e3916109dd565b505034610127578160031936011261012757517f00000000000000000000000000000000000000000000000000000000000000006001600160a01b03168152602090f35b9050346101d95760203660031901126101d95780356001600160a01b038181169391849003610404576001541633036103f75782156101bc575050600380546001600160a01b031916821790557fa0ca04e9956a42929fa24e6299bb6622c8703ac575c61b33e01fb170100ee6dc8280a280f35b5163c99d1aaf60e01b8152fd5b8480fd5b9050346101d957826003193601126101d95760209250549051908152f35b9050346101d95760203660031901126101d957356008548110156101d95760086000527ff3f7a9fe364faab93b216da50a3214154f22a0a2b415b23a84c8169e8b636ee3015490516001600160a01b03909116815260209150f35b9050346101d95760203660031901126101d957600154813592906001600160a01b031633036103f757508190557f637fd561bf09944892a3d28baf27003e2473672c98e630ab942a2e67c51010668280a280f35b50503461012757816003193601126101275760015490516001600160a01b039091168152602090f35b5050346101275760209060206003193601126101d9576001600160a01b039283610526610982565b16815260066020528181209382519081946020875493848152019684526020842093915b8383106105705761056c8787610562828c0383610a0b565b5191829182610998565b0390f35b845481168852968101966001948501949092019161054a565b8383346101275760e0366003190112610127576105a4610982565b916024938435906084359560018060a01b038088168098036104045760c435948515158096036102f2577f000000000000000000000000000000000000000000000000000000000000000098763d602d80600a3d3981f3363d3d373d3d3d363d7300000062ffffff8b60881c161782526e5af43d82803e903d91602b57fd5bf360209a60781b178a526037600983f092808416998a15610823578a3b1561081f57818a519163ed3410d960e01b8352338984015216988987830152886044830152604435606483015260643560848301528360a483015260a43560c48301528460e4830152846101048301528461012483015261014482015283818c81835a9261016493f18015610815576107e8575b50833b156107d85791889184936106d08961070497338d610a7e565b89835260058d5260ff8484205416156107ba575b5033825260068c526106f884848420610a43565b815260078b5220610a43565b60085491600160401b8310156107a757600183018060085583101561079457505060086000527ff3f7a9fe364faab93b216da50a3214154f22a0a2b415b23a84c8169e8b636ee301846bffffffffffffffffffffffff60a01b8254161790558251908152837facbc640c2f760ed95320d76df493f521e14d874ceeed1d009575a6f2ade0bf02863393a451908152f35b603290634e487b7160e01b600052526000fd5b604190634e487b7160e01b600052526000fd5b806107d2916003541690600254168954913390610a7e565b8c6106e4565b8851633011642560e01b81528690fd5b67ffffffffffffffff8194929411610803578952918b6106b4565b634e487b7160e01b8252604187528582fd5b8a513d86823e3d90fd5b8380fd5b895162461bcd60e51b81528088018d905260168188015275115490cc4c4d8dce8818dc99585d194819985a5b195960521b6044820152606490fd5b5050346101275760209060206003193601126101d9576001600160a01b039283610886610982565b16815260076020528181209382519081946020875493848152019684526020842093915b8383106108c25761056c8787610562828c0383610a0b565b84548116885296810196600194850194909201916108aa565b9050346101d95760203660031901126101d9576108f6610982565b60015491906001600160a01b0390818416330361094d57169283156101bc5750506001600160a01b03191681176001557f3e918b61b757ffa05ce35125f7a0015edde866bd42564368a3ef5dd2657278508280a280f35b845163c99d1aaf60e01b81528390fd5b8490346101275781600319360112610127576003546001600160a01b03168152602090f35b600435906001600160a01b038216820361026b57565b602090602060408183019282815285518094520193019160005b8281106109c0575050505090565b83516001600160a01b0316855293810193928101926001016109b2565b80548210156109f55760005260206000200190600090565b634e487b7160e01b600052603260045260246000fd5b90601f8019910116810190811067ffffffffffffffff821117610a2d57604052565b634e487b7160e01b600052604160045260246000fd5b8054600160401b811015610a2d57610a60916001820181556109dd565b60018060a09493941b038084549260031b9316831b921b1916179055565b6040516323b872dd60e01b60208083019182526001600160a01b039485166024840152948416604483015260648083019690965294815292939260a081019267ffffffffffffffff9283851183861017610a2d57169060e0810184811084821117610a2d576040528584527f5361666545524332303a206c6f772d6c6576656c2063616c6c206661696c656460c0820152600080958192519082855af1903d15610bf4573d928311610be05790610b5593929160405192610b4888601f19601f8401160185610a0b565b83523d868885013e610bff565b805180610b63575b50505050565b8184918101031261012757820151908115918215036102f25750610b8957808080610b5d565b6084906040519062461bcd60e51b82526004820152602a60248201527f5361666545524332303a204552433230206f7065726174696f6e20646964206e6044820152691bdd081cdd58d8d9595960b21b6064820152fd5b634e487b7160e01b85526041600452602485fd5b90610b559392506060915b91929015610c615750815115610c13575090565b3b15610c1c5790565b60405162461bcd60e51b815260206004820152601d60248201527f416464726573733a2063616c6c20746f206e6f6e2d636f6e74726163740000006044820152606490fd5b825190915015610c745750805190602001fd5b6040519062461bcd60e51b82528160208060048301528251908160248401526000935b828510610cba575050604492506000838284010152601f80199101168101030190fd5b8481018201518686016044015293810193859350610c9756fea2646970667358221220d542e56de119ab8fc1e374afb8dafda222adbe376456c7603c73d2ace93ed18564736f6c6343000818003360808060405234610016576118bc908161001c8239f35b600080fdfe6040608081526004908136101561001557600080fd5b600091823560e01c908162728f7614610ffa5781631b88094d14610fd157816321df0da714610fa85781633660218c14610f8b57816338adde5014610f6c5781633ccfd60b146107ac5781633d9205c11461078d578163602bc62b1461076f578163747ba2511461074b578163893d20e8146107235781639a5569a714610704578163b8e50cab146106e7578163c354bd6e146106c3578163c828371e146106a4578163d321fe2914610685578163d8e3784c14610666578163ed3410d9146104bb578163ee4a745c14610114575063fab2c469146100f357600080fd5b346101105781600319360112610110576020906006549051908152f35b5080fd5b8284346104b857806003193601126104b85781516364141b8f60e11b81529160209182848681305afa9384156104ac57819461047d575b508151633d9205c160e01b815283818781305afa908115610473578291610446575b50825163747ba25160e01b81529284848881305afa93841561043c57839461040d575b50805163d321fe2960e01b81529585878981305afa9687156104035784976103d0575b508151639a5569a760e01b81529086828a81305afa91821561033a5785926103a1575b506101df6114bb565b936101e8611189565b96808061038f575b1561026b5750505083965b6102058882611459565b94811561025f5760648902908982046064148a15171561024c575060c099509061022e9161104f565b955b82519788528701528501526060840152608083015260a0820152f35b634e487b7160e01b815260118b52602490fd5b905060c0985095610230565b156103895761027991611153565b80421160001461037f5761029061029e9142611459565b610298611466565b9061104f565b825163fab2c46960e01b808252919088818c81305afa908115610375578791610344575b5081116102e3575b6102dd91506102d761106f565b90611176565b966101fb565b50825190815286818a81305afa801561033a578590610307575b6102dd91506102ca565b508681813d8311610333575b61031d8183611017565b8101031261032f576102dd90516102fd565b8480fd5b503d610313565b83513d87823e3d90fd5b90508881813d831161036e575b61035b8183611017565b8101031261036a57518b6102c2565b8680fd5b503d610351565b85513d89823e3d90fd5b5061029e84610290565b50610279565b5061039a8284611153565b42106101f0565b9091508681813d83116103c9575b6103b98183611017565b8101031261032f575190896101d6565b503d6103af565b9096508581813d83116103fc575b6103e88183611017565b810103126103f8575195886101b3565b8380fd5b503d6103de565b82513d86823e3d90fd5b61042e919450853d8711610435575b6104268183611017565b81019061113b565b9287610190565b503d61041c565b81513d85823e3d90fd5b90508381813d831161046c575b61045d8183611017565b8101031261011057518661016d565b503d610453565b83513d84823e3d90fd5b9093508281813d83116104a5575b6104958183611017565b810103126103f85751928561014b565b503d61048b565b509051903d90823e3d90fd5b80fd5b90503461066257610160366003190112610662576001600160a01b03918135838116919082900361032f576024359284841680940361065e5760443591606435906084359060a43597881680980361065a5760c43592610144359485151580960361065657600b549060ff8260081c1661061d57891561060f578815610601578a156105f357916101007ff011f72b3672910dc9373088af2f91da23a1fac3053dbc72a1f8ac254e88db66989694928c8b8f60c09b99978f87926bffffffffffffffffffffffff60a01b94858254161790558360015416176001558b600355558660055560025416176002558560065560e435600755610104356008556101243560095542600a5560ff87169061ffff19161717600b5581519586526020860152840152606083015260808201524260a0820152a480f35b835163d92e233d60e01b8152fd5b83516349e27cff60e01b8152fd5b835163c1ab6dc160e01b8152fd5b606490602085519162461bcd60e51b83528201526013602482015272105b1c9958591e481a5b9a5d1a585b1a5e9959606a1b6044820152fd5b8a80fd5b8880fd5b8580fd5b8280fd5b5050346101105781600319360112610110576020906007549051908152f35b5050346101105781600319360112610110576020906003549051908152f35b505034610110578160031936011261011057602090600a549051908152f35b5050346101105781600319360112610110576020906106e06114bb565b9051908152f35b5050346101105781600319360112610110576020906106e0611466565b5050346101105781600319360112610110576020906008549051908152f35b505034610110578160031936011261011057905490516001600160a01b039091168152602090f35b50503461011057816003193601126101105760209060ff600b541690519015158152f35b90503461066257826003193601126106625760209250549051908152f35b5050346101105781600319360112610110576020906005549051908152f35b9050346106625782600319360112610662578151631b88094d60e01b9081815260209384828581305afa918215610f62578692610f43575b506001600160a01b039182163303610f345780516364141b8f60e11b815285818681305afa908115610e46578791610f07575b508151633d9205c160e01b815286818781305afa908115610b77578891610eda575b50825163747ba25160e01b815287818881305afa908115610bb2578991610ebd575b508080610eab575b610e9b5715610e88576108768183611153565b421115610e7d5761088d6102909161089393611153565b42611459565b91815163fab2c46960e01b9081815287818881305afa908115610bb2578991610e50575b508411610df4575b508693825193633638de1360e21b9485815288818981305afa908115610cea578a91610dc7575b508111610d68575b508415610d585761090661090061106f565b86611176565b9483519085825288828981305afa8015610cea578a90610d25575b61092b9250611153565b8351639a5569a760e01b808252919089818a81305afa8015610cc35788908c90610cf4575b61095a9250611153565b9080600755816008554260095585519142917fb27a3a9979877b12952e21e91eeded34f5ecc7d5147544ca7b58fa9cd85e30be8d80a46321df0da760e01b815288818981305afa908115610cea579084918b91610ccd575b501684519083825289828a81305afa918215610cc3578b92610ca4575b50855190858b83019363a9059cbb60e01b855216602483015288604483015260448252608082019267ffffffffffffffff9280851084861117610c915760c0810185811085821117610c7e5789528c85527f5361666545524332303a206c6f772d6c6576656c2063616c6c206661696c656460a0820152518d9182919082855af1913d15610c70573d908111610c5d57918b91610a8b94938e8a5191610a7e86601f19601f8401160184611017565b825281943d92013e6117b2565b8051908982610beb575b505050835191825287828881305afa918215610bb2578992610bbc575b50835194855287858881305afa948515610bb2579088918a96610b81575b508451978891825281305afa958615610b77578896610b20575b507f47fc0b24db66a9957c289e5ea8eeaf0a13000b6173d67f6317229282154a2b7393949596835195865242908601521692a480f35b939495508684813d8311610b70575b610b398183611017565b81010312610b6c577f47fc0b24db66a9957c289e5ea8eeaf0a13000b6173d67f6317229282154a2b739351959493610aea565b8780fd5b503d610b2f565b83513d8a823e3d90fd5b8281939297503d8311610bab575b610b998183611017565b8101031261065a578790519438610ad0565b503d610b8f565b84513d8b823e3d90fd5b610bdd919250883d8a11610be4575b610bd58183611017565b81019061143a565b9038610ab2565b503d610bcb565b80610bfa93830101910161113b565b15610c0757388089610a95565b835162461bcd60e51b8152808801899052602a60248201527f5361666545524332303a204552433230206f7065726174696f6e20646964206e6044820152691bdd081cdd58d8d9595960b21b6064820152608490fd5b634e487b7160e01b8d5260418b5260248dfd5b50610a8b92916060916117b2565b634e487b7160e01b8f5260418d5260248ffd5b634e487b7160e01b8e5260418c5260248efd5b610cbc9192508a3d8c11610be457610bd58183611017565b90386109cf565b86513d8d823e3d90fd5b610ce491508a3d8c11610be457610bd58183611017565b386109b2565b85513d8c823e3d90fd5b50508981813d8311610d1e575b610d0b8183611017565b81010312610656578761095a9151610950565b503d610d01565b508882813d8311610d51575b610d3b8183611017565b81010312610d4d5761092b9151610921565b8980fd5b503d610d31565b8251634e4f9d1d60e11b81528690fd5b835185815291955087828881305afa908115610bb2578991610d96575b610d8f9250611459565b93386108ee565b90508782813d8311610dc0575b610dad8183611017565b8101031261065a57610d8f915190610d85565b503d610da3565b90508881813d8311610ded575b610dde8183611017565b81010312610d4d5751386108e6565b503d610dd4565b909250815190815285818681305afa908115610e46578791610e19575b5091386108bf565b90508581813d8311610e3f575b610e308183611017565b8101031261036a575138610e11565b503d610e26565b82513d89823e3d90fd5b90508781813d8311610e76575b610e678183611017565b8101031261065a5751386108b7565b503d610e5d565b505061089386610290565b50610e966108939142611459565b610290565b8351636c09fbc960e11b81528790fd5b50610eb68284611153565b4210610863565b610ed49150883d8a11610435576104268183611017565b3861085b565b90508681813d8311610f00575b610ef18183611017565b81010312610b6c575138610839565b503d610ee7565b90508581813d8311610f2d575b610f1e8183611017565b8101031261036a575138610817565b503d610f14565b5163a1bfc65b60e01b81528390fd5b610f5b919250853d8711610be457610bd58183611017565b90386107e4565b81513d88823e3d90fd5b5050346101105781600319360112610110576020906009549051908152f35b5050346101105781600319360112610110576020906106e0611189565b50503461011057816003193601126101105760015490516001600160a01b039091168152602090f35b50503461011057816003193601126101105760025490516001600160a01b039091168152602090f35b5050346101105781600319360112610110576020906106e061106f565b90601f8019910116810190811067ffffffffffffffff82111761103957604052565b634e487b7160e01b600052604160045260246000fd5b8115611059570490565b634e487b7160e01b600052601260045260246000fd5b60405163d321fe2960e01b815260208082600481305afa9182156111005760009261110c575b5060405163fab2c46960e01b8152918183600481305afa918215611100576000926110c9575b506110c6925061104f565b90565b90915082813d83116110f9575b6110e08183611017565b810103126110f4576110c6915190386110bb565b600080fd5b503d6110d6565b6040513d6000823e3d90fd5b9080925081813d8311611134575b6111248183611017565b810103126110f457519038611095565b503d61111a565b908160209103126110f4575180151581036110f45790565b9190820180921161116057565b634e487b7160e01b600052601160045260246000fd5b8181029291811591840414171561116057565b604080516364141b8f60e11b81526020919060049083818381305afa90811561142f57600091611402575b508251633d9205c160e01b81529084828481305afa9182156113f7576000926113c8575b50835163747ba25160e01b81529185838581305afa9283156113bd5760009361139e575b508451633638de1360e21b808252939087818781305afa90811561139357600091611366575b50865163fab2c46960e01b81529088828881305afa91821561135b5760009261132c575b50101561132057808061130e575b6112fe57156112f75761126691611153565b935b835191825280828481305afa9384156112ed57506000936112bd575b5050600182018092116112a85750906112a26110c6926102d7611466565b90611153565b601190634e487b7160e01b6000525260246000fd5b9080929350813d83116112e6575b6112d58183611017565b810103126110f45751903880611284565b503d6112cb565b513d6000823e3d90fd5b5093611268565b5093509150506110c69250611153565b506113198284611153565b4210611254565b50505050505050600090565b9091508881813d8311611354575b6113448183611017565b810103126110f457519038611246565b503d61133a565b88513d6000823e3d90fd5b90508781813d831161138c575b61137d8183611017565b810103126110f4575138611222565b503d611373565b87513d6000823e3d90fd5b6113b6919350863d8811610435576104268183611017565b91386111fc565b85513d6000823e3d90fd5b90918582813d83116113f0575b6113df8183611017565b810103126104b857505190386111d8565b503d6113d5565b84513d6000823e3d90fd5b908482813d8311611428575b6114188183611017565b810103126104b8575051386111b4565b503d61140e565b83513d6000823e3d90fd5b908160209103126110f457516001600160a01b03811681036110f45790565b9190820391821161116057565b60405163602bc62b60e01b815260208082600481305afa9182156111005760009261110c575060405163fab2c46960e01b8152918183600481305afa918215611100576000926110c957506110c6925061104f565b604080516364141b8f60e11b815260049160209182818581305afa9081156116cc57600091611785575b508151633d9205c160e01b815283818681305afa90811561142f57600091611758575b50825163747ba25160e01b815284818781305afa9081156113f75760009161173b575b508080611729575b61171e5715611710576115468183611153565b4211156117045761088d6102909161155d93611153565b92815163fab2c46960e01b9081815284818481305afa9081156113f7576000916116d7575b508511611679575b508151633638de1360e21b8082526000949182818581305afa90811561166f578691611642575b5086116115ca575b505050506110c691506102d761106f565b81908495939451948591825281305afa93841561163757508193611602575b5050506115f9906110c692611459565b388080806115b9565b9091809350813d8311611630575b61161a8183611017565b810103126104b8575051816115f96110c66115e9565b503d611610565b51913d9150823e3d90fd5b90508281813d8311611668575b6116598183611017565b8101031261065e5751386115b1565b503d61164f565b85513d88823e3d90fd5b909350815190815282818581305afa9081156116cc5760009161169f575b50923861158a565b90508281813d83116116c5575b6116b68183611017565b810103126110f4575138611697565b503d6116ac565b82513d6000823e3d90fd5b90508481813d83116116fd575b6116ee8183611017565b810103126110f4575138611582565b503d6116e4565b505061155d6000610290565b50610e9661155d9142611459565b505050505050600090565b506117348284611153565b4210611533565b6117529150853d8711610435576104268183611017565b3861152b565b908482813d831161177e575b61176e8183611017565b810103126104b857505138611508565b503d611764565b908382813d83116117ab575b61179b8183611017565b810103126104b8575051386114e5565b503d611791565b9192901561181457508151156117c6575090565b3b156117cf5790565b60405162461bcd60e51b815260206004820152601d60248201527f416464726573733a2063616c6c20746f206e6f6e2d636f6e74726163740000006044820152606490fd5b8251909150156118275750805190602001fd5b6040519062461bcd60e51b82528160208060048301528251908160248401526000935b82851061186d575050604492506000838284010152601f80199101168101030190fd5b848101820151868601604401529381019385935061184a56fea2646970667358221220c50af08313fbdf2ee3fcd067a02f16abe01a4b7b1906584418e2c7f2e4eae4fc64736f6c63430008180033","linkReferences":{}},"methodIdentifiers":{"allLocks(uint256)":"63d5a3d9","createVestingLock(address,uint256,uint256,uint256,address,uint256,bool)":"2316cd57","feeAdmin()":"30a402c0","feeCollector()":"c415b95c","getRecipientLocks(address)":"167490fb","getUserLocks(address)":"23a35de9","lockFeeAmountVesting()":"7112aa47","lockFeeToken()":"11df3155","recipientLocks(address,uint256)":"8d81dbb5","setTokenWhitelist(address,bool)":"c9bcc97e","totalLocks()":"d2d18eac","updateFeeAdmin(address)":"142b52b9","updateFeeCollector(address)":"d2c35ce8","updateLockFeeToken(address)":"76b9d590","updatelockFeeAmountVesting(uint256)":"3fa0843b","userLocks(address,uint256)":"aa33fedb","vestingImpl()":"821bf0b1","whitelistedTokens(address)":"daf9c210"},"id":34}