{"abi":[{"type":"constructor","inputs":[],"stateMutability":"nonpayable"},{"type":"function","name":"allLocks","inputs":[{"name":"","type":"uint256","internalType":"uint256"}],"outputs":[{"name":"","type":"address","internalType":"address"}],"stateMutability":"view"},{"type":"function","name":"createVestingLock","inputs":[{"name":"token","type":"address","internalType":"address"},{"name":"amount","type":"uint256","internalType":"uint256"},{"name":"startTime","type":"uint256","internalType":"uint256"},{"name":"unlockTime","type":"uint256","internalType":"uint256"},{"name":"cliffPeriod","type":"uint256","internalType":"uint256"},{"name":"recipient","type":"address","internalType":"address"},{"name":"slots","type":"uint256","internalType":"uint256"},{"name":"enableCliff","type":"bool","internalType":"bool"}],"outputs":[{"name":"lock","type":"address","internalType":"address"}],"stateMutability":"nonpayable"},{"type":"function","name":"feeAdmin","inputs":[],"outputs":[{"name":"","type":"address","internalType":"address"}],"stateMutability":"view"},{"type":"function","name":"feeCollector","inputs":[],"outputs":[{"name":"","type":"address","internalType":"address"}],"stateMutability":"view"},{"type":"function","name":"getRecipientLocks","inputs":[{"name":"recipient","type":"address","internalType":"address"}],"outputs":[{"name":"","type":"address[]","internalType":"address[]"}],"stateMutability":"view"},{"type":"function","name":"getUserLocks","inputs":[{"name":"user","type":"address","internalType":"address"}],"outputs":[{"name":"","type":"address[]","internalType":"address[]"}],"stateMutability":"view"},{"type":"function","name":"lockFeeAmountVesting","inputs":[],"outputs":[{"name":"","type":"uint256","internalType":"uint256"}],"stateMutability":"view"},{"type":"function","name":"lockFeeToken","inputs":[],"outputs":[{"name":"","type":"address","internalType":"contract IERC20"}],"stateMutability":"view"},{"type":"function","name":"recipientLocks","inputs":[{"name":"","type":"address","internalType":"address"},{"name":"","type":"uint256","internalType":"uint256"}],"outputs":[{"name":"","type":"address","internalType":"address"}],"stateMutability":"view"},{"type":"function","name":"setTokenWhitelist","inputs":[{"name":"_token","type":"address","internalType":"address"},{"name":"_status","type":"bool","internalType":"bool"}],"outputs":[],"stateMutability":"nonpayable"},{"type":"function","name":"totalLocks","inputs":[],"outputs":[{"name":"","type":"uint256","internalType":"uint256"}],"stateMutability":"view"},{"type":"function","name":"updateFeeAdmin","inputs":[{"name":"_newFeeAdmin","type":"address","internalType":"address"}],"outputs":[],"stateMutability":"nonpayable"},{"type":"function","name":"updateFeeCollector","inputs":[{"name":"_newFeeCollector","type":"address","internalType":"address"}],"outputs":[],"stateMutability":"nonpayable"},{"type":"function","name":"updateLockFeeToken","inputs":[{"name":"_newFeeToken","type":"address","internalType":"contract IERC20"}],"outputs":[],"stateMutability":"nonpayable"},{"type":"function","name":"updatelockFeeAmountVesting","inputs":[{"name":"_newFee","type":"uint256","internalType":"uint256"}],"outputs":[],"stateMutability":"nonpayable"},{"type":"function","name":"userLocks","inputs":[{"name":"","type":"address","internalType":"address"},{"name":"","type":"uint256","internalType":"uint256"}],"outputs":[{"name":"","type":"address","internalType":"address"}],"stateMutability":"view"},{"type":"function","name":"vestingImpl","inputs":[],"outputs":[{"name":"","type":"address","internalType":"address"}],"stateMutability":"view"},{"type":"function","name":"whitelistedTokens","inputs":[{"name":"","type":"address","internalType":"address"}],"outputs":[{"name":"","type":"bool","internalType":"bool"}],"stateMutability":"view"},{"type":"event","name":"FeeAdminUpdated","inputs":[{"name":"newFeeAdmin","type":"address","indexed":true,"internalType":"address"}],"anonymous":false},{"type":"event","name":"FeeAmountVestingUpdated","inputs":[{"name":"newFee","type":"uint256","indexed":true,"internalType":"uint256"}],"anonymous":false},{"type":"event","name":"FeeCollectorUpdated","inputs":[{"name":"newFeeCollector","type":"address","indexed":true,"internalType":"address"}],"anonymous":false},{"type":"event","name":"FeeTokenUpdated","inputs":[{"name":"newFeeToken","type":"address","indexed":true,"internalType":"contract IERC20"}],"anonymous":false},{"type":"event","name":"LockCreated","inputs":[{"name":"lock","type":"address","indexed":true,"internalType":"address"},{"name":"owner","type":"address","indexed":true,"internalType":"address"},{"name":"token","type":"address","indexed":true,"internalType":"address"},{"name":"amount","type":"uint256","indexed":false,"internalType":"uint256"}],"anonymous":false},{"type":"event","name":"TokenWhitelisted","inputs":[{"name":"token","type":"address","indexed":true,"internalType":"address"},{"name":"status","type":"bool","indexed":true,"internalType":"bool"}],"anonymous":false},{"type":"error","name":"DeploymentFailed","inputs":[]},{"type":"error","name":"NotFeeAdmin","inputs":[]},{"type":"error","name":"ZeroAddress","inputs":[]}],"bytecode":{"object":"0x60a080604052346100db576001600055732791bca1f2de4661ed88a30c99a7a9449aa841747380ab0cb57106816b8eff9401418edb0cb18ed5c760018060a01b0319908082600154161760015581600254161760025560035416176003556302faf080600455611c8680820182811060018060401b038211176100c5578291610e31833903906000f080156100b9576001600160a01b0316608052604051610d5090816100e1823960805181818161035401526105140152f35b6040513d6000823e3d90fd5b634e487b7160e01b600052604160045260246000fd5b600080fdfe608060408181526004918236101561001657600080fd5b600092833560e01c91826311df3155146109a457508163142b52b914610922578163167490fb146108a557816323a35de91461081a57816330a402c0146107f15781633fa0843b1461079d57816352b954681461048157816363d5a3d9146104265781637112aa471461040857816376b9d59014610383578163821bf0b11461033f5781638d81dbb5146102f5578163aa33fedb14610299578163c415b95c14610270578163c9bcc97e146101dd578163d2c35ce81461014957508063d2d18eac1461012b5763daf9c210146100eb57600080fd5b346101275760203660031901126101275760209160ff9082906001600160a01b036101146109c9565b1681526005855220541690519015158152f35b5080fd5b50346101275781600319360112610127576020906008549051908152f35b9050346101d95760203660031901126101d9576101646109c9565b6001546001600160a01b039190821633036101c957169182156101bc575050600280546001600160a01b031916821790557fe5693914d19c789bdee50a362998c0bc8d035a835f9871da5d51152f0582c34f8280a280f35b5163d92e233d60e01b8152fd5b835163c99d1aaf60e01b81528390fd5b8280fd5b919050346101d957806003193601126101d9576101f86109c9565b916024359283151580940361026b576001546001600160a01b0392908316330361025d575016908184526005602052832060ff1981541660ff84161790557fef81a9943b96c8df4ef243401c9bf5159146166211356898b52d382086168d928380a380f35b835163c99d1aaf60e01b8152fd5b600080fd5b50503461012757816003193601126101275760025490516001600160a01b039091168152602090f35b5050346101275780600319360112610127576102b36109c9565b6001600160a01b0390811683526006602052818320805460243594908510156102f257506020936102e391610a24565b92905490519260031b1c168152f35b80fd5b50503461012757806003193601126101275761030f6109c9565b6001600160a01b0390811683526007602052818320805460243594908510156102f257506020936102e391610a24565b505034610127578160031936011261012757517f00000000000000000000000000000000000000000000000000000000000000006001600160a01b03168152602090f35b9050346101d95760203660031901126101d95780356001600160a01b038181169391849003610404576001541633036103f75782156101bc575050600380546001600160a01b031916821790557fa0ca04e9956a42929fa24e6299bb6622c8703ac575c61b33e01fb170100ee6dc8280a280f35b5163c99d1aaf60e01b8152fd5b8480fd5b9050346101d957826003193601126101d95760209250549051908152f35b9050346101d95760203660031901126101d957356008548110156101d95760086000527ff3f7a9fe364faab93b216da50a3214154f22a0a2b415b23a84c8169e8b636ee3015490516001600160a01b03909116815260209150f35b838334610127576101003660031901126101275761049d6109c9565b9260249081359060a4359260018060a01b03958685168095036102f25760e435908115158092036102f257865195606087019867ffffffffffffffff998881108b82111761078b578952604435885260209a8b89019a6064358c528a8a019560843587528d6e5af43d82803e903d91602b57fd5bf37f0000000000000000000000000000000000000000000000000000000000000000763d602d80600a3d3981f3363d3d373d3d3d363d7300000062ffffff8260881c1617895260781b1790526037600987f0968488169d8e1561074f578e3b1561074b57858e5195631111a84b60e21b8752338d880152169c8d8b8701528c60448701525160648601525160848501525160a48401528460c484015260c43560e484015285610104840152856101248401528561014484015261016483015284828d81835a9261018493f180156107415761071c575b5050833b1561070c5791889184936106048961063897338d610ac5565b89835260058d5260ff8484205416156106ee575b5033825260068c5261062c84848420610a8a565b815260078b5220610a8a565b60085491600160401b8310156106db5760018301806008558310156106c857505060086000527ff3f7a9fe364faab93b216da50a3214154f22a0a2b415b23a84c8169e8b636ee301846bffffffffffffffffffffffff60a01b8254161790558251908152837facbc640c2f760ed95320d76df493f521e14d874ceeed1d009575a6f2ade0bf02863393a451908152f35b603290634e487b7160e01b600052526000fd5b604190634e487b7160e01b600052526000fd5b80610706916003541690600254168954913390610ac5565b8c610618565b8851633011642560e01b81528690fd5b819492941161072f578952918b806105e7565b634e487b7160e01b8252604187528582fd5b8b513d87823e3d90fd5b8780fd5b8f8b8f8c606493601692519362461bcd60e51b855284015282015275115490cc4c4d8dce8818dc99585d194819985a5b195960521b6044820152fd5b634e487b7160e01b8452604187528584fd5b9050346101d95760203660031901126101d957600154813592906001600160a01b031633036103f757508190557f637fd561bf09944892a3d28baf27003e2473672c98e630ab942a2e67c51010668280a280f35b50503461012757816003193601126101275760015490516001600160a01b039091168152602090f35b5050346101275760209060206003193601126101d9576001600160a01b0392836108426109c9565b16815260066020528181209382519081946020875493848152019684526020842093915b83831061088c57610888878761087e828c0383610a52565b51918291826109df565b0390f35b8454811688529681019660019485019490920191610866565b5050346101275760209060206003193601126101d9576001600160a01b0392836108cd6109c9565b16815260076020528181209382519081946020875493848152019684526020842093915b83831061090957610888878761087e828c0383610a52565b84548116885296810196600194850194909201916108f1565b9050346101d95760203660031901126101d95761093d6109c9565b60015491906001600160a01b0390818416330361099457169283156101bc5750506001600160a01b03191681176001557f3e918b61b757ffa05ce35125f7a0015edde866bd42564368a3ef5dd2657278508280a280f35b845163c99d1aaf60e01b81528390fd5b8490346101275781600319360112610127576003546001600160a01b03168152602090f35b600435906001600160a01b038216820361026b57565b602090602060408183019282815285518094520193019160005b828110610a07575050505090565b83516001600160a01b0316855293810193928101926001016109f9565b8054821015610a3c5760005260206000200190600090565b634e487b7160e01b600052603260045260246000fd5b90601f8019910116810190811067ffffffffffffffff821117610a7457604052565b634e487b7160e01b600052604160045260246000fd5b8054600160401b811015610a7457610aa791600182018155610a24565b60018060a09493941b038084549260031b9316831b921b1916179055565b6040516323b872dd60e01b60208083019182526001600160a01b039485166024840152948416604483015260648083019690965294815292939260a081019267ffffffffffffffff9283851183861017610a7457169060e0810184811084821117610a74576040528584527f5361666545524332303a206c6f772d6c6576656c2063616c6c206661696c656460c0820152600080958192519082855af1903d15610c3b573d928311610c275790610b9c93929160405192610b8f88601f19601f8401160185610a52565b83523d868885013e610c46565b805180610baa575b50505050565b8184918101031261012757820151908115918215036102f25750610bd057808080610ba4565b6084906040519062461bcd60e51b82526004820152602a60248201527f5361666545524332303a204552433230206f7065726174696f6e20646964206e6044820152691bdd081cdd58d8d9595960b21b6064820152fd5b634e487b7160e01b85526041600452602485fd5b90610b9c9392506060915b91929015610ca85750815115610c5a575090565b3b15610c635790565b60405162461bcd60e51b815260206004820152601d60248201527f416464726573733a2063616c6c20746f206e6f6e2d636f6e74726163740000006044820152606490fd5b825190915015610cbb5750805190602001fd5b6040519062461bcd60e51b82528160208060048301528251908160248401526000935b828510610d01575050604492506000838284010152601f80199101168101030190fd5b8481018201518686016044015293810193859350610cde56fea2646970667358221220f94d0363b21b5b4c1902256cc5ee329c539a80ac4d6d8d491a893b2f4f3e1f3b64736f6c634300081800336080806040523461001657611c6a908161001c8239f35b600080fdfe6040608081526004908136101561001557600080fd5b600091823560e01c908162728f76146111ab5781631b88094d1461118257816321df0da71461115a5781633660218c1461113d57816338adde501461111e5781633ccfd60b146108b95781633d9205c11461089a5781634446a12c1461069f578163602bc62b14610680578163747ba2511461065c578163893d20e8146106335781639a5569a714610614578163b8e50cab146105f7578163c354bd6e146105d3578163c828371e146105b6578163d321fe2914610597578163d8e3784c14610578578163ee4a745c14610114575063fab2c469146100f357600080fd5b346101105781600319360112610110576020906007549051908152f35b5080fd5b8391503461011057816003193601126101105782516364141b8f60e11b815260209182828281305afa91821561056e57849261053f575b508451633d9205c160e01b815283818381305afa908115610535578591610504575b50855163747ba25160e01b81529584878481305afa9687156104fa5786976104cb575b50805163d321fe2960e01b81529585878581305afa9687156104bf57819761048c575b508151639a5569a760e01b81529086828681305afa918215610480578192610451575b506101df6117b3565b936101e861133a565b96829a8080610448575b1561032357505050610205818099611600565b94835163fab2c46960e01b9081815289818481305afa9081156103195784916102e8575b50156102dc5760648b029a808c04606414901517156102c95788908551928391825281305afa9182156102be578092610289575b505061026b9060c099611200565b955b82519788528701528501526060840152608083015260a0820152f35b9091508782813d83116102b7575b6102a181836111c8565b810103126102b45750518861026b61025d565b80fd5b503d610297565b8451903d90823e3d90fd5b634e487b7160e01b835260118252602483fd5b505060c098509561026d565b90508981813d8311610312575b6102ff81836111c8565b8101031261030e57518c610229565b8380fd5b503d6102f5565b86513d86823e3d90fd5b929a5090911561044157505b804211600014610437576103466103549142611600565b61034e61160d565b90611200565b97825163fab2c46960e01b9081815288818881305afa90811561042d5783916103fc575b508a1161039c575b5061020561039561038f611220565b8b611327565b8099611600565b909850825190815286818681305afa9081156103f25789916103c1575b509789610380565b90508681813d83116103eb575b6103d881836111c8565b810103126103e75751896103b9565b8880fd5b503d6103ce565b83513d8b823e3d90fd5b90508881813d8311610426575b61041381836111c8565b8101031261042257518b610378565b8280fd5b503d610409565b85513d85823e3d90fd5b5061035488610346565b905061032f565b508242106101f2565b9091508681813d8311610479575b61046981836111c8565b81010312610110575190896101d6565b503d61045f565b508251903d90823e3d90fd5b9096508581813d83116104b8575b6104a481836111c8565b810103126104b4575195886101b3565b8680fd5b503d61049a565b509051903d90823e3d90fd5b6104ec919750853d87116104f3575b6104e481836111c8565b8101906112ec565b9587610190565b503d6104da565b81513d88823e3d90fd5b90508381813d831161052e575b61051b81836111c8565b8101031261052a57518661016d565b8480fd5b503d610511565b86513d87823e3d90fd5b9091508281813d8311610567575b61055781836111c8565b8101031261030e5751908561014b565b503d61054d565b85513d86823e3d90fd5b5050346101105781600319360112610110576020906008549051908152f35b5050346101105781600319360112610110576020906006549051908152f35b505034610110578160031936011261011057602091549051908152f35b5050346101105781600319360112610110576020906105f06117b3565b9051908152f35b5050346101105781600319360112610110576020906105f061160d565b5050346101105781600319360112610110576020906009549051908152f35b50503461011057816003193601126101105760035490516001600160a01b039091168152602090f35b50503461011057816003193601126101105760209060ff600b541690519015158152f35b5050346101105781600319360112610110576020906001549051908152f35b9190503461042257610180366003190112610422576001600160a01b03918035838116919082900361052a5760243592848416809403610896576044359160603660631901126104b4578151916060830183811067ffffffffffffffff8211176108835781526064358352602083019160843583528184019060a435825260c43598891680990361087f5760e43593610164359586151580970361087b57600b549260ff8460081c16610842578a15610834578915610826578b1561081857936101007ff011f72b3672910dc9373088af2f91da23a1fac3053dbc72a1f8ac254e88db669997948d8f9894958d968f9960c09d9a6bffffffffffffffffffffffff60a01b998a6003541617600355898254161790558b60065551809a55519384600155519586600255600554161760055585600755610104356008556101243560095561014435600a5560ff87169061ffff19161717600b55815196875260208701528501526060840152608083015260a0820152a480f35b855163d92e233d60e01b8152fd5b85516349e27cff60e01b8152fd5b855163c1ab6dc160e01b8152fd5b606490602087519162461bcd60e51b83528201526013602482015272105b1c9958591e481a5b9a5d1a585b1a5e9959606a1b6044820152fd5b8b80fd5b8980fd5b634e487b7160e01b895260418352602489fd5b8580fd5b5050346101105781600319360112610110576020906002549051908152f35b9050346104225782600319360112610422578151631b88094d60e01b9081815260209384828581305afa9182156104fa5786926110ff575b506001600160a01b0391821633036110f05780516364141b8f60e11b815285818681305afa9081156110055787916110c3575b508151633d9205c160e01b81529086828781305afa918215610cce578892611094575b50825163747ba25160e01b815287818881305afa908115610d09578991611077575b50808061106e575b61105e571561104e57508042116000146110475761098f9042611600565b61099761160d565b801561103e576109a691611200565b915b815163fab2c46960e01b808252908488828981305afa918215610e41578a9261100f575b5011610fb3575b508693825193633638de1360e21b9485815288818981305afa908115610e41578a91610f86575b508111610f2b575b835185815288818981305afa908115610e41578a91610efe575b508110610ef6575b83519085825288828981305afa918215610e41578a92610ec7575b5014610ebf575b8415610eaf57610a5d610a57611220565b86611327565b9483519085825288828981305afa8015610e41578a90610e80575b610a829250611304565b8351639a5569a760e01b808252919089818a81305afa8015610e1a5788908c90610e4b575b610ab19250611304565b90806008558160095542600a5585519142917fb27a3a9979877b12952e21e91eeded34f5ecc7d5147544ca7b58fa9cd85e30be8d80a46321df0da760e01b815288818981305afa908115610e41579084918b91610e24575b501684519083825289828a81305afa918215610e1a578b92610dfb575b50855190858b83019363a9059cbb60e01b855216602483015288604483015260448252608082019267ffffffffffffffff9280851084861117610de85760c0810185811085821117610dd55789528c85527f5361666545524332303a206c6f772d6c6576656c2063616c6c206661696c656460a0820152518d9182919082855af1913d15610dc7573d908111610db457918b91610be294938e8a5191610bd586601f19601f84011601846111c8565b825281943d92013e611b60565b8051908982610d42575b505050835191825287828881305afa918215610d09578992610d13575b50835194855287858881305afa948515610d09579088918a96610cd8575b508451978891825281305afa958615610cce578896610c77575b507f47fc0b24db66a9957c289e5ea8eeaf0a13000b6173d67f6317229282154a2b7393949596835195865242908601521692a480f35b939495508684813d8311610cc7575b610c9081836111c8565b81010312610cc3577f47fc0b24db66a9957c289e5ea8eeaf0a13000b6173d67f6317229282154a2b739351959493610c41565b8780fd5b503d610c86565b83513d8a823e3d90fd5b8281939297503d8311610d02575b610cf081836111c8565b810103126103e7578790519438610c27565b503d610ce6565b84513d8b823e3d90fd5b610d34919250883d8a11610d3b575b610d2c81836111c8565b8101906115e1565b9038610c09565b503d610d22565b80610d519383010191016112ec565b15610d5e57388089610bec565b835162461bcd60e51b8152808801899052602a60248201527f5361666545524332303a204552433230206f7065726174696f6e20646964206e6044820152691bdd081cdd58d8d9595960b21b6064820152608490fd5b634e487b7160e01b8d5260418b5260248dfd5b50610be29291606091611b60565b634e487b7160e01b8f5260418d5260248ffd5b634e487b7160e01b8e5260418c5260248efd5b610e139192508a3d8c11610d3b57610d2c81836111c8565b9038610b26565b86513d8d823e3d90fd5b610e3b91508a3d8c11610d3b57610d2c81836111c8565b38610b09565b85513d8c823e3d90fd5b50508981813d8311610e79575b610e6281836111c8565b81010312610e755787610ab19151610aa7565b8a80fd5b503d610e58565b508882813d8311610ea8575b610e9681836111c8565b8101031261087f57610a829151610a78565b503d610e8c565b8251634e4f9d1d60e11b81528690fd5b879450610a46565b9091508881813d8311610eef575b610edf81836111c8565b8101031261087f57519038610a3f565b503d610ed5565b945084610a24565b90508881813d8311610f24575b610f1581836111c8565b8101031261087f575138610a1c565b503d610f0b565b9450825184815287818881305afa8015610d09578990610f57575b610f51915086611600565b94610a02565b508781813d8311610f7f575b610f6d81836111c8565b810103126103e757610f519051610f46565b503d610f63565b90508881813d8311610fac575b610f9d81836111c8565b8101031261087f5751386109fa565b503d610f93565b909250815190815285818681305afa908115611005578791610fd8575b5091386109d3565b90508581813d8311610ffe575b610fef81836111c8565b810103126104b4575138610fd0565b503d610fe5565b82513d89823e3d90fd5b9091508881813d8311611037575b61102781836111c8565b8101031261087f575190386109cc565b503d61101d565b505085916109a8565b508561098f565b611059915042611600565b61098f565b8351636c09fbc960e11b81528790fd5b50824210610971565b61108e9150883d8a116104f3576104e481836111c8565b38610969565b9091508681813d83116110bc575b6110ac81836111c8565b81010312610cc357519038610947565b503d6110a2565b90508581813d83116110e9575b6110da81836111c8565b810103126104b4575138610924565b503d6110d0565b5163a1bfc65b60e01b81528390fd5b611117919250853d8711610d3b57610d2c81836111c8565b90386108f1565b505034610110578160031936011261011057602090600a549051908152f35b5050346101105781600319360112610110576020906105f061133a565b9050346104225782600319360112610422575490516001600160a01b03909116815260209150f35b50503461011057816003193601126101105760055490516001600160a01b039091168152602090f35b5050346101105781600319360112610110576020906105f0611220565b90601f8019910116810190811067ffffffffffffffff8211176111ea57604052565b634e487b7160e01b600052604160045260246000fd5b811561120a570490565b634e487b7160e01b600052601260045260246000fd5b60405163d321fe2960e01b815260208082600481305afa9182156112b1576000926112bd575b5060405163fab2c46960e01b8152918183600481305afa9182156112b15760009261127a575b506112779250611200565b90565b90915082813d83116112aa575b61129181836111c8565b810103126112a5576112779151903861126c565b600080fd5b503d611287565b6040513d6000823e3d90fd5b9080925081813d83116112e5575b6112d581836111c8565b810103126112a557519038611246565b503d6112cb565b908160209103126112a5575180151581036112a55790565b9190820180921161131157565b634e487b7160e01b600052601160045260246000fd5b8181029291811591840414171561131157565b604080516364141b8f60e11b81526020919060049083818381305afa9081156115d6576000916115a9575b508251633d9205c160e01b815284818481305afa90811561159e57600091611571575b50835163747ba25160e01b81529185838581305afa92831561156657600093611547575b508451633638de1360e21b808252939087818781305afa90811561153c5760009161150f575b50865163fab2c46960e01b81529088828881305afa918215611504576000926114d5575b5010156114c95780806114c0575b6114ad57156114a55750935b835191825280828481305afa93841561149b575060009361146b575b5050600182018092116114565750906114506112779261144a61160d565b90611327565b90611304565b601190634e487b7160e01b6000525260246000fd5b9080929350813d8311611494575b61148381836111c8565b810103126112a5575190388061142c565b503d611479565b513d6000823e3d90fd5b905093611410565b505092505050611277915061145061160d565b50824210611404565b50505050505050600090565b9091508881813d83116114fd575b6114ed81836111c8565b810103126112a5575190386113f6565b503d6114e3565b88513d6000823e3d90fd5b90508781813d8311611535575b61152681836111c8565b810103126112a55751386113d2565b503d61151c565b87513d6000823e3d90fd5b61155f919350863d88116104f3576104e481836111c8565b91386113ac565b85513d6000823e3d90fd5b908582813d8311611597575b61158781836111c8565b810103126102b457505138611388565b503d61157d565b84513d6000823e3d90fd5b90508381813d83116115cf575b6115c081836111c8565b810103126112a5575138611365565b503d6115b6565b83513d6000823e3d90fd5b908160209103126112a557516001600160a01b03811681036112a55790565b9190820391821161131157565b6040805163747ba25160e01b81526004919060209081818581305afa9081156115d657600091611796575b501561171a57815163602bc62b60e01b815281818581305afa9081156115d6576000916116ed575b508251633d9205c160e01b81529082828681305afa90811561159e576000916116bc575b61168e9250611600565b90808351809563fab2c46960e01b825281305afa92831561149b575060009261127a57506112779250611200565b90508282813d83116116e6575b6116d381836111c8565b810103126112a55761168e915190611684565b503d6116c9565b90508181813d8311611713575b61170481836111c8565b810103126112a5575138611660565b503d6116fa565b815163602bc62b60e01b815281818581305afa9081156115d657600091611769575b5082516364141b8f60e11b81529082828681305afa90811561159e576000916116bc5761168e9250611600565b90508181813d831161178f575b61178081836111c8565b810103126112a557513861173c565b503d611776565b6117ad9150823d84116104f3576104e481836111c8565b38611638565b604080516364141b8f60e11b81526020919060049083818381305afa9081156115d657600091611b33575b508251633d9205c160e01b81529084828481305afa91821561159e57600092611b04575b50835163747ba25160e01b815285818581305afa90811561156657600091611ae7575b508080611ade575b611ad35715611ac35750804211600014611abb5761184b9042611600565b61185361160d565b8015611ab15761186291611200565b905b825163fab2c46960e01b808252908386828581305afa91821561198257600092611a82575b5011611a2f575b508251633638de1360e21b8082526000959182818581305afa908115611a255787916119f8575b50841161198d575b845181815282818581305afa90811561198257600091611955575b50841061194b575b81908551938491825281305afa93841561149b575060009361191b575b505014611913575b6112779061144a611220565b506000611907565b9080929350813d8311611944575b61193381836111c8565b810103126112a557519038806118ff565b503d611929565b92945084926118e2565b90508281813d831161197b575b61196c81836111c8565b810103126112a55751386118da565b503d611962565b86513d6000823e3d90fd5b9484519086825282828581305afa9081156119ed5780916119bb575b506119b5915084611600565b946118bf565b90508282813d83116119e6575b6119d281836111c8565b810103126102b457506119b59051386119a9565b503d6119c8565b8651903d90823e3d90fd5b90508281813d8311611a1e575b611a0f81836111c8565b810103126104b45751386118b7565b503d611a05565b86513d89823e3d90fd5b909150825190815283818381305afa9081156115d657600091611a55575b509038611890565b90508381813d8311611a7b575b611a6c81836111c8565b810103126112a5575138611a4d565b503d611a62565b9091508681813d8311611aaa575b611a9a81836111c8565b810103126112a557519038611889565b503d611a90565b5050600090611864565b50600061184b565b611ace915042611600565b61184b565b505050505050600090565b5082421061182d565b611afe9150863d88116104f3576104e481836111c8565b38611825565b90918582813d8311611b2c575b611b1b81836111c8565b810103126102b45750519038611802565b503d611b11565b90508381813d8311611b59575b611b4a81836111c8565b810103126112a55751386117de565b503d611b40565b91929015611bc25750815115611b74575090565b3b15611b7d5790565b60405162461bcd60e51b815260206004820152601d60248201527f416464726573733a2063616c6c20746f206e6f6e2d636f6e74726163740000006044820152606490fd5b825190915015611bd55750805190602001fd5b6040519062461bcd60e51b82528160208060048301528251908160248401526000935b828510611c1b575050604492506000838284010152601f80199101168101030190fd5b8481018201518686016044015293810193859350611bf856fea26469706673582212207c0a64c614b1edd9a783ecfe5d951e2568b24cbde8ee76ffb975efadfe954b1564736f6c63430008180033","linkReferences":{}},"methodIdentifiers":{"allLocks(uint256)":"63d5a3d9","createVestingLock(address,uint256,uint256,uint256,uint256,address,uint256,bool)":"52b95468","feeAdmin()":"30a402c0","feeCollector()":"c415b95c","getRecipientLocks(address)":"167490fb","getUserLocks(address)":"23a35de9","lockFeeAmountVesting()":"7112aa47","lockFeeToken()":"11df3155","recipientLocks(address,uint256)":"8d81dbb5","setTokenWhitelist(address,bool)":"c9bcc97e","totalLocks()":"d2d18eac","updateFeeAdmin(address)":"142b52b9","updateFeeCollector(address)":"d2c35ce8","updateLockFeeToken(address)":"76b9d590","updatelockFeeAmountVesting(uint256)":"3fa0843b","userLocks(address,uint256)":"aa33fedb","vestingImpl()":"821bf0b1","whitelistedTokens(address)":"daf9c210"},"id":34}