{"abi":[{"type":"constructor","inputs":[],"stateMutability":"nonpayable"},{"type":"function","name":"allLocks","inputs":[{"name":"","type":"uint256","internalType":"uint256"}],"outputs":[{"name":"","type":"address","internalType":"address"}],"stateMutability":"view"},{"type":"function","name":"createVestingLock","inputs":[{"name":"token","type":"address","internalType":"address"},{"name":"amount","type":"uint256","internalType":"uint256"},{"name":"startTime","type":"uint256","internalType":"uint256"},{"name":"unlockTime","type":"uint256","internalType":"uint256"},{"name":"cliffPeriod","type":"uint256","internalType":"uint256"},{"name":"recipient","type":"address","internalType":"address"},{"name":"slots","type":"uint256","internalType":"uint256"},{"name":"enableCliff","type":"bool","internalType":"bool"}],"outputs":[{"name":"lock","type":"address","internalType":"address"}],"stateMutability":"nonpayable"},{"type":"function","name":"feeAdmin","inputs":[],"outputs":[{"name":"","type":"address","internalType":"address"}],"stateMutability":"view"},{"type":"function","name":"feeCollector","inputs":[],"outputs":[{"name":"","type":"address","internalType":"address"}],"stateMutability":"view"},{"type":"function","name":"getRecipientLocks","inputs":[{"name":"recipient","type":"address","internalType":"address"}],"outputs":[{"name":"","type":"address[]","internalType":"address[]"}],"stateMutability":"view"},{"type":"function","name":"getUserLocks","inputs":[{"name":"user","type":"address","internalType":"address"}],"outputs":[{"name":"","type":"address[]","internalType":"address[]"}],"stateMutability":"view"},{"type":"function","name":"lockFeeAmountVesting","inputs":[],"outputs":[{"name":"","type":"uint256","internalType":"uint256"}],"stateMutability":"view"},{"type":"function","name":"lockFeeToken","inputs":[],"outputs":[{"name":"","type":"address","internalType":"contract IERC20"}],"stateMutability":"view"},{"type":"function","name":"recipientLocks","inputs":[{"name":"","type":"address","internalType":"address"},{"name":"","type":"uint256","internalType":"uint256"}],"outputs":[{"name":"","type":"address","internalType":"address"}],"stateMutability":"view"},{"type":"function","name":"setTokenWhitelist","inputs":[{"name":"_token","type":"address","internalType":"address"},{"name":"_status","type":"bool","internalType":"bool"}],"outputs":[],"stateMutability":"nonpayable"},{"type":"function","name":"totalLocks","inputs":[],"outputs":[{"name":"","type":"uint256","internalType":"uint256"}],"stateMutability":"view"},{"type":"function","name":"updateFeeAdmin","inputs":[{"name":"_newFeeAdmin","type":"address","internalType":"address"}],"outputs":[],"stateMutability":"nonpayable"},{"type":"function","name":"updateFeeCollector","inputs":[{"name":"_newFeeCollector","type":"address","internalType":"address"}],"outputs":[],"stateMutability":"nonpayable"},{"type":"function","name":"updateLockFeeToken","inputs":[{"name":"_newFeeToken","type":"address","internalType":"contract IERC20"}],"outputs":[],"stateMutability":"nonpayable"},{"type":"function","name":"updatelockFeeAmountVesting","inputs":[{"name":"_newFee","type":"uint256","internalType":"uint256"}],"outputs":[],"stateMutability":"nonpayable"},{"type":"function","name":"userLocks","inputs":[{"name":"","type":"address","internalType":"address"},{"name":"","type":"uint256","internalType":"uint256"}],"outputs":[{"name":"","type":"address","internalType":"address"}],"stateMutability":"view"},{"type":"function","name":"vestingImpl","inputs":[],"outputs":[{"name":"","type":"address","internalType":"address"}],"stateMutability":"view"},{"type":"function","name":"whitelistedTokens","inputs":[{"name":"","type":"address","internalType":"address"}],"outputs":[{"name":"","type":"bool","internalType":"bool"}],"stateMutability":"view"},{"type":"event","name":"FeeAdminUpdated","inputs":[{"name":"newFeeAdmin","type":"address","indexed":true,"internalType":"address"}],"anonymous":false},{"type":"event","name":"FeeAmountVestingUpdated","inputs":[{"name":"newFee","type":"uint256","indexed":true,"internalType":"uint256"}],"anonymous":false},{"type":"event","name":"FeeCollectorUpdated","inputs":[{"name":"newFeeCollector","type":"address","indexed":true,"internalType":"address"}],"anonymous":false},{"type":"event","name":"FeeTokenUpdated","inputs":[{"name":"newFeeToken","type":"address","indexed":true,"internalType":"contract IERC20"}],"anonymous":false},{"type":"event","name":"LockCreated","inputs":[{"name":"lock","type":"address","indexed":true,"internalType":"address"},{"name":"owner","type":"address","indexed":true,"internalType":"address"},{"name":"token","type":"address","indexed":true,"internalType":"address"},{"name":"amount","type":"uint256","indexed":false,"internalType":"uint256"}],"anonymous":false},{"type":"event","name":"TokenWhitelisted","inputs":[{"name":"token","type":"address","indexed":true,"internalType":"address"},{"name":"status","type":"bool","indexed":true,"internalType":"bool"}],"anonymous":false},{"type":"error","name":"DeploymentFailed","inputs":[]},{"type":"error","name":"NotFeeAdmin","inputs":[]},{"type":"error","name":"ZeroAddress","inputs":[]}],"bytecode":{"object":"0x60a080604052346100db576001600055732791bca1f2de4661ed88a30c99a7a9449aa841747380ab0cb57106816b8eff9401418edb0cb18ed5c760018060a01b0319908082600154161760015581600254161760025560035416176003556302faf080600455611b7880820182811060018060401b038211176100c5578291610df4833903906000f080156100b9576001600160a01b0316608052604051610d1390816100e1823960805181818161035401526104c90152f35b6040513d6000823e3d90fd5b634e487b7160e01b600052604160045260246000fd5b600080fdfe608060408181526004918236101561001657600080fd5b600092833560e01c91826311df31551461096757508163142b52b9146108e5578163167490fb1461086857816323a35de9146107dd57816330a402c0146107b45781633fa0843b1461076057816352b954681461048157816363d5a3d9146104265781637112aa471461040857816376b9d59014610383578163821bf0b11461033f5781638d81dbb5146102f5578163aa33fedb14610299578163c415b95c14610270578163c9bcc97e146101dd578163d2c35ce81461014957508063d2d18eac1461012b5763daf9c210146100eb57600080fd5b346101275760203660031901126101275760209160ff9082906001600160a01b0361011461098c565b1681526005855220541690519015158152f35b5080fd5b50346101275781600319360112610127576020906008549051908152f35b9050346101d95760203660031901126101d95761016461098c565b6001546001600160a01b039190821633036101c957169182156101bc575050600280546001600160a01b031916821790557fe5693914d19c789bdee50a362998c0bc8d035a835f9871da5d51152f0582c34f8280a280f35b5163d92e233d60e01b8152fd5b835163c99d1aaf60e01b81528390fd5b8280fd5b919050346101d957806003193601126101d9576101f861098c565b916024359283151580940361026b576001546001600160a01b0392908316330361025d575016908184526005602052832060ff1981541660ff84161790557fef81a9943b96c8df4ef243401c9bf5159146166211356898b52d382086168d928380a380f35b835163c99d1aaf60e01b8152fd5b600080fd5b50503461012757816003193601126101275760025490516001600160a01b039091168152602090f35b5050346101275780600319360112610127576102b361098c565b6001600160a01b0390811683526006602052818320805460243594908510156102f257506020936102e3916109e7565b92905490519260031b1c168152f35b80fd5b50503461012757806003193601126101275761030f61098c565b6001600160a01b0390811683526007602052818320805460243594908510156102f257506020936102e3916109e7565b505034610127578160031936011261012757517f00000000000000000000000000000000000000000000000000000000000000006001600160a01b03168152602090f35b9050346101d95760203660031901126101d95780356001600160a01b038181169391849003610404576001541633036103f75782156101bc575050600380546001600160a01b031916821790557fa0ca04e9956a42929fa24e6299bb6622c8703ac575c61b33e01fb170100ee6dc8280a280f35b5163c99d1aaf60e01b8152fd5b8480fd5b9050346101d957826003193601126101d95760209250549051908152f35b9050346101d95760203660031901126101d957356008548110156101d95760086000527ff3f7a9fe364faab93b216da50a3214154f22a0a2b415b23a84c8169e8b636ee3015490516001600160a01b03909116815260209150f35b838334610127576101003660031901126101275761049d61098c565b9160249384359060a4359560018060a01b038088168098036104045760e435948515158096036102f2577f000000000000000000000000000000000000000000000000000000000000000098763d602d80600a3d3981f3363d3d373d3d3d363d7300000062ffffff8b60881c161782526e5af43d82803e903d91602b57fd5bf360209a60781b178a526037600983f092808416998a15610725578a3b1561072157818a51916315baee2d60e11b83523389840152169889878301528860448301526044356064830152606435608483015260843560a48301528360c483015260c43560e483015284610104830152846101248301528461014483015261016482015283818c81835a9261018493f18015610717576106ea575b50833b156106da5791889184936105d28961060697338d610a88565b89835260058d5260ff8484205416156106bc575b5033825260068c526105fa84848420610a4d565b815260078b5220610a4d565b60085491600160401b8310156106a957600183018060085583101561069657505060086000527ff3f7a9fe364faab93b216da50a3214154f22a0a2b415b23a84c8169e8b636ee301846bffffffffffffffffffffffff60a01b8254161790558251908152837facbc640c2f760ed95320d76df493f521e14d874ceeed1d009575a6f2ade0bf02863393a451908152f35b603290634e487b7160e01b600052526000fd5b604190634e487b7160e01b600052526000fd5b806106d4916003541690600254168954913390610a88565b8c6105e6565b8851633011642560e01b81528690fd5b67ffffffffffffffff8194929411610705578952918b6105b6565b634e487b7160e01b8252604187528582fd5b8a513d86823e3d90fd5b8380fd5b895162461bcd60e51b81528088018d905260168188015275115490cc4c4d8dce8818dc99585d194819985a5b195960521b6044820152606490fd5b9050346101d95760203660031901126101d957600154813592906001600160a01b031633036103f757508190557f637fd561bf09944892a3d28baf27003e2473672c98e630ab942a2e67c51010668280a280f35b50503461012757816003193601126101275760015490516001600160a01b039091168152602090f35b5050346101275760209060206003193601126101d9576001600160a01b03928361080561098c565b16815260066020528181209382519081946020875493848152019684526020842093915b83831061084f5761084b8787610841828c0383610a15565b51918291826109a2565b0390f35b8454811688529681019660019485019490920191610829565b5050346101275760209060206003193601126101d9576001600160a01b03928361089061098c565b16815260076020528181209382519081946020875493848152019684526020842093915b8383106108cc5761084b8787610841828c0383610a15565b84548116885296810196600194850194909201916108b4565b9050346101d95760203660031901126101d95761090061098c565b60015491906001600160a01b0390818416330361095757169283156101bc5750506001600160a01b03191681176001557f3e918b61b757ffa05ce35125f7a0015edde866bd42564368a3ef5dd2657278508280a280f35b845163c99d1aaf60e01b81528390fd5b8490346101275781600319360112610127576003546001600160a01b03168152602090f35b600435906001600160a01b038216820361026b57565b602090602060408183019282815285518094520193019160005b8281106109ca575050505090565b83516001600160a01b0316855293810193928101926001016109bc565b80548210156109ff5760005260206000200190600090565b634e487b7160e01b600052603260045260246000fd5b90601f8019910116810190811067ffffffffffffffff821117610a3757604052565b634e487b7160e01b600052604160045260246000fd5b8054600160401b811015610a3757610a6a916001820181556109e7565b60018060a09493941b038084549260031b9316831b921b1916179055565b6040516323b872dd60e01b60208083019182526001600160a01b039485166024840152948416604483015260648083019690965294815292939260a081019267ffffffffffffffff9283851183861017610a3757169060e0810184811084821117610a37576040528584527f5361666545524332303a206c6f772d6c6576656c2063616c6c206661696c656460c0820152600080958192519082855af1903d15610bfe573d928311610bea5790610b5f93929160405192610b5288601f19601f8401160185610a15565b83523d868885013e610c09565b805180610b6d575b50505050565b8184918101031261012757820151908115918215036102f25750610b9357808080610b67565b6084906040519062461bcd60e51b82526004820152602a60248201527f5361666545524332303a204552433230206f7065726174696f6e20646964206e6044820152691bdd081cdd58d8d9595960b21b6064820152fd5b634e487b7160e01b85526041600452602485fd5b90610b5f9392506060915b91929015610c6b5750815115610c1d575090565b3b15610c265790565b60405162461bcd60e51b815260206004820152601d60248201527f416464726573733a2063616c6c20746f206e6f6e2d636f6e74726163740000006044820152606490fd5b825190915015610c7e5750805190602001fd5b6040519062461bcd60e51b82528160208060048301528251908160248401526000935b828510610cc4575050604492506000838284010152601f80199101168101030190fd5b8481018201518686016044015293810193859350610ca156fea2646970667358221220c9ffaa73ba5e05395508419da6699a85c8c86b13684f57f3d803c5688e44f81864736f6c634300081800336080806040523461001657611b5c908161001c8239f35b600080fdfe6040608081526004908136101561001557600080fd5b600091823560e01c908162728f76146110fd5781631b88094d146110d457816321df0da7146110ab5781632b75dc5a14610f0b5781633660218c14610eee57816338adde5014610ecf5781633ccfd60b146106be5781633d9205c11461069f578163602bc62b14610680578163747ba2511461065c578163893d20e8146106345781639a5569a714610615578163b8e50cab146105f8578163c354bd6e146105d4578163c828371e146105b6578163d321fe2914610597578163d8e3784c14610578578163ee4a745c14610114575063fab2c469146100f357600080fd5b346101105781600319360112610110576020906007549051908152f35b5080fd5b8391503461011057816003193601126101105782516364141b8f60e11b815260209182828281305afa91821561056e57849261053f575b508451633d9205c160e01b815283818381305afa908115610535578591610504575b50855163747ba25160e01b81529584878481305afa9687156104fa5786976104cb575b50805163d321fe2960e01b81529585878581305afa9687156104bf57819761048c575b508151639a5569a760e01b81529086828681305afa918215610480578192610451575b506101df611705565b936101e861128c565b96829a8080610448575b1561032357505050610205818099611552565b94835163fab2c46960e01b9081815289818481305afa9081156103195784916102e8575b50156102dc5760648b029a808c04606414901517156102c95788908551928391825281305afa9182156102be578092610289575b505061026b9060c099611152565b955b82519788528701528501526060840152608083015260a0820152f35b9091508782813d83116102b7575b6102a1818361111a565b810103126102b45750518861026b61025d565b80fd5b503d610297565b8451903d90823e3d90fd5b634e487b7160e01b835260118252602483fd5b505060c098509561026d565b90508981813d8311610312575b6102ff818361111a565b8101031261030e57518c610229565b8380fd5b503d6102f5565b86513d86823e3d90fd5b929a5090911561044157505b804211600014610437576103466103549142611552565b61034e61155f565b90611152565b97825163fab2c46960e01b9081815288818881305afa90811561042d5783916103fc575b508a1161039c575b5061020561039561038f611172565b8b611279565b8099611552565b909850825190815286818681305afa9081156103f25789916103c1575b509789610380565b90508681813d83116103eb575b6103d8818361111a565b810103126103e75751896103b9565b8880fd5b503d6103ce565b83513d8b823e3d90fd5b90508881813d8311610426575b610413818361111a565b8101031261042257518b610378565b8280fd5b503d610409565b85513d85823e3d90fd5b5061035488610346565b905061032f565b508242106101f2565b9091508681813d8311610479575b610469818361111a565b81010312610110575190896101d6565b503d61045f565b508251903d90823e3d90fd5b9096508581813d83116104b8575b6104a4818361111a565b810103126104b4575195886101b3565b8680fd5b503d61049a565b509051903d90823e3d90fd5b6104ec919750853d87116104f3575b6104e4818361111a565b81019061123e565b9587610190565b503d6104da565b81513d88823e3d90fd5b90508381813d831161052e575b61051b818361111a565b8101031261052a57518661016d565b8480fd5b503d610511565b86513d87823e3d90fd5b9091508281813d8311610567575b610557818361111a565b8101031261030e5751908561014b565b503d61054d565b85513d86823e3d90fd5b5050346101105781600319360112610110576020906008549051908152f35b5050346101105781600319360112610110576020906003549051908152f35b90503461042257826003193601126104225760209250549051908152f35b5050346101105781600319360112610110576020906105f1611705565b9051908152f35b5050346101105781600319360112610110576020906105f161155f565b5050346101105781600319360112610110576020906009549051908152f35b505034610110578160031936011261011057905490516001600160a01b039091168152602090f35b50503461011057816003193601126101105760209060ff600b541690519015158152f35b5050346101105781600319360112610110576020906005549051908152f35b5050346101105781600319360112610110576020906006549051908152f35b9050346104225782600319360112610422578151631b88094d60e01b9081815260209384828581305afa9182156104fa578692610eb0575b506001600160a01b039182163303610ea15780516364141b8f60e11b815285818681305afa908115610db6578791610e74575b508151633d9205c160e01b81529086828781305afa918215610ab2578892610e45575b50825163747ba25160e01b815287818881305afa908115610aed578991610e28575b508080610e1f575b610e0f5715610dff5750804211600014610df8576107949042611552565b61079c61155f565b8015610def576107ab91611152565b915b815163fab2c46960e01b808252908488828981305afa918215610c25578a92610dc0575b5011610d64575b508693825193633638de1360e21b9485815288818981305afa908115610c25578a91610d37575b508111610cdc575b835185815288818981305afa908115610c25578a91610caf575b508110610ca7575b508415610c975761084161083b611172565b86611279565b9483519085825288828981305afa8015610c25578a90610c64575b6108669250611256565b8351639a5569a760e01b808252919089818a81305afa8015610bfe5788908c90610c2f575b6108959250611256565b90806008558160095542600a5585519142917fb27a3a9979877b12952e21e91eeded34f5ecc7d5147544ca7b58fa9cd85e30be8d80a46321df0da760e01b815288818981305afa908115610c25579084918b91610c08575b501684519083825289828a81305afa918215610bfe578b92610bdf575b50855190858b83019363a9059cbb60e01b855216602483015288604483015260448252608082019267ffffffffffffffff9280851084861117610bcc5760c0810185811085821117610bb95789528c85527f5361666545524332303a206c6f772d6c6576656c2063616c6c206661696c656460a0820152518d9182919082855af1913d15610bab573d908111610b9857918b916109c694938e8a51916109b986601f19601f840116018461111a565b825281943d92013e611a52565b8051908982610b26575b505050835191825287828881305afa918215610aed578992610af7575b50835194855287858881305afa948515610aed579088918a96610abc575b508451978891825281305afa958615610ab2578896610a5b575b507f47fc0b24db66a9957c289e5ea8eeaf0a13000b6173d67f6317229282154a2b7393949596835195865242908601521692a480f35b939495508684813d8311610aab575b610a74818361111a565b81010312610aa7577f47fc0b24db66a9957c289e5ea8eeaf0a13000b6173d67f6317229282154a2b739351959493610a25565b8780fd5b503d610a6a565b83513d8a823e3d90fd5b8281939297503d8311610ae6575b610ad4818361111a565b810103126103e7578790519438610a0b565b503d610aca565b84513d8b823e3d90fd5b610b18919250883d8a11610b1f575b610b10818361111a565b810190611533565b90386109ed565b503d610b06565b80610b3593830101910161123e565b15610b42573880896109d0565b835162461bcd60e51b8152808801899052602a60248201527f5361666545524332303a204552433230206f7065726174696f6e20646964206e6044820152691bdd081cdd58d8d9595960b21b6064820152608490fd5b634e487b7160e01b8d5260418b5260248dfd5b506109c69291606091611a52565b634e487b7160e01b8f5260418d5260248ffd5b634e487b7160e01b8e5260418c5260248efd5b610bf79192508a3d8c11610b1f57610b10818361111a565b903861090a565b86513d8d823e3d90fd5b610c1f91508a3d8c11610b1f57610b10818361111a565b386108ed565b85513d8c823e3d90fd5b50508981813d8311610c5d575b610c46818361111a565b81010312610c595787610895915161088b565b8a80fd5b503d610c3c565b508882813d8311610c90575b610c7a818361111a565b81010312610c8c57610866915161085c565b8980fd5b503d610c70565b8251634e4f9d1d60e11b81528690fd5b945038610829565b90508881813d8311610cd5575b610cc6818361111a565b81010312610c8c575138610821565b503d610cbc565b9450825184815287818881305afa8015610aed578990610d08575b610d02915086611552565b94610807565b508781813d8311610d30575b610d1e818361111a565b810103126103e757610d029051610cf7565b503d610d14565b90508881813d8311610d5d575b610d4e818361111a565b81010312610c8c5751386107ff565b503d610d44565b909250815190815285818681305afa908115610db6578791610d89575b5091386107d8565b90508581813d8311610daf575b610da0818361111a565b810103126104b4575138610d81565b503d610d96565b82513d89823e3d90fd5b9091508881813d8311610de8575b610dd8818361111a565b81010312610c8c575190386107d1565b503d610dce565b505085916107ad565b5085610794565b610e0a915042611552565b610794565b8351636c09fbc960e11b81528790fd5b50824210610776565b610e3f9150883d8a116104f3576104e4818361111a565b3861076e565b9091508681813d8311610e6d575b610e5d818361111a565b81010312610aa75751903861074c565b503d610e53565b90508581813d8311610e9a575b610e8b818361111a565b810103126104b4575138610729565b503d610e81565b5163a1bfc65b60e01b81528390fd5b610ec8919250853d8711610b1f57610b10818361111a565b90386106f6565b505034610110578160031936011261011057602090600a549051908152f35b5050346101105781600319360112610110576020906105f161128c565b9190503461042257610180366003190112610422576001600160a01b03918035838116919082900361052a57602435928484168094036110a75760443591606435916084359060a4359060c435988916809903610c8c5760e4359261016435948515158096036110a357600b549060ff8260081c1661106a578a1561105c57891561104e578b15611040578c546001600160a01b03199081168b178e556001805482168d17905560038a90559088905560058390556006859055600280549091168c1790556007859055610104356008556101243560095561014435600a5561ffff191660ff86161761010017600b55815196875260208701528501526060840152608083015260a08201527ff011f72b3672910dc9373088af2f91da23a1fac3053dbc72a1f8ac254e88db669060c090a480f35b835163d92e233d60e01b8152fd5b83516349e27cff60e01b8152fd5b835163c1ab6dc160e01b8152fd5b606490602085519162461bcd60e51b83528201526013602482015272105b1c9958591e481a5b9a5d1a585b1a5e9959606a1b6044820152fd5b8b80fd5b8580fd5b50503461011057816003193601126101105760015490516001600160a01b039091168152602090f35b50503461011057816003193601126101105760025490516001600160a01b039091168152602090f35b5050346101105781600319360112610110576020906105f1611172565b90601f8019910116810190811067ffffffffffffffff82111761113c57604052565b634e487b7160e01b600052604160045260246000fd5b811561115c570490565b634e487b7160e01b600052601260045260246000fd5b60405163d321fe2960e01b815260208082600481305afa9182156112035760009261120f575b5060405163fab2c46960e01b8152918183600481305afa918215611203576000926111cc575b506111c99250611152565b90565b90915082813d83116111fc575b6111e3818361111a565b810103126111f7576111c9915190386111be565b600080fd5b503d6111d9565b6040513d6000823e3d90fd5b9080925081813d8311611237575b611227818361111a565b810103126111f757519038611198565b503d61121d565b908160209103126111f7575180151581036111f75790565b9190820180921161126357565b634e487b7160e01b600052601160045260246000fd5b8181029291811591840414171561126357565b604080516364141b8f60e11b81526020919060049083818381305afa908115611528576000916114fb575b508251633d9205c160e01b815284818481305afa9081156114f0576000916114c3575b50835163747ba25160e01b81529185838581305afa9283156114b857600093611499575b508451633638de1360e21b808252939087818781305afa90811561148e57600091611461575b50865163fab2c46960e01b81529088828881305afa91821561145657600092611427575b50101561141b578080611412575b6113ff57156113f75750935b835191825280828481305afa9384156113ed57506000936113bd575b5050600182018092116113a85750906113a26111c99261139c61155f565b90611279565b90611256565b601190634e487b7160e01b6000525260246000fd5b9080929350813d83116113e6575b6113d5818361111a565b810103126111f7575190388061137e565b503d6113cb565b513d6000823e3d90fd5b905093611362565b5050925050506111c991506113a261155f565b50824210611356565b50505050505050600090565b9091508881813d831161144f575b61143f818361111a565b810103126111f757519038611348565b503d611435565b88513d6000823e3d90fd5b90508781813d8311611487575b611478818361111a565b810103126111f7575138611324565b503d61146e565b87513d6000823e3d90fd5b6114b1919350863d88116104f3576104e4818361111a565b91386112fe565b85513d6000823e3d90fd5b908582813d83116114e9575b6114d9818361111a565b810103126102b4575051386112da565b503d6114cf565b84513d6000823e3d90fd5b90508381813d8311611521575b611512818361111a565b810103126111f75751386112b7565b503d611508565b83513d6000823e3d90fd5b908160209103126111f757516001600160a01b03811681036111f75790565b9190820391821161126357565b6040805163747ba25160e01b81526004919060209081818581305afa908115611528576000916116e8575b501561166c57815163602bc62b60e01b815281818581305afa9081156115285760009161163f575b508251633d9205c160e01b81529082828681305afa9081156114f05760009161160e575b6115e09250611552565b90808351809563fab2c46960e01b825281305afa9283156113ed57506000926111cc57506111c99250611152565b90508282813d8311611638575b611625818361111a565b810103126111f7576115e09151906115d6565b503d61161b565b90508181813d8311611665575b611656818361111a565b810103126111f75751386115b2565b503d61164c565b815163602bc62b60e01b815281818581305afa908115611528576000916116bb575b5082516364141b8f60e11b81529082828681305afa9081156114f05760009161160e576115e09250611552565b90508181813d83116116e1575b6116d2818361111a565b810103126111f757513861168e565b503d6116c8565b6116ff9150823d84116104f3576104e4818361111a565b3861158a565b604080516364141b8f60e11b815260049160209182818581305afa90811561196957600091611a25575b508151633d9205c160e01b81529083828681305afa918215611528576000926119f6575b50825163747ba25160e01b815284818781305afa9081156114f0576000916119d9575b5080806119d0575b6119c557156119b557508042116000146119ad5761179c9042611552565b6117a461155f565b80156119a3576117b391611152565b905b805163fab2c46960e01b808252908385828881305afa9182156114f057600092611974575b5011611916575b508051633638de1360e21b8082526000949182818881305afa90811561190c5786916118df575b50841161187b575b81908351968791825281305afa9182156113ed575060009161184b575b506111c993508110611843575b5061139c611172565b90503861183a565b905083813d8311611874575b611861818361111a565b810103126111f7576111c992513861182d565b503d611857565b93825185815282818881305afa9182156102be57908184936118ac575b50506118a49085611552565b949050611810565b91509182813d83116118d8575b6118c3818361111a565b810103126102b457505181906118a438611898565b503d6118b9565b90508281813d8311611905575b6118f6818361111a565b810103126110a7575138611808565b503d6118ec565b84513d88823e3d90fd5b908092505190815282818581305afa9081156119695760009161193c575b5090386117e1565b90508281813d8311611962575b611953818361111a565b810103126111f7575138611934565b503d611949565b82513d6000823e3d90fd5b9091508581813d831161199c575b61198c818361111a565b810103126111f7575190386117da565b503d611982565b50506000906117b5565b50600061179c565b6119c0915042611552565b61179c565b505050505050600090565b5082421061177e565b6119f09150853d87116104f3576104e4818361111a565b38611776565b90918482813d8311611a1e575b611a0d818361111a565b810103126102b45750519038611753565b503d611a03565b90508281813d8311611a4b575b611a3c818361111a565b810103126111f757513861172f565b503d611a32565b91929015611ab45750815115611a66575090565b3b15611a6f5790565b60405162461bcd60e51b815260206004820152601d60248201527f416464726573733a2063616c6c20746f206e6f6e2d636f6e74726163740000006044820152606490fd5b825190915015611ac75750805190602001fd5b6040519062461bcd60e51b82528160208060048301528251908160248401526000935b828510611b0d575050604492506000838284010152601f80199101168101030190fd5b8481018201518686016044015293810193859350611aea56fea26469706673582212206eab634f5274f5fdb0e22b1c0683b9f25b81aa393a9a1422d5a81aeaf9869aae64736f6c63430008180033","linkReferences":{}},"methodIdentifiers":{"allLocks(uint256)":"63d5a3d9","createVestingLock(address,uint256,uint256,uint256,uint256,address,uint256,bool)":"52b95468","feeAdmin()":"30a402c0","feeCollector()":"c415b95c","getRecipientLocks(address)":"167490fb","getUserLocks(address)":"23a35de9","lockFeeAmountVesting()":"7112aa47","lockFeeToken()":"11df3155","recipientLocks(address,uint256)":"8d81dbb5","setTokenWhitelist(address,bool)":"c9bcc97e","totalLocks()":"d2d18eac","updateFeeAdmin(address)":"142b52b9","updateFeeCollector(address)":"d2c35ce8","updateLockFeeToken(address)":"76b9d590","updatelockFeeAmountVesting(uint256)":"3fa0843b","userLocks(address,uint256)":"aa33fedb","vestingImpl()":"821bf0b1","whitelistedTokens(address)":"daf9c210"},"id":34}