{"abi":[{"type":"function","name":"getAmount","inputs":[],"outputs":[{"name":"","type":"uint256","internalType":"uint256"}],"stateMutability":"view"},{"type":"function","name":"getClaimableAmount","inputs":[],"outputs":[{"name":"","type":"uint256","internalType":"uint256"}],"stateMutability":"view"},{"type":"function","name":"getCliffPeriod","inputs":[],"outputs":[{"name":"","type":"uint256","internalType":"uint256"}],"stateMutability":"view"},{"type":"function","name":"getCurrentSlot","inputs":[],"outputs":[{"name":"","type":"uint256","internalType":"uint256"}],"stateMutability":"view"},{"type":"function","name":"getEnableCliff","inputs":[],"outputs":[{"name":"","type":"bool","internalType":"bool"}],"stateMutability":"view"},{"type":"function","name":"getLastClaimedTime","inputs":[],"outputs":[{"name":"","type":"uint256","internalType":"uint256"}],"stateMutability":"view"},{"type":"function","name":"getNextVestingDate","inputs":[],"outputs":[{"name":"","type":"uint256","internalType":"uint256"}],"stateMutability":"view"},{"type":"function","name":"getOwner","inputs":[],"outputs":[{"name":"","type":"address","internalType":"address"}],"stateMutability":"view"},{"type":"function","name":"getRecipient","inputs":[],"outputs":[{"name":"","type":"address","internalType":"address"}],"stateMutability":"view"},{"type":"function","name":"getReleasedAmount","inputs":[],"outputs":[{"name":"","type":"uint256","internalType":"uint256"}],"stateMutability":"view"},{"type":"function","name":"getSlots","inputs":[],"outputs":[{"name":"","type":"uint256","internalType":"uint256"}],"stateMutability":"view"},{"type":"function","name":"getStartTime","inputs":[],"outputs":[{"name":"","type":"uint256","internalType":"uint256"}],"stateMutability":"view"},{"type":"function","name":"getToken","inputs":[],"outputs":[{"name":"","type":"address","internalType":"address"}],"stateMutability":"view"},{"type":"function","name":"getUnlockTime","inputs":[],"outputs":[{"name":"","type":"uint256","internalType":"uint256"}],"stateMutability":"view"},{"type":"function","name":"getVestingStatus","inputs":[],"outputs":[{"name":"vestedAmount","type":"uint256","internalType":"uint256"},{"name":"claimedAmount","type":"uint256","internalType":"uint256"},{"name":"claimableAmount","type":"uint256","internalType":"uint256"},{"name":"remainingAmount","type":"uint256","internalType":"uint256"},{"name":"nextVestingDate","type":"uint256","internalType":"uint256"},{"name":"vestingProgress","type":"uint256","internalType":"uint256"}],"stateMutability":"view"},{"type":"function","name":"initialize","inputs":[{"name":"_owner","type":"address","internalType":"address"},{"name":"_token","type":"address","internalType":"address"},{"name":"_amount","type":"uint256","internalType":"uint256"},{"name":"_unlockTime","type":"uint256","internalType":"uint256"},{"name":"_cliffPeriod","type":"uint256","internalType":"uint256"},{"name":"_recepeint","type":"address","internalType":"address"},{"name":"_slots","type":"uint256","internalType":"uint256"},{"name":"_currentSlot","type":"uint256","internalType":"uint256"},{"name":"_releasedAmount","type":"uint256","internalType":"uint256"},{"name":"_lastClaimedTime","type":"uint256","internalType":"uint256"},{"name":"_enableCliff","type":"bool","internalType":"bool"}],"outputs":[],"stateMutability":"nonpayable"},{"type":"function","name":"vestingAmount","inputs":[],"outputs":[{"name":"","type":"uint256","internalType":"uint256"}],"stateMutability":"view"},{"type":"function","name":"vestingInterval","inputs":[],"outputs":[{"name":"","type":"uint256","internalType":"uint256"}],"stateMutability":"view"},{"type":"function","name":"withdraw","inputs":[],"outputs":[],"stateMutability":"nonpayable"},{"type":"event","name":"LockInitialized","inputs":[{"name":"owner","type":"address","indexed":true,"internalType":"address"},{"name":"token","type":"address","indexed":true,"internalType":"address"},{"name":"amount","type":"uint256","indexed":false,"internalType":"uint256"},{"name":"unlockTime","type":"uint256","indexed":false,"internalType":"uint256"},{"name":"cliffPeriod","type":"uint256","indexed":false,"internalType":"uint256"},{"name":"recipient","type":"address","indexed":true,"internalType":"address"},{"name":"slots","type":"uint256","indexed":false,"internalType":"uint256"},{"name":"enableCliff","type":"bool","indexed":false,"internalType":"bool"},{"name":"startTime","type":"uint256","indexed":false,"internalType":"uint256"}],"anonymous":false},{"type":"event","name":"StateUpdated","inputs":[{"name":"currentSlot","type":"uint256","indexed":true,"internalType":"uint256"},{"name":"releasedAmount","type":"uint256","indexed":true,"internalType":"uint256"},{"name":"lastClaimedTime","type":"uint256","indexed":true,"internalType":"uint256"}],"anonymous":false},{"type":"event","name":"TokensWithdrawn","inputs":[{"name":"recipient","type":"address","indexed":true,"internalType":"address"},{"name":"amount","type":"uint256","indexed":true,"internalType":"uint256"},{"name":"currentSlot","type":"uint256","indexed":false,"internalType":"uint256"},{"name":"totalReleased","type":"uint256","indexed":true,"internalType":"uint256"},{"name":"timestamp","type":"uint256","indexed":false,"internalType":"uint256"}],"anonymous":false},{"type":"error","name":"InvalidOwner","inputs":[]},{"type":"error","name":"InvalidToken","inputs":[]},{"type":"error","name":"NotClaimableYet","inputs":[]},{"type":"error","name":"OnlyRecipient","inputs":[]},{"type":"error","name":"YouClaimedAllAllocatedTokens","inputs":[]},{"type":"error","name":"ZeroAddress","inputs":[]}],"bytecode":{"object":"0x60808060405234610016576118bc908161001c8239f35b600080fdfe6040608081526004908136101561001557600080fd5b600091823560e01c908162728f7614610ffa5781631b88094d14610fd157816321df0da714610fa85781633660218c14610f8b57816338adde5014610f6c5781633ccfd60b146107ac5781633d9205c11461078d578163602bc62b1461076f578163747ba2511461074b578163893d20e8146107235781639a5569a714610704578163b8e50cab146106e7578163c354bd6e146106c3578163c828371e146106a4578163d321fe2914610685578163d8e3784c14610666578163ed3410d9146104bb578163ee4a745c14610114575063fab2c469146100f357600080fd5b346101105781600319360112610110576020906006549051908152f35b5080fd5b8284346104b857806003193601126104b85781516364141b8f60e11b81529160209182848681305afa9384156104ac57819461047d575b508151633d9205c160e01b815283818781305afa908115610473578291610446575b50825163747ba25160e01b81529284848881305afa93841561043c57839461040d575b50805163d321fe2960e01b81529585878981305afa9687156104035784976103d0575b508151639a5569a760e01b81529086828a81305afa91821561033a5785926103a1575b506101df6114bb565b936101e8611189565b96808061038f575b1561026b5750505083965b6102058882611459565b94811561025f5760648902908982046064148a15171561024c575060c099509061022e9161104f565b955b82519788528701528501526060840152608083015260a0820152f35b634e487b7160e01b815260118b52602490fd5b905060c0985095610230565b156103895761027991611153565b80421160001461037f5761029061029e9142611459565b610298611466565b9061104f565b825163fab2c46960e01b808252919088818c81305afa908115610375578791610344575b5081116102e3575b6102dd91506102d761106f565b90611176565b966101fb565b50825190815286818a81305afa801561033a578590610307575b6102dd91506102ca565b508681813d8311610333575b61031d8183611017565b8101031261032f576102dd90516102fd565b8480fd5b503d610313565b83513d87823e3d90fd5b90508881813d831161036e575b61035b8183611017565b8101031261036a57518b6102c2565b8680fd5b503d610351565b85513d89823e3d90fd5b5061029e84610290565b50610279565b5061039a8284611153565b42106101f0565b9091508681813d83116103c9575b6103b98183611017565b8101031261032f575190896101d6565b503d6103af565b9096508581813d83116103fc575b6103e88183611017565b810103126103f8575195886101b3565b8380fd5b503d6103de565b82513d86823e3d90fd5b61042e919450853d8711610435575b6104268183611017565b81019061113b565b9287610190565b503d61041c565b81513d85823e3d90fd5b90508381813d831161046c575b61045d8183611017565b8101031261011057518661016d565b503d610453565b83513d84823e3d90fd5b9093508281813d83116104a5575b6104958183611017565b810103126103f85751928561014b565b503d61048b565b509051903d90823e3d90fd5b80fd5b90503461066257610160366003190112610662576001600160a01b03918135838116919082900361032f576024359284841680940361065e5760443591606435906084359060a43597881680980361065a5760c43592610144359485151580960361065657600b549060ff8260081c1661061d57891561060f578815610601578a156105f357916101007ff011f72b3672910dc9373088af2f91da23a1fac3053dbc72a1f8ac254e88db66989694928c8b8f60c09b99978f87926bffffffffffffffffffffffff60a01b94858254161790558360015416176001558b600355558660055560025416176002558560065560e435600755610104356008556101243560095542600a5560ff87169061ffff19161717600b5581519586526020860152840152606083015260808201524260a0820152a480f35b835163d92e233d60e01b8152fd5b83516349e27cff60e01b8152fd5b835163c1ab6dc160e01b8152fd5b606490602085519162461bcd60e51b83528201526013602482015272105b1c9958591e481a5b9a5d1a585b1a5e9959606a1b6044820152fd5b8a80fd5b8880fd5b8580fd5b8280fd5b5050346101105781600319360112610110576020906007549051908152f35b5050346101105781600319360112610110576020906003549051908152f35b505034610110578160031936011261011057602090600a549051908152f35b5050346101105781600319360112610110576020906106e06114bb565b9051908152f35b5050346101105781600319360112610110576020906106e0611466565b5050346101105781600319360112610110576020906008549051908152f35b505034610110578160031936011261011057905490516001600160a01b039091168152602090f35b50503461011057816003193601126101105760209060ff600b541690519015158152f35b90503461066257826003193601126106625760209250549051908152f35b5050346101105781600319360112610110576020906005549051908152f35b9050346106625782600319360112610662578151631b88094d60e01b9081815260209384828581305afa918215610f62578692610f43575b506001600160a01b039182163303610f345780516364141b8f60e11b815285818681305afa908115610e46578791610f07575b508151633d9205c160e01b815286818781305afa908115610b77578891610eda575b50825163747ba25160e01b815287818881305afa908115610bb2578991610ebd575b508080610eab575b610e9b5715610e88576108768183611153565b421115610e7d5761088d6102909161089393611153565b42611459565b91815163fab2c46960e01b9081815287818881305afa908115610bb2578991610e50575b508411610df4575b508693825193633638de1360e21b9485815288818981305afa908115610cea578a91610dc7575b508111610d68575b508415610d585761090661090061106f565b86611176565b9483519085825288828981305afa8015610cea578a90610d25575b61092b9250611153565b8351639a5569a760e01b808252919089818a81305afa8015610cc35788908c90610cf4575b61095a9250611153565b9080600755816008554260095585519142917fb27a3a9979877b12952e21e91eeded34f5ecc7d5147544ca7b58fa9cd85e30be8d80a46321df0da760e01b815288818981305afa908115610cea579084918b91610ccd575b501684519083825289828a81305afa918215610cc3578b92610ca4575b50855190858b83019363a9059cbb60e01b855216602483015288604483015260448252608082019267ffffffffffffffff9280851084861117610c915760c0810185811085821117610c7e5789528c85527f5361666545524332303a206c6f772d6c6576656c2063616c6c206661696c656460a0820152518d9182919082855af1913d15610c70573d908111610c5d57918b91610a8b94938e8a5191610a7e86601f19601f8401160184611017565b825281943d92013e6117b2565b8051908982610beb575b505050835191825287828881305afa918215610bb2578992610bbc575b50835194855287858881305afa948515610bb2579088918a96610b81575b508451978891825281305afa958615610b77578896610b20575b507f47fc0b24db66a9957c289e5ea8eeaf0a13000b6173d67f6317229282154a2b7393949596835195865242908601521692a480f35b939495508684813d8311610b70575b610b398183611017565b81010312610b6c577f47fc0b24db66a9957c289e5ea8eeaf0a13000b6173d67f6317229282154a2b739351959493610aea565b8780fd5b503d610b2f565b83513d8a823e3d90fd5b8281939297503d8311610bab575b610b998183611017565b8101031261065a578790519438610ad0565b503d610b8f565b84513d8b823e3d90fd5b610bdd919250883d8a11610be4575b610bd58183611017565b81019061143a565b9038610ab2565b503d610bcb565b80610bfa93830101910161113b565b15610c0757388089610a95565b835162461bcd60e51b8152808801899052602a60248201527f5361666545524332303a204552433230206f7065726174696f6e20646964206e6044820152691bdd081cdd58d8d9595960b21b6064820152608490fd5b634e487b7160e01b8d5260418b5260248dfd5b50610a8b92916060916117b2565b634e487b7160e01b8f5260418d5260248ffd5b634e487b7160e01b8e5260418c5260248efd5b610cbc9192508a3d8c11610be457610bd58183611017565b90386109cf565b86513d8d823e3d90fd5b610ce491508a3d8c11610be457610bd58183611017565b386109b2565b85513d8c823e3d90fd5b50508981813d8311610d1e575b610d0b8183611017565b81010312610656578761095a9151610950565b503d610d01565b508882813d8311610d51575b610d3b8183611017565b81010312610d4d5761092b9151610921565b8980fd5b503d610d31565b8251634e4f9d1d60e11b81528690fd5b835185815291955087828881305afa908115610bb2578991610d96575b610d8f9250611459565b93386108ee565b90508782813d8311610dc0575b610dad8183611017565b8101031261065a57610d8f915190610d85565b503d610da3565b90508881813d8311610ded575b610dde8183611017565b81010312610d4d5751386108e6565b503d610dd4565b909250815190815285818681305afa908115610e46578791610e19575b5091386108bf565b90508581813d8311610e3f575b610e308183611017565b8101031261036a575138610e11565b503d610e26565b82513d89823e3d90fd5b90508781813d8311610e76575b610e678183611017565b8101031261065a5751386108b7565b503d610e5d565b505061089386610290565b50610e966108939142611459565b610290565b8351636c09fbc960e11b81528790fd5b50610eb68284611153565b4210610863565b610ed49150883d8a11610435576104268183611017565b3861085b565b90508681813d8311610f00575b610ef18183611017565b81010312610b6c575138610839565b503d610ee7565b90508581813d8311610f2d575b610f1e8183611017565b8101031261036a575138610817565b503d610f14565b5163a1bfc65b60e01b81528390fd5b610f5b919250853d8711610be457610bd58183611017565b90386107e4565b81513d88823e3d90fd5b5050346101105781600319360112610110576020906009549051908152f35b5050346101105781600319360112610110576020906106e0611189565b50503461011057816003193601126101105760015490516001600160a01b039091168152602090f35b50503461011057816003193601126101105760025490516001600160a01b039091168152602090f35b5050346101105781600319360112610110576020906106e061106f565b90601f8019910116810190811067ffffffffffffffff82111761103957604052565b634e487b7160e01b600052604160045260246000fd5b8115611059570490565b634e487b7160e01b600052601260045260246000fd5b60405163d321fe2960e01b815260208082600481305afa9182156111005760009261110c575b5060405163fab2c46960e01b8152918183600481305afa918215611100576000926110c9575b506110c6925061104f565b90565b90915082813d83116110f9575b6110e08183611017565b810103126110f4576110c6915190386110bb565b600080fd5b503d6110d6565b6040513d6000823e3d90fd5b9080925081813d8311611134575b6111248183611017565b810103126110f457519038611095565b503d61111a565b908160209103126110f4575180151581036110f45790565b9190820180921161116057565b634e487b7160e01b600052601160045260246000fd5b8181029291811591840414171561116057565b604080516364141b8f60e11b81526020919060049083818381305afa90811561142f57600091611402575b508251633d9205c160e01b81529084828481305afa9182156113f7576000926113c8575b50835163747ba25160e01b81529185838581305afa9283156113bd5760009361139e575b508451633638de1360e21b808252939087818781305afa90811561139357600091611366575b50865163fab2c46960e01b81529088828881305afa91821561135b5760009261132c575b50101561132057808061130e575b6112fe57156112f75761126691611153565b935b835191825280828481305afa9384156112ed57506000936112bd575b5050600182018092116112a85750906112a26110c6926102d7611466565b90611153565b601190634e487b7160e01b6000525260246000fd5b9080929350813d83116112e6575b6112d58183611017565b810103126110f45751903880611284565b503d6112cb565b513d6000823e3d90fd5b5093611268565b5093509150506110c69250611153565b506113198284611153565b4210611254565b50505050505050600090565b9091508881813d8311611354575b6113448183611017565b810103126110f457519038611246565b503d61133a565b88513d6000823e3d90fd5b90508781813d831161138c575b61137d8183611017565b810103126110f4575138611222565b503d611373565b87513d6000823e3d90fd5b6113b6919350863d8811610435576104268183611017565b91386111fc565b85513d6000823e3d90fd5b90918582813d83116113f0575b6113df8183611017565b810103126104b857505190386111d8565b503d6113d5565b84513d6000823e3d90fd5b908482813d8311611428575b6114188183611017565b810103126104b8575051386111b4565b503d61140e565b83513d6000823e3d90fd5b908160209103126110f457516001600160a01b03811681036110f45790565b9190820391821161116057565b60405163602bc62b60e01b815260208082600481305afa9182156111005760009261110c575060405163fab2c46960e01b8152918183600481305afa918215611100576000926110c957506110c6925061104f565b604080516364141b8f60e11b815260049160209182818581305afa9081156116cc57600091611785575b508151633d9205c160e01b815283818681305afa90811561142f57600091611758575b50825163747ba25160e01b815284818781305afa9081156113f75760009161173b575b508080611729575b61171e5715611710576115468183611153565b4211156117045761088d6102909161155d93611153565b92815163fab2c46960e01b9081815284818481305afa9081156113f7576000916116d7575b508511611679575b508151633638de1360e21b8082526000949182818581305afa90811561166f578691611642575b5086116115ca575b505050506110c691506102d761106f565b81908495939451948591825281305afa93841561163757508193611602575b5050506115f9906110c692611459565b388080806115b9565b9091809350813d8311611630575b61161a8183611017565b810103126104b8575051816115f96110c66115e9565b503d611610565b51913d9150823e3d90fd5b90508281813d8311611668575b6116598183611017565b8101031261065e5751386115b1565b503d61164f565b85513d88823e3d90fd5b909350815190815282818581305afa9081156116cc5760009161169f575b50923861158a565b90508281813d83116116c5575b6116b68183611017565b810103126110f4575138611697565b503d6116ac565b82513d6000823e3d90fd5b90508481813d83116116fd575b6116ee8183611017565b810103126110f4575138611582565b503d6116e4565b505061155d6000610290565b50610e9661155d9142611459565b505050505050600090565b506117348284611153565b4210611533565b6117529150853d8711610435576104268183611017565b3861152b565b908482813d831161177e575b61176e8183611017565b810103126104b857505138611508565b503d611764565b908382813d83116117ab575b61179b8183611017565b810103126104b8575051386114e5565b503d611791565b9192901561181457508151156117c6575090565b3b156117cf5790565b60405162461bcd60e51b815260206004820152601d60248201527f416464726573733a2063616c6c20746f206e6f6e2d636f6e74726163740000006044820152606490fd5b8251909150156118275750805190602001fd5b6040519062461bcd60e51b82528160208060048301528251908160248401526000935b82851061186d575050604492506000838284010152601f80199101168101030190fd5b848101820151868601604401529381019385935061184a56fea2646970667358221220c50af08313fbdf2ee3fcd067a02f16abe01a4b7b1906584418e2c7f2e4eae4fc64736f6c63430008180033","linkReferences":{}},"methodIdentifiers":{"getAmount()":"d321fe29","getClaimableAmount()":"c354bd6e","getCliffPeriod()":"3d9205c1","getCurrentSlot()":"d8e3784c","getEnableCliff()":"747ba251","getLastClaimedTime()":"38adde50","getNextVestingDate()":"3660218c","getOwner()":"893d20e8","getRecipient()":"1b88094d","getReleasedAmount()":"9a5569a7","getSlots()":"fab2c469","getStartTime()":"c828371e","getToken()":"21df0da7","getUnlockTime()":"602bc62b","getVestingStatus()":"ee4a745c","initialize(address,address,uint256,uint256,uint256,address,uint256,uint256,uint256,uint256,bool)":"ed3410d9","vestingAmount()":"00728f76","vestingInterval()":"b8e50cab","withdraw()":"3ccfd60b"},"id":36}